{
  "_format": "hh3-artifact-1",
  "contractName": "BTCPlanCore",
  "sourceName": "contracts/BTCPlanCore.sol",
  "abi": [
    {
      "inputs": [
        {
          "internalType": "address",
          "name": "_btcbToken",
          "type": "address"
        },
        {
          "internalType": "address",
          "name": "_btcPriceFeed",
          "type": "address"
        }
      ],
      "stateMutability": "nonpayable",
      "type": "constructor"
    },
    {
      "inputs": [],
      "name": "ReentrancyGuardReentrantCall",
      "type": "error"
    },
    {
      "inputs": [
        {
          "internalType": "address",
          "name": "token",
          "type": "address"
        }
      ],
      "name": "SafeERC20FailedOperation",
      "type": "error"
    },
    {
      "anonymous": false,
      "inputs": [
        {
          "indexed": true,
          "internalType": "address",
          "name": "contributionBooster",
          "type": "address"
        }
      ],
      "name": "ContributionBoosterUpdated",
      "type": "event"
    },
    {
      "anonymous": false,
      "inputs": [
        {
          "indexed": true,
          "internalType": "address",
          "name": "contributionReward",
          "type": "address"
        }
      ],
      "name": "ContributionRewardUpdated",
      "type": "event"
    },
    {
      "anonymous": false,
      "inputs": [
        {
          "indexed": true,
          "internalType": "address",
          "name": "incomeManager",
          "type": "address"
        }
      ],
      "name": "IncomeManagerUpdated",
      "type": "event"
    },
    {
      "anonymous": false,
      "inputs": [
        {
          "indexed": true,
          "internalType": "address",
          "name": "interdependentReward",
          "type": "address"
        }
      ],
      "name": "InterdependentRewardUpdated",
      "type": "event"
    },
    {
      "anonymous": false,
      "inputs": [
        {
          "indexed": true,
          "internalType": "address",
          "name": "previousOwner",
          "type": "address"
        },
        {
          "indexed": true,
          "internalType": "address",
          "name": "newOwner",
          "type": "address"
        }
      ],
      "name": "OwnershipTransferred",
      "type": "event"
    },
    {
      "anonymous": false,
      "inputs": [
        {
          "indexed": true,
          "internalType": "address",
          "name": "user",
          "type": "address"
        },
        {
          "indexed": false,
          "internalType": "uint256",
          "name": "packageAmount",
          "type": "uint256"
        },
        {
          "indexed": false,
          "internalType": "uint8",
          "name": "packageCycle",
          "type": "uint8"
        },
        {
          "indexed": false,
          "internalType": "uint256",
          "name": "tokenAmount",
          "type": "uint256"
        }
      ],
      "name": "PackageActivated",
      "type": "event"
    },
    {
      "anonymous": false,
      "inputs": [
        {
          "indexed": true,
          "internalType": "address",
          "name": "user",
          "type": "address"
        },
        {
          "indexed": false,
          "internalType": "uint256",
          "name": "packageAmount",
          "type": "uint256"
        },
        {
          "indexed": false,
          "internalType": "uint8",
          "name": "packageCycle",
          "type": "uint8"
        }
      ],
      "name": "PackageCompleted",
      "type": "event"
    },
    {
      "anonymous": false,
      "inputs": [
        {
          "indexed": true,
          "internalType": "address",
          "name": "rankReward",
          "type": "address"
        }
      ],
      "name": "RankRewardUpdated",
      "type": "event"
    },
    {
      "anonymous": false,
      "inputs": [
        {
          "indexed": true,
          "internalType": "address",
          "name": "treasury",
          "type": "address"
        }
      ],
      "name": "TreasuryUpdated",
      "type": "event"
    },
    {
      "anonymous": false,
      "inputs": [
        {
          "indexed": true,
          "internalType": "address",
          "name": "user",
          "type": "address"
        },
        {
          "indexed": true,
          "internalType": "address",
          "name": "sponsor",
          "type": "address"
        }
      ],
      "name": "UserRegistered",
      "type": "event"
    },
    {
      "inputs": [
        {
          "internalType": "uint256",
          "name": "amount",
          "type": "uint256"
        }
      ],
      "name": "activatePackage",
      "outputs": [],
      "stateMutability": "nonpayable",
      "type": "function"
    },
    {
      "inputs": [],
      "name": "btcPriceFeed",
      "outputs": [
        {
          "internalType": "contract IBTCPriceFeed",
          "name": "",
          "type": "address"
        }
      ],
      "stateMutability": "view",
      "type": "function"
    },
    {
      "inputs": [],
      "name": "btcbToken",
      "outputs": [
        {
          "internalType": "contract IERC20",
          "name": "",
          "type": "address"
        }
      ],
      "stateMutability": "view",
      "type": "function"
    },
    {
      "inputs": [
        {
          "internalType": "address",
          "name": "user",
          "type": "address"
        }
      ],
      "name": "completePackage",
      "outputs": [],
      "stateMutability": "nonpayable",
      "type": "function"
    },
    {
      "inputs": [],
      "name": "contributionBooster",
      "outputs": [
        {
          "internalType": "contract IContributionBooster",
          "name": "",
          "type": "address"
        }
      ],
      "stateMutability": "view",
      "type": "function"
    },
    {
      "inputs": [],
      "name": "contributionReward",
      "outputs": [
        {
          "internalType": "contract IContributionReward",
          "name": "",
          "type": "address"
        }
      ],
      "stateMutability": "view",
      "type": "function"
    },
    {
      "inputs": [
        {
          "internalType": "uint256",
          "name": "usdAmount",
          "type": "uint256"
        }
      ],
      "name": "getBTCBAmountFromUSD",
      "outputs": [
        {
          "internalType": "uint256",
          "name": "",
          "type": "uint256"
        }
      ],
      "stateMutability": "view",
      "type": "function"
    },
    {
      "inputs": [
        {
          "internalType": "address",
          "name": "userAddr",
          "type": "address"
        }
      ],
      "name": "getNextEligiblePackage",
      "outputs": [
        {
          "internalType": "uint256",
          "name": "",
          "type": "uint256"
        },
        {
          "internalType": "uint8",
          "name": "",
          "type": "uint8"
        }
      ],
      "stateMutability": "view",
      "type": "function"
    },
    {
      "inputs": [
        {
          "internalType": "uint256",
          "name": "packageAmount",
          "type": "uint256"
        }
      ],
      "name": "getPackageBTCBAmount",
      "outputs": [
        {
          "internalType": "uint256",
          "name": "",
          "type": "uint256"
        }
      ],
      "stateMutability": "view",
      "type": "function"
    },
    {
      "inputs": [
        {
          "internalType": "uint256",
          "name": "amount",
          "type": "uint256"
        }
      ],
      "name": "getPackageIndex",
      "outputs": [
        {
          "internalType": "uint256",
          "name": "",
          "type": "uint256"
        }
      ],
      "stateMutability": "view",
      "type": "function"
    },
    {
      "inputs": [],
      "name": "getPackages",
      "outputs": [
        {
          "internalType": "uint256[]",
          "name": "",
          "type": "uint256[]"
        }
      ],
      "stateMutability": "view",
      "type": "function"
    },
    {
      "inputs": [],
      "name": "incomeManager",
      "outputs": [
        {
          "internalType": "contract IIncomeManager",
          "name": "",
          "type": "address"
        }
      ],
      "stateMutability": "view",
      "type": "function"
    },
    {
      "inputs": [],
      "name": "interdependentReward",
      "outputs": [
        {
          "internalType": "contract IInterdependentReward",
          "name": "",
          "type": "address"
        }
      ],
      "stateMutability": "view",
      "type": "function"
    },
    {
      "inputs": [
        {
          "internalType": "uint256",
          "name": "amount",
          "type": "uint256"
        }
      ],
      "name": "isValidPackage",
      "outputs": [
        {
          "internalType": "bool",
          "name": "",
          "type": "bool"
        }
      ],
      "stateMutability": "view",
      "type": "function"
    },
    {
      "inputs": [
        {
          "internalType": "address",
          "name": "user",
          "type": "address"
        }
      ],
      "name": "onRoiCapReached",
      "outputs": [],
      "stateMutability": "nonpayable",
      "type": "function"
    },
    {
      "inputs": [
        {
          "internalType": "address",
          "name": "user",
          "type": "address"
        }
      ],
      "name": "onWorkingCapReached",
      "outputs": [],
      "stateMutability": "nonpayable",
      "type": "function"
    },
    {
      "inputs": [],
      "name": "owner",
      "outputs": [
        {
          "internalType": "address",
          "name": "",
          "type": "address"
        }
      ],
      "stateMutability": "view",
      "type": "function"
    },
    {
      "inputs": [
        {
          "internalType": "uint256",
          "name": "",
          "type": "uint256"
        }
      ],
      "name": "packages",
      "outputs": [
        {
          "internalType": "uint256",
          "name": "",
          "type": "uint256"
        }
      ],
      "stateMutability": "view",
      "type": "function"
    },
    {
      "inputs": [],
      "name": "rankReward",
      "outputs": [
        {
          "internalType": "contract IRankReward",
          "name": "",
          "type": "address"
        }
      ],
      "stateMutability": "view",
      "type": "function"
    },
    {
      "inputs": [
        {
          "internalType": "address",
          "name": "sponsor",
          "type": "address"
        }
      ],
      "name": "register",
      "outputs": [],
      "stateMutability": "nonpayable",
      "type": "function"
    },
    {
      "inputs": [
        {
          "internalType": "address",
          "name": "_contributionBooster",
          "type": "address"
        }
      ],
      "name": "setContributionBooster",
      "outputs": [],
      "stateMutability": "nonpayable",
      "type": "function"
    },
    {
      "inputs": [
        {
          "internalType": "address",
          "name": "_contributionReward",
          "type": "address"
        }
      ],
      "name": "setContributionReward",
      "outputs": [],
      "stateMutability": "nonpayable",
      "type": "function"
    },
    {
      "inputs": [
        {
          "internalType": "address",
          "name": "_incomeManager",
          "type": "address"
        }
      ],
      "name": "setIncomeManager",
      "outputs": [],
      "stateMutability": "nonpayable",
      "type": "function"
    },
    {
      "inputs": [
        {
          "internalType": "address",
          "name": "_rewardContract",
          "type": "address"
        }
      ],
      "name": "setInterdependentReward",
      "outputs": [],
      "stateMutability": "nonpayable",
      "type": "function"
    },
    {
      "inputs": [
        {
          "internalType": "address",
          "name": "_rankReward",
          "type": "address"
        }
      ],
      "name": "setRankReward",
      "outputs": [],
      "stateMutability": "nonpayable",
      "type": "function"
    },
    {
      "inputs": [
        {
          "internalType": "address",
          "name": "_treasury",
          "type": "address"
        }
      ],
      "name": "setTreasury",
      "outputs": [],
      "stateMutability": "nonpayable",
      "type": "function"
    },
    {
      "inputs": [
        {
          "internalType": "address",
          "name": "newOwner",
          "type": "address"
        }
      ],
      "name": "transferOwnership",
      "outputs": [],
      "stateMutability": "nonpayable",
      "type": "function"
    },
    {
      "inputs": [],
      "name": "treasury",
      "outputs": [
        {
          "internalType": "contract ITreasuryManager",
          "name": "",
          "type": "address"
        }
      ],
      "stateMutability": "view",
      "type": "function"
    },
    {
      "inputs": [
        {
          "internalType": "address",
          "name": "",
          "type": "address"
        }
      ],
      "name": "users",
      "outputs": [
        {
          "internalType": "address",
          "name": "wallet",
          "type": "address"
        },
        {
          "internalType": "address",
          "name": "sponsor",
          "type": "address"
        },
        {
          "internalType": "uint256",
          "name": "packageAmount",
          "type": "uint256"
        },
        {
          "internalType": "uint8",
          "name": "packageIndex",
          "type": "uint8"
        },
        {
          "internalType": "uint8",
          "name": "packageCycle",
          "type": "uint8"
        },
        {
          "internalType": "uint256",
          "name": "joinedAt",
          "type": "uint256"
        },
        {
          "internalType": "bool",
          "name": "isActive",
          "type": "bool"
        },
        {
          "internalType": "bool",
          "name": "packageCompleted",
          "type": "bool"
        }
      ],
      "stateMutability": "view",
      "type": "function"
    }
  ],
  "bytecode": "0x608060405234801561000f575f5ffd5b50604051611f2f380380611f2f83398101604081905261002e916101d5565b60017f9b779b17422d0df92223018b32b4d1fa46e071723d6817e2486d003becc55f00556001600160a01b03821661009d5760405162461bcd60e51b815260206004820152600d60248201526c24b73b30b634b2103a37b5b2b760991b60448201526064015b60405180910390fd5b6001600160a01b0381166100e85760405162461bcd60e51b8152602060048201526012602482015271125b9d985b1a59081c1c9a58d9481999595960721b6044820152606401610094565b5f8054336001600160a01b03199182161782556001805482166001600160a01b039586161781556002805490921693909416929092179091556009805480840182559181905260327f6e1540171b6c0c960b71a7020d9f60077f6af931a8bbf590da0223dacf75c7af92830155805480840182556064908301558054808401825561012c90830155805480840182556101f490830155805480840182556103e89083015580548084018255610bb890830155805480840182556113889083015580549283019055612710910155610206565b80516001600160a01b03811681146101d0575f5ffd5b919050565b5f5f604083850312156101e6575f5ffd5b6101ef836101ba565b91506101fd602084016101ba565b90509250929050565b611d1c806102135f395ff3fe608060405234801561000f575f5ffd5b50600436106101c6575f3560e01c80638da5cb5b116100fe578063c216212a1161009e578063ee8d306f1161006e578063ee8d306f14610486578063f0f4426014610499578063f2fde38b146104ac578063ffb92e3c146104bf575f5ffd5b8063c216212a1461044d578063d4e26c871461043a578063de9a7e1914610460578063e25f7da514610473575f5ffd5b8063a7137d66116100d9578063a7137d6614610362578063a87430ba14610375578063b264a73414610427578063b29bb55e1461043a575f5ffd5b80638da5cb5b1461032a5780638fc016231461033c578063960f64ec1461034f575f5ffd5b80634bce17eb116101695780636c902bf1116101445780636c902bf1146102de5780636f0c3404146102f15780637a8bda97146103045780638b17650614610317575f5ffd5b80634bce17eb1461028c5780635c05a89f146102b657806361d027b3146102cb575f5ffd5b806323164c93116101a457806323164c931461022e57806343c51084146102415780634420e4861461025657806347a51e2e14610269575f5ffd5b8063049fe5af146101ca57806306f335e3146101f057806318db075014610203575b5f5ffd5b6101dd6101d8366004611b79565b6104d2565b6040519081526020015b60405180910390f35b6101dd6101fe366004611b79565b610531565b600454610216906001600160a01b031681565b6040516001600160a01b0390911681526020016101e7565b600254610216906001600160a01b031681565b61025461024f366004611b90565b610566565b005b610254610264366004611b90565b610607565b61027c610277366004611b79565b610996565b60405190151581526020016101e7565b61029f61029a366004611b90565b6109de565b6040805192835260ff9091166020830152016101e7565b6102be610b97565b6040516101e79190611bb6565b600354610216906001600160a01b031681565b6102546102ec366004611b90565b610bed565b6102546102ff366004611b90565b610cb5565b600754610216906001600160a01b031681565b600654610216906001600160a01b031681565b5f54610216906001600160a01b031681565b61025461034a366004611b79565b610d76565b61025461035d366004611b90565b61135e565b6101dd610370366004611b79565b611426565b6103d9610383366004611b90565b600a6020525f90815260409020805460018201546002830154600384015460048501546005909501546001600160a01b03948516959390941693919260ff80831693610100938490048216938183169291041688565b604080516001600160a01b03998a1681529890971660208901529587019490945260ff92831660608701529116608085015260a0840152151560c0830152151560e0820152610100016101e7565b610254610435366004611b90565b611505565b610254610448366004611b90565b6115cd565b6101dd61045b366004611b79565b6116d6565b600154610216906001600160a01b031681565b610254610481366004611b90565b6116f5565b600854610216906001600160a01b031681565b6102546104a7366004611b90565b6117b3565b6102546104ba366004611b90565b61186e565b600554610216906001600160a01b031681565b5f805b60095481101561050f5782600982815481106104f3576104f3611bf8565b905f5260205f200154036105075792915050565b6001016104d5565b5060405162461bcd60e51b815260040161052890611c0c565b60405180910390fd5b5f61053b82610996565b6105575760405162461bcd60e51b815260040161052890611c0c565b61056082611426565b92915050565b6005546001600160a01b031633146105b65760405162461bcd60e51b815260206004820152601360248201527227b7363c9034b731b7b6b29036b0b730b3b2b960691b6044820152606401610528565b6001600160a01b0381166105fb5760405162461bcd60e51b815260206004820152600c60248201526b24b73b30b634b2103ab9b2b960a11b6044820152606401610528565b61060481611936565b50565b335f908152600a602052604090206005015460ff16156106695760405162461bcd60e51b815260206004820152601760248201527f5573657220616c726561647920726567697374657265640000000000000000006044820152606401610528565b336001600160a01b038216036106c15760405162461bcd60e51b815260206004820152601760248201527f43616e6e6f742073706f6e736f7220796f757273656c660000000000000000006044820152606401610528565b6001600160a01b03811615610733576001600160a01b0381165f908152600a602052604090206005015460ff166107335760405162461bcd60e51b815260206004820152601660248201527514dc1bdb9cdbdc881b9bdd081c9959da5cdd195c995960521b6044820152606401610528565b604080516101008082018352338083526001600160a01b0385811660208086019182525f86880181815260608801828152608089018381524260a08b01908152600160c08c0181815260e08d018781529a8752600a9097529b90942099518a549088166001600160a01b0319918216178b5595519a8a0180549b88169b9096169a909a179094555160028801559151600387018054985160ff908116880261ffff199a8b1693909116929092179190911790559051600486015551600590940180549251151590930293151561ff001916919094161791909117905560075416156108795760075460405163f01fba9360e01b81523360048201526001600160a01b0383811660248301529091169063f01fba93906044015f604051808303815f87803b158015610862575f5ffd5b505af1158015610874573d5f5f3e3d5ffd5b505050505b6004546001600160a01b0316156108ec576004805460405163f01fba9360e01b815233928101929092526001600160a01b038381166024840152169063f01fba93906044015f604051808303815f87803b1580156108d5575f5ffd5b505af11580156108e7573d5f5f3e3d5ffd5b505050505b6006546001600160a01b03161561095e576006546040516301aa56d960e11b81523360048201526001600160a01b03838116602483015290911690630354adb2906044015f604051808303815f87803b158015610947575f5ffd5b505af1158015610959573d5f5f3e3d5ffd5b505050505b6040516001600160a01b0382169033907f2138b9314634f9fdd5e49bee3eaf17ca557b6637524d0db759711c3bfcd3d850905f90a350565b5f805b6009548110156109d65782600982815481106109b7576109b7611bf8565b905f5260205f200154036109ce5750600192915050565b600101610999565b505f92915050565b6001600160a01b038082165f908152600a60209081526040808320815161010080820184528254871682526001830154909616938101939093526002810154918301829052600381015460ff80821660608601529086900481166080850152600482015460a0850152600590910154808216151560c085015294909404909316151560e082015290918291908203610a7d575060329360019350915050565b8060e00151610ace5760405162461bcd60e51b815260206004820152601e60248201527f436f6d706c6574652063757272656e74207061636b61676520666972737400006044820152606401610528565b806080015160ff16600103610aeb57604001519360029350915050565b806080015160ff16600214610b325760405162461bcd60e51b815260206004820152600d60248201526c496e76616c6964206379636c6560981b6044820152606401610528565b600954610b4190600190611c49565b816060015160ff1603610b5c57506127109360029350915050565b600981606001516001610b6f9190611c5c565b60ff1681548110610b8257610b82611bf8565b905f5260205f20015460019250925050915091565b60606009805480602002602001604051908101604052809291908181526020018280548015610be357602002820191905f5260205f20905b815481526020019060010190808311610bcf575b5050505050905090565b5f546001600160a01b03163314610c165760405162461bcd60e51b815260040161052890611c75565b6001600160a01b038116610c6c5760405162461bcd60e51b815260206004820152601b60248201527f496e76616c696420636f6e747269627574696f6e2072657761726400000000006044820152606401610528565b600480546001600160a01b0319166001600160a01b0383169081179091556040517f338bf77b6e5183ff6124fa10885f42e2ef6cdad83261cb30e3cac9a4d90badc3905f90a250565b5f546001600160a01b03163314610cde5760405162461bcd60e51b815260040161052890611c75565b6001600160a01b038116610d2d5760405162461bcd60e51b815260206004820152601660248201527524b73b30b634b21034b731b7b6b29036b0b730b3b2b960511b6044820152606401610528565b600580546001600160a01b0319166001600160a01b0383169081179091556040517f0f0fd68ddbdbaed4a449438dc3616233e337288adb444d5ccc52fb76da94b729905f90a250565b610d7e611a5e565b335f908152600a602052604090206005015460ff16610dd55760405162461bcd60e51b8152602060048201526013602482015272155cd95c881b9bdd081c9959da5cdd195c9959606a1b6044820152606401610528565b610dde81610996565b610dfa5760405162461bcd60e51b815260040161052890611c0c565b6003546001600160a01b0316610e455760405162461bcd60e51b815260206004820152601060248201526f151c99585cdd5c9e481b9bdd081cd95d60821b6044820152606401610528565b6008546001600160a01b0316610e9d5760405162461bcd60e51b815260206004820152601760248201527f52657761726420636f6e7472616374206e6f74207365740000000000000000006044820152606401610528565b6005546001600160a01b0316610eee5760405162461bcd60e51b8152602060048201526016602482015275125b98dbdb59481b585b9859d95c881b9bdd081cd95d60521b6044820152606401610528565b5f5f610ef9336109de565b91509150818314610f4c5760405162461bcd60e51b815260206004820152601860248201527f496e76616c6964207061636b6167652073657175656e636500000000000000006044820152606401610528565b335f908152600a60205260409020600281015415610fb5576005810154610100900460ff16610fb55760405162461bcd60e51b8152602060048201526015602482015274141858dad859d9481b9bdd0818dbdb5c1b195d1959605a1b6044820152606401610528565b5f610fbf85610531565b600354600154919250610fe1916001600160a01b039081169133911684611a8c565b60035460405163034249c360e61b8152600481018390526001600160a01b039091169063d09270c0906024015f604051808303815f87803b158015611024575f5ffd5b505af1158015611036573d5f5f3e3d5ffd5b505060055460405163b56699e360e01b8152336004820152602481018590526001600160a01b03909116925063b56699e391506044015f604051808303815f87803b158015611083575f5ffd5b505af1158015611095573d5f5f3e3d5ffd5b50506004546001600160a01b031615915061110d9050576004805460405163f4ace1a560e01b81523392810192909252602482018390526001600160a01b03169063f4ace1a5906044015f604051808303815f87803b1580156110f6575f5ffd5b505af1158015611108573d5f5f3e3d5ffd5b505050505b6006546001600160a01b0316156111dd57600654604051630b77be1b60e31b8152336004820152602481018790526001600160a01b0390911690635bbdf0d8906044015f604051808303815f87803b158015611167575f5ffd5b505af1158015611179573d5f5f3e3d5ffd5b50506006546040516336a5598f60e21b8152336004820152602481018590526001600160a01b03909116925063da95663c91506044015f604051808303815f87803b1580156111c6575f5ffd5b505af11580156111d8573d5f5f3e3d5ffd5b505050505b6008546040516358199e5960e01b8152336004820152602481018390526001600160a01b03909116906358199e59906044015f604051808303815f87803b158015611226575f5ffd5b505af1158015611238573d5f5f3e3d5ffd5b505050506002820185905561124c856104d2565b60038301805460ff8681166101000261ffff1990921693169290921791909117905560058201805461ff00191690556007546001600160a01b0316156112ec57600754604051636dcf1f5560e01b8152336004820152602481018790526001600160a01b0390911690636dcf1f55906044015f604051808303815f87803b1580156112d5575f5ffd5b505af11580156112e7573d5f5f3e3d5ffd5b505050505b6040805186815260ff8516602082015290810182905233907fd9e77818478fb96613e336e49129f3b174b896a6a6fa084e7fdcc5e9bd6be9da9060600160405180910390a25050505061060460017f9b779b17422d0df92223018b32b4d1fa46e071723d6817e2486d003becc55f0055565b5f546001600160a01b031633146113875760405162461bcd60e51b815260040161052890611c75565b6001600160a01b0381166113dd5760405162461bcd60e51b815260206004820152601c60248201527f496e76616c696420636f6e747269627574696f6e20626f6f73746572000000006044820152606401610528565b600680546001600160a01b0319166001600160a01b0383169081179091556040517f79acb9453e2c0d8db1ee327f9fa3f32d5a836265f1b785a33407aae741aa4c63905f90a250565b5f5f60025f9054906101000a90046001600160a01b03166001600160a01b031663dd22db806040518163ffffffff1660e01b8152600401602060405180830381865afa158015611478573d5f5f3e3d5ffd5b505050506040513d601f19601f8201168201806040525081019061149c9190611c99565b90505f81136114e15760405162461bcd60e51b8152602060048201526011602482015270496e76616c69642042544320707269636560781b6044820152606401610528565b806114f484670de0b6b3a7640000611cb0565b6114fe9190611cc7565b9392505050565b5f546001600160a01b0316331461152e5760405162461bcd60e51b815260040161052890611c75565b6001600160a01b0381166115845760405162461bcd60e51b815260206004820152601760248201527f496e76616c69642072657761726420636f6e74726163740000000000000000006044820152606401610528565b600880546001600160a01b0319166001600160a01b0383169081179091556040517f5007f8a9652d3e0064d5e8a6d2121b3a2362f4a352219577b48f6d2d7896715e905f90a250565b6005546001600160a01b0316331461161d5760405162461bcd60e51b815260206004820152601360248201527227b7363c9034b731b7b6b29036b0b730b3b2b960691b6044820152606401610528565b6001600160a01b0381166116625760405162461bcd60e51b815260206004820152600c60248201526b24b73b30b634b2103ab9b2b960a11b6044820152606401610528565b6008546001600160a01b0316156105fb57600854604051633afd35cb60e11b81526001600160a01b038381166004830152909116906375fa6b96906024015f604051808303815f87803b1580156116b7575f5ffd5b505af11580156116c9573d5f5f3e3d5ffd5b5050505061060481611936565b600981815481106116e5575f80fd5b5f91825260209091200154905081565b5f546001600160a01b0316331461171e5760405162461bcd60e51b815260040161052890611c75565b6001600160a01b03811661176a5760405162461bcd60e51b8152602060048201526013602482015272125b9d985b1a59081c985b9ac81c995dd85c99606a1b6044820152606401610528565b600780546001600160a01b0319166001600160a01b0383169081179091556040517f4cacbbb7ab6b53111341450cfd7f206628ce36c8698bfebf205937be520f82c5905f90a250565b5f546001600160a01b031633146117dc5760405162461bcd60e51b815260040161052890611c75565b6001600160a01b0381166118255760405162461bcd60e51b815260206004820152601060248201526f496e76616c696420747265617375727960801b6044820152606401610528565b600380546001600160a01b0319166001600160a01b0383169081179091556040517f7dae230f18360d76a040c81f050aa14eb9d6dc7901b20fc5d855e2a20fe814d1905f90a250565b5f546001600160a01b031633146118975760405162461bcd60e51b815260040161052890611c75565b6001600160a01b0381166118dd5760405162461bcd60e51b815260206004820152600d60248201526c24b73b30b634b21037bbb732b960991b6044820152606401610528565b5f80546040516001600160a01b03808516939216917f8be0079c531659141344cd1fd0a4f28419497f9722a3daafe3b4186f6b6457e091a35f80546001600160a01b0319166001600160a01b0392909216919091179055565b6001600160a01b0381165f908152600a60205260409020600581015460ff166119975760405162461bcd60e51b8152602060048201526013602482015272155cd95c881b9bdd081c9959da5cdd195c9959606a1b6044820152606401610528565b5f8160020154116119de5760405162461bcd60e51b81526020600482015260116024820152704e6f20616374697665207061636b61676560781b6044820152606401610528565b6005810154610100900460ff16156119f4575050565b60058101805461ff001916610100908117909155600282015460038301546040805192835292900460ff1660208201526001600160a01b038416917f69224fe5c5771a695ba88208d0e707ddbb3040958858117ff036578d92866865910160405180910390a25050565b611a66611ac8565b60027f9b779b17422d0df92223018b32b4d1fa46e071723d6817e2486d003becc55f0055565b611a9a848484846001611b0c565b611ac257604051635274afe760e01b81526001600160a01b0385166004820152602401610528565b50505050565b7f9b779b17422d0df92223018b32b4d1fa46e071723d6817e2486d003becc55f0054600203611b0a57604051633ee5aeb560e01b815260040160405180910390fd5b565b6040516323b872dd60e01b5f8181526001600160a01b038781166004528616602452604485905291602083606481808c5af1925060015f51148316611b68578383151615611b5c573d5f823e3d81fd5b5f883b113d1516831692505b604052505f60605295945050505050565b5f60208284031215611b89575f5ffd5b5035919050565b5f60208284031215611ba0575f5ffd5b81356001600160a01b03811681146114fe575f5ffd5b602080825282518282018190525f918401906040840190835b81811015611bed578351835260209384019390920191600101611bcf565b509095945050505050565b634e487b7160e01b5f52603260045260245ffd5b6020808252600f908201526e496e76616c6964207061636b61676560881b604082015260600190565b634e487b7160e01b5f52601160045260245ffd5b8181038181111561056057610560611c35565b60ff818116838216019081111561056057610560611c35565b6020808252600a908201526927b7363c9037bbb732b960b11b604082015260600190565b5f60208284031215611ca9575f5ffd5b5051919050565b808202811582820484141761056057610560611c35565b5f82611ce157634e487b7160e01b5f52601260045260245ffd5b50049056fea2646970667358221220d0fc6ae38b768325281dbb1d91de177e17e206eeb3ec0f6cbff0f299311fcdaa64736f6c634300081c0033",
  "linkReferences": {},
  "deployedLinkReferences": {},
  "immutableReferences": {},
  "inputSourceName": "project/contracts/BTCPlanCore.sol",
  "buildInfoId": "solc-0_8_28-1cf5926752f7a43ea0d1799cb9cf7239b3cebfad"
}