{
  "_format": "hh3-artifact-1",
  "contractName": "CommunityBuilder",
  "sourceName": "contracts/CommunityBuilder.sol",
  "abi": [
    {
      "inputs": [
        {
          "internalType": "address",
          "name": "_treasury",
          "type": "address"
        }
      ],
      "stateMutability": "nonpayable",
      "type": "constructor"
    },
    {
      "anonymous": false,
      "inputs": [
        {
          "indexed": true,
          "internalType": "address",
          "name": "user",
          "type": "address"
        },
        {
          "indexed": true,
          "internalType": "uint256",
          "name": "roundId",
          "type": "uint256"
        },
        {
          "indexed": false,
          "internalType": "uint256",
          "name": "amount",
          "type": "uint256"
        }
      ],
      "name": "CommunityRewardClaimed",
      "type": "event"
    },
    {
      "anonymous": false,
      "inputs": [
        {
          "indexed": true,
          "internalType": "uint256",
          "name": "roundId",
          "type": "uint256"
        }
      ],
      "name": "DistributionRoundClosed",
      "type": "event"
    },
    {
      "anonymous": false,
      "inputs": [
        {
          "indexed": true,
          "internalType": "uint256",
          "name": "roundId",
          "type": "uint256"
        },
        {
          "indexed": false,
          "internalType": "uint256",
          "name": "fundAmount",
          "type": "uint256"
        },
        {
          "indexed": false,
          "internalType": "uint256",
          "name": "totalPoints",
          "type": "uint256"
        },
        {
          "indexed": false,
          "internalType": "uint256",
          "name": "rewardPerPoint",
          "type": "uint256"
        }
      ],
      "name": "DistributionRoundStarted",
      "type": "event"
    },
    {
      "anonymous": false,
      "inputs": [
        {
          "indexed": true,
          "internalType": "address",
          "name": "incomeManager",
          "type": "address"
        }
      ],
      "name": "IncomeManagerUpdated",
      "type": "event"
    },
    {
      "anonymous": false,
      "inputs": [
        {
          "indexed": true,
          "internalType": "address",
          "name": "rankRewardContract",
          "type": "address"
        }
      ],
      "name": "RankRewardContractUpdated",
      "type": "event"
    },
    {
      "anonymous": false,
      "inputs": [
        {
          "indexed": true,
          "internalType": "address",
          "name": "user",
          "type": "address"
        },
        {
          "indexed": false,
          "internalType": "uint256",
          "name": "oldPoints",
          "type": "uint256"
        },
        {
          "indexed": false,
          "internalType": "uint256",
          "name": "newPoints",
          "type": "uint256"
        }
      ],
      "name": "UserPointsUpdated",
      "type": "event"
    },
    {
      "inputs": [],
      "name": "claimCommunityReward",
      "outputs": [],
      "stateMutability": "nonpayable",
      "type": "function"
    },
    {
      "inputs": [],
      "name": "closeDistributionRound",
      "outputs": [],
      "stateMutability": "nonpayable",
      "type": "function"
    },
    {
      "inputs": [
        {
          "internalType": "address",
          "name": "",
          "type": "address"
        }
      ],
      "name": "communityIncome",
      "outputs": [
        {
          "internalType": "uint256",
          "name": "",
          "type": "uint256"
        }
      ],
      "stateMutability": "view",
      "type": "function"
    },
    {
      "inputs": [],
      "name": "currentRound",
      "outputs": [
        {
          "internalType": "uint256",
          "name": "",
          "type": "uint256"
        }
      ],
      "stateMutability": "view",
      "type": "function"
    },
    {
      "inputs": [
        {
          "internalType": "uint256",
          "name": "",
          "type": "uint256"
        }
      ],
      "name": "distributionRounds",
      "outputs": [
        {
          "internalType": "uint256",
          "name": "fundAmount",
          "type": "uint256"
        },
        {
          "internalType": "uint256",
          "name": "totalPoints",
          "type": "uint256"
        },
        {
          "internalType": "uint256",
          "name": "rewardPerPoint",
          "type": "uint256"
        },
        {
          "internalType": "uint256",
          "name": "totalPaid",
          "type": "uint256"
        },
        {
          "internalType": "uint256",
          "name": "startedAt",
          "type": "uint256"
        },
        {
          "internalType": "bool",
          "name": "isActive",
          "type": "bool"
        }
      ],
      "stateMutability": "view",
      "type": "function"
    },
    {
      "inputs": [
        {
          "internalType": "uint256",
          "name": "",
          "type": "uint256"
        }
      ],
      "name": "eligibleUsers",
      "outputs": [
        {
          "internalType": "address",
          "name": "",
          "type": "address"
        }
      ],
      "stateMutability": "view",
      "type": "function"
    },
    {
      "inputs": [],
      "name": "getEligibleUsersCount",
      "outputs": [
        {
          "internalType": "uint256",
          "name": "",
          "type": "uint256"
        }
      ],
      "stateMutability": "view",
      "type": "function"
    },
    {
      "inputs": [
        {
          "internalType": "address",
          "name": "user",
          "type": "address"
        }
      ],
      "name": "getPendingReward",
      "outputs": [
        {
          "internalType": "uint256",
          "name": "",
          "type": "uint256"
        }
      ],
      "stateMutability": "view",
      "type": "function"
    },
    {
      "inputs": [],
      "name": "incomeManager",
      "outputs": [
        {
          "internalType": "contract IIncomeManager",
          "name": "",
          "type": "address"
        }
      ],
      "stateMutability": "view",
      "type": "function"
    },
    {
      "inputs": [
        {
          "internalType": "address",
          "name": "",
          "type": "address"
        }
      ],
      "name": "isEligibleUser",
      "outputs": [
        {
          "internalType": "bool",
          "name": "",
          "type": "bool"
        }
      ],
      "stateMutability": "view",
      "type": "function"
    },
    {
      "inputs": [],
      "name": "owner",
      "outputs": [
        {
          "internalType": "address",
          "name": "",
          "type": "address"
        }
      ],
      "stateMutability": "view",
      "type": "function"
    },
    {
      "inputs": [],
      "name": "rankReward",
      "outputs": [
        {
          "internalType": "contract IRankReward",
          "name": "",
          "type": "address"
        }
      ],
      "stateMutability": "view",
      "type": "function"
    },
    {
      "inputs": [],
      "name": "rankRewardContract",
      "outputs": [
        {
          "internalType": "address",
          "name": "",
          "type": "address"
        }
      ],
      "stateMutability": "view",
      "type": "function"
    },
    {
      "inputs": [
        {
          "internalType": "uint256",
          "name": "",
          "type": "uint256"
        },
        {
          "internalType": "address",
          "name": "",
          "type": "address"
        }
      ],
      "name": "roundClaimed",
      "outputs": [
        {
          "internalType": "bool",
          "name": "",
          "type": "bool"
        }
      ],
      "stateMutability": "view",
      "type": "function"
    },
    {
      "inputs": [
        {
          "internalType": "uint256",
          "name": "",
          "type": "uint256"
        },
        {
          "internalType": "address",
          "name": "",
          "type": "address"
        }
      ],
      "name": "roundUserPoints",
      "outputs": [
        {
          "internalType": "uint256",
          "name": "",
          "type": "uint256"
        }
      ],
      "stateMutability": "view",
      "type": "function"
    },
    {
      "inputs": [
        {
          "internalType": "address",
          "name": "_incomeManager",
          "type": "address"
        }
      ],
      "name": "setIncomeManager",
      "outputs": [],
      "stateMutability": "nonpayable",
      "type": "function"
    },
    {
      "inputs": [
        {
          "internalType": "address",
          "name": "_rankRewardContract",
          "type": "address"
        }
      ],
      "name": "setRankRewardContract",
      "outputs": [],
      "stateMutability": "nonpayable",
      "type": "function"
    },
    {
      "inputs": [],
      "name": "startDistributionRound",
      "outputs": [],
      "stateMutability": "nonpayable",
      "type": "function"
    },
    {
      "inputs": [],
      "name": "totalPoints",
      "outputs": [
        {
          "internalType": "uint256",
          "name": "",
          "type": "uint256"
        }
      ],
      "stateMutability": "view",
      "type": "function"
    },
    {
      "inputs": [],
      "name": "treasury",
      "outputs": [
        {
          "internalType": "contract ITreasuryManager",
          "name": "",
          "type": "address"
        }
      ],
      "stateMutability": "view",
      "type": "function"
    },
    {
      "inputs": [
        {
          "internalType": "address",
          "name": "user",
          "type": "address"
        },
        {
          "internalType": "uint256",
          "name": "points",
          "type": "uint256"
        }
      ],
      "name": "updateUserPoints",
      "outputs": [],
      "stateMutability": "nonpayable",
      "type": "function"
    },
    {
      "inputs": [
        {
          "internalType": "address",
          "name": "",
          "type": "address"
        }
      ],
      "name": "userPoints",
      "outputs": [
        {
          "internalType": "uint256",
          "name": "",
          "type": "uint256"
        }
      ],
      "stateMutability": "view",
      "type": "function"
    }
  ],
  "bytecode": "0x6080604052348015600e575f5ffd5b50604051611216380380611216833981016040819052602b9160a8565b6001600160a01b03811660775760405162461bcd60e51b815260206004820152601060248201526f496e76616c696420747265617375727960801b604482015260640160405180910390fd5b5f8054336001600160a01b031991821617909155600280549091166001600160a01b039290921691909117905560d3565b5f6020828403121560b7575f5ffd5b81516001600160a01b038116811460cc575f5ffd5b9392505050565b611136806100e05f395ff3fe608060405234801561000f575f5ffd5b506004361061013d575f3560e01c80637a8bda97116100b45780639dd52fcc116100795780639dd52fcc1461030a578063a0f2cab51461032c578063b41196eb1461033f578063bd11c0011461035e578063f50ddbc714610366578063ffb92e3c14610385575f5ffd5b80637a8bda97146102c15780638a19c8bc146102d45780638da5cb5b146102dd5780639bf8edae146102ef5780639d2ef16914610302575f5ffd5b80634760fc60116101055780634760fc601461023a5780634df9d6ba14610242578063567142be1461025557806361d027b31461025e578063694cf4fc146102715780636f0c3404146102ae575f5ffd5b8063014d183214610141578063018dc784146101ba578063150534b7146101f25780631bc259ca146101fc5780632110b25c14610227575b5f5ffd5b61018661014f366004610f56565b60096020525f9081526040902080546001820154600283015460038401546004850154600590950154939492939192909160ff1686565b6040805196875260208701959095529385019290925260608401526080830152151560a082015260c0015b60405180910390f35b6101e46101c8366004610f88565b600b60209081525f928352604080842090915290825290205481565b6040519081526020016101b1565b6101fa610398565b005b60015461020f906001600160a01b031681565b6040516001600160a01b0390911681526020016101b1565b6101fa610235366004610fb2565b6104a4565b6101fa610570565b6101e4610250366004610fb2565b610844565b6101e460075481565b60025461020f906001600160a01b031681565b61029e61027f366004610f88565b600a60209081525f928352604080842090915290825290205460ff1681565b60405190151581526020016101b1565b6101fa6102bc366004610fb2565b610941565b60045461020f906001600160a01b031681565b6101e460085481565b5f5461020f906001600160a01b031681565b6101fa6102fd366004610fd2565b610a02565b600c546101e4565b61029e610318366004610fb2565b600d6020525f908152604090205460ff1681565b61020f61033a366004610f56565b610c0c565b6101e461034d366004610fb2565b60066020525f908152604090205481565b6101fa610c34565b6101e4610374366004610fb2565b60056020525f908152604090205481565b60035461020f906001600160a01b031681565b5f546001600160a01b031633146103ca5760405162461bcd60e51b81526004016103c190610ffa565b60405180910390fd5b5f600854116104135760405162461bcd60e51b8152602060048201526015602482015274139bc8191a5cdd1c9a589d5d1a5bdb881c9bdd5b99605a1b60448201526064016103c1565b6008545f908152600960205260409020600581015460ff1661046a5760405162461bcd60e51b815260206004820152601060248201526f526f756e64206e6f742061637469766560801b60448201526064016103c1565b60058101805460ff191690556008546040517f7862e9a668b8dac1378b1c3e4f082cee4c6e5bf3dc6063b54fd0fda5822138ac905f90a250565b5f546001600160a01b031633146104cd5760405162461bcd60e51b81526004016103c190610ffa565b6001600160a01b03811661051b5760405162461bcd60e51b8152602060048201526015602482015274125b9d985b1a59081c985b9ac818dbdb9d1c9858dd605a1b60448201526064016103c1565b600180546001600160a01b0383166001600160a01b0319918216811790925560048054909116821790556040517f3da92daab977d136605a255706e90f463ee282bd4aff05a6bc73d5c4254f3a0b905f90a250565b5f546001600160a01b031633146105995760405162461bcd60e51b81526004016103c190610ffa565b600854156105fc576008545f9081526009602052604090206005015460ff16156105fc5760405162461bcd60e51b815260206004820152601460248201527343757272656e7420726f756e642061637469766560601b60448201526064016103c1565b5f600754116106435760405162461bcd60e51b81526020600482015260136024820152724e6f20636f6d6d756e69747920706f696e747360681b60448201526064016103c1565b60025460408051632107497360e01b815290515f926001600160a01b03169163210749739160048083019260209291908290030181865afa15801561068a573d5f5f3e3d5ffd5b505050506040513d601f19601f820116820180604052508101906106ae919061101e565b90505f81116106f35760405162461bcd60e51b8152602060048201526011602482015270139bc818dbdb5b5d5b9a5d1e48199d5b99607a1b60448201526064016103c1565b600160085f8282546107059190611049565b90915550506007545f906107199083611062565b6040805160c08101825284815260075460208083019182528284018581525f606085018181524260808701908152600160a088018181526008548552600990965297832096518755945196860196909655905160028501559351600384015590516004830155516005909101805460ff19169115159190911790559091505b600c548110156107f8575f600c82815481106107b6576107b6611081565b5f9182526020808320909101546001600160a01b0316808352600582526040808420546008548552600b84528185209285529190925291205550600101610798565b5060085460075460408051858152602081019290925281018390527fa84195ddfab50d452c56b19e8b036006db8eed43d7f0197c078edcfd53db65d09060600160405180910390a25050565b5f6008545f0361085557505f919050565b6008545f90815260096020908152604091829020825160c08101845281548152600182015492810192909252600281015492820192909252600382015460608201526004820154608082015260059091015460ff16151560a082018190526108bf57505f92915050565b6008545f908152600a602090815260408083206001600160a01b038716845290915290205460ff16156108f457505f92915050565b6008545f908152600b602090815260408083206001600160a01b03871684529091528120549081900361092a57505f9392505050565b60408201516109399082611095565b949350505050565b5f546001600160a01b0316331461096a5760405162461bcd60e51b81526004016103c190610ffa565b6001600160a01b0381166109b95760405162461bcd60e51b815260206004820152601660248201527524b73b30b634b21034b731b7b6b29036b0b730b3b2b960511b60448201526064016103c1565b600380546001600160a01b0319166001600160a01b0383169081179091556040517f0f0fd68ddbdbaed4a449438dc3616233e337288adb444d5ccc52fb76da94b729905f90a250565b6001546001600160a01b03163314610a515760405162461bcd60e51b815260206004820152601260248201527113db9b1e481c985b9ac818dbdb9d1c9858dd60721b60448201526064016103c1565b6001600160a01b038216610a965760405162461bcd60e51b815260206004820152600c60248201526b24b73b30b634b2103ab9b2b960a11b60448201526064016103c1565b6004811115610ad85760405162461bcd60e51b815260206004820152600e60248201526d496e76616c696420706f696e747360901b60448201526064016103c1565b6001600160a01b0382165f90815260056020526040902054818103610afc57505050565b8181600754610b0b91906110ac565b610b159190611049565b6007556001600160a01b0383165f9081526005602052604090208290558115801590610b5957506001600160a01b0383165f908152600d602052604090205460ff16155b15610bc3576001600160a01b0383165f818152600d60205260408120805460ff19166001908117909155600c805491820181559091527fdf6966c971051c3d54ec59162606531493a51404a002842f56009d7e5cf4a8c70180546001600160a01b03191690911790555b60408051828152602081018490526001600160a01b038516917f2785cc411aaf57bd97193d0a780d1e39b858880b6880abf914ec65bb2d0696ee910160405180910390a2505050565b600c8181548110610c1b575f80fd5b5f918252602090912001546001600160a01b0316905081565b5f60085411610c7d5760405162461bcd60e51b8152602060048201526015602482015274139bc8191a5cdd1c9a589d5d1a5bdb881c9bdd5b99605a1b60448201526064016103c1565b6003546001600160a01b0316610cce5760405162461bcd60e51b8152602060048201526016602482015275125b98dbdb59481b585b9859d95c881b9bdd081cd95d60521b60448201526064016103c1565b5f610cd833610844565b90505f8111610d1f5760405162461bcd60e51b8152602060048201526013602482015272139bc818dbdb5b5d5b9a5d1e481c995dd85c99606a1b60448201526064016103c1565b600354604051637e10471f60e11b81525f916001600160a01b03169063fc208e3e90610d5490339086906005906004016110bf565b6020604051808303815f875af1158015610d70573d5f5f3e3d5ffd5b505050506040513d601f19601f82011682018060405250810190610d94919061101e565b90505f8111610dda5760405162461bcd60e51b8152602060048201526012602482015271125b98dbdb594818d85c081c995858da195960721b60448201526064016103c1565b6008545f908152600a602090815260408083203384528252808320805460ff19166001179055600690915281208054839290610e17908490611049565b90915550506008545f90815260096020526040812060038101805491928492610e41908490611049565b909155505060025460405163a3baf0f760e01b8152336004820152602481018490526001600160a01b039091169063a3baf0f7906044015f604051808303815f87803b158015610e8f575f5ffd5b505af1158015610ea1573d5f5f3e3d5ffd5b50506004546001600160a01b0316159150610f1990505760048054604051632faa9d0360e21b81523392810192909252602482018490526001600160a01b03169063beaa740c906044015f604051808303815f87803b158015610f02575f5ffd5b505af1158015610f14573d5f5f3e3d5ffd5b505050505b60085460405183815233907fe3e2aa57d5d3d9d0b7afa64d7ee63575c0f92cac3de1eb5244ce6d7c73bbcc3c9060200160405180910390a3505050565b5f60208284031215610f66575f5ffd5b5035919050565b80356001600160a01b0381168114610f83575f5ffd5b919050565b5f5f60408385031215610f99575f5ffd5b82359150610fa960208401610f6d565b90509250929050565b5f60208284031215610fc2575f5ffd5b610fcb82610f6d565b9392505050565b5f5f60408385031215610fe3575f5ffd5b610fec83610f6d565b946020939093013593505050565b6020808252600a908201526927b7363c9037bbb732b960b11b604082015260600190565b5f6020828403121561102e575f5ffd5b5051919050565b634e487b7160e01b5f52601160045260245ffd5b8082018082111561105c5761105c611035565b92915050565b5f8261107c57634e487b7160e01b5f52601260045260245ffd5b500490565b634e487b7160e01b5f52603260045260245ffd5b808202811582820484141761105c5761105c611035565b8181038181111561105c5761105c611035565b6001600160a01b03841681526020810183905260608101600683106110f257634e487b7160e01b5f52602160045260245ffd5b82604083015294935050505056fea2646970667358221220c91dcbb65e8fba1709dc9a3df141902cd26c6f83b728704624884100582a9fd564736f6c634300081c0033",
  "linkReferences": {},
  "deployedLinkReferences": {},
  "immutableReferences": {},
  "inputSourceName": "project/contracts/CommunityBuilder.sol",
  "buildInfoId": "solc-0_8_28-654afc4422043c8a4b85cd30b41762ba33885a52"
}