{
  "_format": "hh3-artifact-1",
  "contractName": "ContributionReward",
  "sourceName": "contracts/ContributionReward.sol",
  "abi": [
    {
      "inputs": [],
      "stateMutability": "nonpayable",
      "type": "constructor"
    },
    {
      "anonymous": false,
      "inputs": [
        {
          "indexed": true,
          "internalType": "address",
          "name": "beneficiary",
          "type": "address"
        },
        {
          "indexed": true,
          "internalType": "address",
          "name": "fromUser",
          "type": "address"
        },
        {
          "indexed": false,
          "internalType": "uint256",
          "name": "level",
          "type": "uint256"
        },
        {
          "indexed": false,
          "internalType": "uint256",
          "name": "amount",
          "type": "uint256"
        }
      ],
      "name": "ContributionRewardPaid",
      "type": "event"
    },
    {
      "anonymous": false,
      "inputs": [
        {
          "indexed": true,
          "internalType": "address",
          "name": "coreContract",
          "type": "address"
        }
      ],
      "name": "CoreContractUpdated",
      "type": "event"
    },
    {
      "anonymous": false,
      "inputs": [
        {
          "indexed": true,
          "internalType": "address",
          "name": "incomeManager",
          "type": "address"
        }
      ],
      "name": "IncomeManagerUpdated",
      "type": "event"
    },
    {
      "anonymous": false,
      "inputs": [
        {
          "indexed": true,
          "internalType": "address",
          "name": "rankReward",
          "type": "address"
        }
      ],
      "name": "RankRewardUpdated",
      "type": "event"
    },
    {
      "anonymous": false,
      "inputs": [
        {
          "indexed": true,
          "internalType": "address",
          "name": "user",
          "type": "address"
        },
        {
          "indexed": true,
          "internalType": "address",
          "name": "sponsor",
          "type": "address"
        }
      ],
      "name": "SponsorSet",
      "type": "event"
    },
    {
      "anonymous": false,
      "inputs": [
        {
          "indexed": true,
          "internalType": "address",
          "name": "treasury",
          "type": "address"
        }
      ],
      "name": "TreasuryUpdated",
      "type": "event"
    },
    {
      "inputs": [],
      "name": "LEVEL_1_BPS",
      "outputs": [
        {
          "internalType": "uint256",
          "name": "",
          "type": "uint256"
        }
      ],
      "stateMutability": "view",
      "type": "function"
    },
    {
      "inputs": [],
      "name": "LEVEL_2_BPS",
      "outputs": [
        {
          "internalType": "uint256",
          "name": "",
          "type": "uint256"
        }
      ],
      "stateMutability": "view",
      "type": "function"
    },
    {
      "inputs": [],
      "name": "LEVEL_3_BPS",
      "outputs": [
        {
          "internalType": "uint256",
          "name": "",
          "type": "uint256"
        }
      ],
      "stateMutability": "view",
      "type": "function"
    },
    {
      "inputs": [
        {
          "internalType": "address",
          "name": "",
          "type": "address"
        }
      ],
      "name": "contributionIncome",
      "outputs": [
        {
          "internalType": "uint256",
          "name": "",
          "type": "uint256"
        }
      ],
      "stateMutability": "view",
      "type": "function"
    },
    {
      "inputs": [],
      "name": "coreContract",
      "outputs": [
        {
          "internalType": "address",
          "name": "",
          "type": "address"
        }
      ],
      "stateMutability": "view",
      "type": "function"
    },
    {
      "inputs": [],
      "name": "incomeManager",
      "outputs": [
        {
          "internalType": "contract IIncomeManager",
          "name": "",
          "type": "address"
        }
      ],
      "stateMutability": "view",
      "type": "function"
    },
    {
      "inputs": [
        {
          "internalType": "address",
          "name": "",
          "type": "address"
        },
        {
          "internalType": "uint256",
          "name": "",
          "type": "uint256"
        }
      ],
      "name": "levelIncome",
      "outputs": [
        {
          "internalType": "uint256",
          "name": "",
          "type": "uint256"
        }
      ],
      "stateMutability": "view",
      "type": "function"
    },
    {
      "inputs": [],
      "name": "owner",
      "outputs": [
        {
          "internalType": "address",
          "name": "",
          "type": "address"
        }
      ],
      "stateMutability": "view",
      "type": "function"
    },
    {
      "inputs": [
        {
          "internalType": "address",
          "name": "user",
          "type": "address"
        },
        {
          "internalType": "uint256",
          "name": "amount",
          "type": "uint256"
        }
      ],
      "name": "processContribution",
      "outputs": [],
      "stateMutability": "nonpayable",
      "type": "function"
    },
    {
      "inputs": [],
      "name": "rankReward",
      "outputs": [
        {
          "internalType": "contract IRankReward",
          "name": "",
          "type": "address"
        }
      ],
      "stateMutability": "view",
      "type": "function"
    },
    {
      "inputs": [
        {
          "internalType": "address",
          "name": "_coreContract",
          "type": "address"
        }
      ],
      "name": "setCoreContract",
      "outputs": [],
      "stateMutability": "nonpayable",
      "type": "function"
    },
    {
      "inputs": [
        {
          "internalType": "address",
          "name": "_incomeManager",
          "type": "address"
        }
      ],
      "name": "setIncomeManager",
      "outputs": [],
      "stateMutability": "nonpayable",
      "type": "function"
    },
    {
      "inputs": [
        {
          "internalType": "address",
          "name": "_rankReward",
          "type": "address"
        }
      ],
      "name": "setRankReward",
      "outputs": [],
      "stateMutability": "nonpayable",
      "type": "function"
    },
    {
      "inputs": [
        {
          "internalType": "address",
          "name": "user",
          "type": "address"
        },
        {
          "internalType": "address",
          "name": "sponsor",
          "type": "address"
        }
      ],
      "name": "setSponsor",
      "outputs": [],
      "stateMutability": "nonpayable",
      "type": "function"
    },
    {
      "inputs": [
        {
          "internalType": "address",
          "name": "_treasury",
          "type": "address"
        }
      ],
      "name": "setTreasury",
      "outputs": [],
      "stateMutability": "nonpayable",
      "type": "function"
    },
    {
      "inputs": [
        {
          "internalType": "address",
          "name": "",
          "type": "address"
        }
      ],
      "name": "sponsors",
      "outputs": [
        {
          "internalType": "address",
          "name": "",
          "type": "address"
        }
      ],
      "stateMutability": "view",
      "type": "function"
    },
    {
      "inputs": [],
      "name": "treasury",
      "outputs": [
        {
          "internalType": "contract ITreasuryManager",
          "name": "",
          "type": "address"
        }
      ],
      "stateMutability": "view",
      "type": "function"
    }
  ],
  "bytecode": "0x6080604052348015600e575f5ffd5b505f80546001600160a01b03191633179055610db38061002d5f395ff3fe608060405234801561000f575f5ffd5b5060043610610106575f3560e01c8063d35590c21161009e578063f0f442601161006e578063f0f4426014610248578063f36077701461025b578063f4ace1a514610263578063f4b61aa314610276578063ffb92e3c1461027f575f5ffd5b8063d35590c2146101e7578063e25f7da51461020f578063e80db5db14610222578063f01fba9314610235575f5ffd5b80636f0c3404116100d95780636f0c34041461019a5780637a8bda97146101af5780638da5cb5b146101c2578063c6266693146101d4575f5ffd5b80630b35d7d11461010a57806321b4213e1461014757806342cf34541461016657806361d027b31461016f575b5f5ffd5b610134610118366004610be6565b600760209081525f928352604080842090915290825290205481565b6040519081526020015b60405180910390f35b610134610155366004610c0e565b60066020525f908152604090205481565b6101346101f481565b600354610182906001600160a01b031681565b6040516001600160a01b03909116815260200161013e565b6101ad6101a8366004610c0e565b610292565b005b600454610182906001600160a01b031681565b5f54610182906001600160a01b031681565b6101ad6101e2366004610c0e565b61035c565b6101826101f5366004610c0e565b60056020525f90815260409020546001600160a01b031681565b6101ad61021d366004610c0e565b61041c565b600154610182906001600160a01b031681565b6101ad610243366004610c2e565b6104da565b6101ad610256366004610c0e565b610621565b61013460c881565b6101ad610271366004610be6565b6106dc565b61013461012c81565b600254610182906001600160a01b031681565b5f546001600160a01b031633146102c45760405162461bcd60e51b81526004016102bb90610c5f565b60405180910390fd5b6001600160a01b0381166103135760405162461bcd60e51b815260206004820152601660248201527524b73b30b634b21034b731b7b6b29036b0b730b3b2b960511b60448201526064016102bb565b600280546001600160a01b0319166001600160a01b0383169081179091556040517f0f0fd68ddbdbaed4a449438dc3616233e337288adb444d5ccc52fb76da94b729905f90a250565b5f546001600160a01b031633146103855760405162461bcd60e51b81526004016102bb90610c5f565b6001600160a01b0381166103d35760405162461bcd60e51b8152602060048201526015602482015274125b9d985b1a590818dbdc994818dbdb9d1c9858dd605a1b60448201526064016102bb565b600180546001600160a01b0319166001600160a01b0383169081179091556040517fb123bcd3d6124a115bda145c514c97efa40aa64417fbf5496835ca57b7991563905f90a250565b5f546001600160a01b031633146104455760405162461bcd60e51b81526004016102bb90610c5f565b6001600160a01b0381166104915760405162461bcd60e51b8152602060048201526013602482015272125b9d985b1a59081c985b9ac81c995dd85c99606a1b60448201526064016102bb565b600480546001600160a01b0319166001600160a01b0383169081179091556040517f4cacbbb7ab6b53111341450cfd7f206628ce36c8698bfebf205937be520f82c5905f90a250565b6001546001600160a01b031633146105295760405162461bcd60e51b815260206004820152601260248201527113db9b1e4818dbdc994818dbdb9d1c9858dd60721b60448201526064016102bb565b6001600160a01b03821661056e5760405162461bcd60e51b815260206004820152600c60248201526b24b73b30b634b2103ab9b2b960a11b60448201526064016102bb565b6001600160a01b038281165f9081526005602052604090205416156105cb5760405162461bcd60e51b815260206004820152601360248201527214dc1bdb9cdbdc88185b1c9958591e481cd95d606a1b60448201526064016102bb565b6001600160a01b038281165f8181526005602052604080822080546001600160a01b0319169486169485179055517f9199ab96d9b0a32eef646dfb440f2e682272b59a20bd07bb8fa5222f98e10b339190a35050565b5f546001600160a01b0316331461064a5760405162461bcd60e51b81526004016102bb90610c5f565b6001600160a01b0381166106935760405162461bcd60e51b815260206004820152601060248201526f496e76616c696420747265617375727960801b60448201526064016102bb565b600380546001600160a01b0319166001600160a01b0383169081179091556040517f7dae230f18360d76a040c81f050aa14eb9d6dc7901b20fc5d855e2a20fe814d1905f90a250565b6001546001600160a01b0316331461072b5760405162461bcd60e51b815260206004820152601260248201527113db9b1e4818dbdc994818dbdb9d1c9858dd60721b60448201526064016102bb565b6001600160a01b0382166107705760405162461bcd60e51b815260206004820152600c60248201526b24b73b30b634b2103ab9b2b960a11b60448201526064016102bb565b5f81116107b05760405162461bcd60e51b815260206004820152600e60248201526d125b9d985b1a5908185b5bdd5b9d60921b60448201526064016102bb565b6002546001600160a01b03166108015760405162461bcd60e51b8152602060048201526016602482015275125b98dbdb59481b585b9859d95c881b9bdd081cd95d60521b60448201526064016102bb565b6003546001600160a01b031661084c5760405162461bcd60e51b815260206004820152601060248201526f151c99585cdd5c9e481b9bdd081cd95d60821b60448201526064016102bb565b6001600160a01b038083165f908152600560209081526040918290205482516060810184526101f4815261012c9281019290925260c89282019290925291169060015b60038111610bc4576001600160a01b03831615610bc4575f612710836108b6600185610c97565b600381106108c6576108c6610cb0565b60200201516108d59087610cc4565b6108df9190610cdb565b9050805f0361090b57506001600160a01b039283165f9081526005602052604090205490921691610bb2565b600354604080516387bffd5960e01b815290515f926001600160a01b0316916387bffd599160048083019260209291908290030181865afa158015610952573d5f5f3e3d5ffd5b505050506040513d601f19601f820116820180604052508101906109769190610cfa565b9050805f03610986575050610bc4565b80821115610992578091505b600254604051637e10471f60e11b81525f916001600160a01b03169063fc208e3e906109c79089908790600190600401610d11565b6020604051808303815f875af11580156109e3573d5f5f3e3d5ffd5b505050506040513d601f19601f82011682018060405250810190610a079190610cfa565b90508015610b9157600354604051631ddfcdcb60e11b81526001600160a01b0388811660048301526024820184905290911690633bbf9b96906044015f604051808303815f87803b158015610a5a575f5ffd5b505af1158015610a6c573d5f5f3e3d5ffd5b505050506001600160a01b0386165f9081526006602052604081208054839290610a97908490610d52565b90915550506001600160a01b0386165f90815260076020908152604080832087845290915281208054839290610ace908490610d52565b909155505060408051858152602081018390526001600160a01b03808b1692908916917f627c4db3b78ca7850be59dab7c61f1a05b2eb2e0400470be17678786d6ba39c8910160405180910390a36004546001600160a01b031615610b915760048054604051632faa9d0360e21b81526001600160a01b03898116938201939093526024810184905291169063beaa740c906044015f604051808303815f87803b158015610b7a575f5ffd5b505af1158015610b8c573d5f5f3e3d5ffd5b505050505b5050506001600160a01b039283165f90815260056020526040902054909216915b80610bbc81610d65565b91505061088f565b5050505050565b80356001600160a01b0381168114610be1575f5ffd5b919050565b5f5f60408385031215610bf7575f5ffd5b610c0083610bcb565b946020939093013593505050565b5f60208284031215610c1e575f5ffd5b610c2782610bcb565b9392505050565b5f5f60408385031215610c3f575f5ffd5b610c4883610bcb565b9150610c5660208401610bcb565b90509250929050565b6020808252600a908201526927b7363c9037bbb732b960b11b604082015260600190565b634e487b7160e01b5f52601160045260245ffd5b81810381811115610caa57610caa610c83565b92915050565b634e487b7160e01b5f52603260045260245ffd5b8082028115828204841417610caa57610caa610c83565b5f82610cf557634e487b7160e01b5f52601260045260245ffd5b500490565b5f60208284031215610d0a575f5ffd5b5051919050565b6001600160a01b0384168152602081018390526060810160068310610d4457634e487b7160e01b5f52602160045260245ffd5b826040830152949350505050565b80820180821115610caa57610caa610c83565b5f60018201610d7657610d76610c83565b506001019056fea2646970667358221220e6555c0a676a132cf8c54613f38a2f4e74d82d50d1b88f83246e0d03b6d1ae9b64736f6c634300081c0033",
  "linkReferences": {},
  "deployedLinkReferences": {},
  "immutableReferences": {},
  "inputSourceName": "project/contracts/ContributionReward.sol",
  "buildInfoId": "solc-0_8_28-654afc4422043c8a4b85cd30b41762ba33885a52"
}