{
  "_format": "hh3-artifact-1",
  "contractName": "ContributionBooster",
  "sourceName": "contracts/ContributionBooster.sol",
  "abi": [
    {
      "inputs": [],
      "stateMutability": "nonpayable",
      "type": "constructor"
    },
    {
      "anonymous": false,
      "inputs": [
        {
          "indexed": true,
          "internalType": "address",
          "name": "user",
          "type": "address"
        },
        {
          "indexed": false,
          "internalType": "uint256",
          "name": "expiresAt",
          "type": "uint256"
        }
      ],
      "name": "BoosterQualified",
      "type": "event"
    },
    {
      "anonymous": false,
      "inputs": [
        {
          "indexed": true,
          "internalType": "address",
          "name": "sponsor",
          "type": "address"
        },
        {
          "indexed": true,
          "internalType": "address",
          "name": "fromUser",
          "type": "address"
        },
        {
          "indexed": false,
          "internalType": "uint256",
          "name": "amount",
          "type": "uint256"
        }
      ],
      "name": "BoosterRewardPaid",
      "type": "event"
    },
    {
      "anonymous": false,
      "inputs": [
        {
          "indexed": true,
          "internalType": "address",
          "name": "coreContract",
          "type": "address"
        }
      ],
      "name": "CoreContractUpdated",
      "type": "event"
    },
    {
      "anonymous": false,
      "inputs": [
        {
          "indexed": true,
          "internalType": "address",
          "name": "incomeManager",
          "type": "address"
        }
      ],
      "name": "IncomeManagerUpdated",
      "type": "event"
    },
    {
      "anonymous": false,
      "inputs": [
        {
          "indexed": true,
          "internalType": "address",
          "name": "rankReward",
          "type": "address"
        }
      ],
      "name": "RankRewardUpdated",
      "type": "event"
    },
    {
      "anonymous": false,
      "inputs": [
        {
          "indexed": true,
          "internalType": "address",
          "name": "treasury",
          "type": "address"
        }
      ],
      "name": "TreasuryUpdated",
      "type": "event"
    },
    {
      "anonymous": false,
      "inputs": [
        {
          "indexed": true,
          "internalType": "address",
          "name": "user",
          "type": "address"
        },
        {
          "indexed": true,
          "internalType": "address",
          "name": "sponsor",
          "type": "address"
        }
      ],
      "name": "UserRegistered",
      "type": "event"
    },
    {
      "inputs": [],
      "name": "BOOSTER_PERIOD",
      "outputs": [
        {
          "internalType": "uint256",
          "name": "",
          "type": "uint256"
        }
      ],
      "stateMutability": "view",
      "type": "function"
    },
    {
      "inputs": [],
      "name": "BOOSTER_REWARD_BPS",
      "outputs": [
        {
          "internalType": "uint256",
          "name": "",
          "type": "uint256"
        }
      ],
      "stateMutability": "view",
      "type": "function"
    },
    {
      "inputs": [],
      "name": "QUALIFICATION_PERIOD",
      "outputs": [
        {
          "internalType": "uint256",
          "name": "",
          "type": "uint256"
        }
      ],
      "stateMutability": "view",
      "type": "function"
    },
    {
      "inputs": [
        {
          "internalType": "address",
          "name": "",
          "type": "address"
        }
      ],
      "name": "boosterAccounts",
      "outputs": [
        {
          "internalType": "uint256",
          "name": "joinedAt",
          "type": "uint256"
        },
        {
          "internalType": "uint256",
          "name": "boosterActivatedAt",
          "type": "uint256"
        },
        {
          "internalType": "uint256",
          "name": "boosterExpiresAt",
          "type": "uint256"
        },
        {
          "internalType": "uint256",
          "name": "boosterIncome",
          "type": "uint256"
        },
        {
          "internalType": "bool",
          "name": "qualified",
          "type": "bool"
        }
      ],
      "stateMutability": "view",
      "type": "function"
    },
    {
      "inputs": [],
      "name": "coreContract",
      "outputs": [
        {
          "internalType": "address",
          "name": "",
          "type": "address"
        }
      ],
      "stateMutability": "view",
      "type": "function"
    },
    {
      "inputs": [],
      "name": "incomeManager",
      "outputs": [
        {
          "internalType": "contract IIncomeManager",
          "name": "",
          "type": "address"
        }
      ],
      "stateMutability": "view",
      "type": "function"
    },
    {
      "inputs": [
        {
          "internalType": "address",
          "name": "user",
          "type": "address"
        }
      ],
      "name": "isBoosterActive",
      "outputs": [
        {
          "internalType": "bool",
          "name": "",
          "type": "bool"
        }
      ],
      "stateMutability": "view",
      "type": "function"
    },
    {
      "inputs": [],
      "name": "owner",
      "outputs": [
        {
          "internalType": "address",
          "name": "",
          "type": "address"
        }
      ],
      "stateMutability": "view",
      "type": "function"
    },
    {
      "inputs": [
        {
          "internalType": "address",
          "name": "user",
          "type": "address"
        },
        {
          "internalType": "uint256",
          "name": "contributionAmount",
          "type": "uint256"
        }
      ],
      "name": "processDirectContribution",
      "outputs": [],
      "stateMutability": "nonpayable",
      "type": "function"
    },
    {
      "inputs": [
        {
          "internalType": "address",
          "name": "user",
          "type": "address"
        },
        {
          "internalType": "uint256",
          "name": "packageAmount",
          "type": "uint256"
        }
      ],
      "name": "processPackage",
      "outputs": [],
      "stateMutability": "nonpayable",
      "type": "function"
    },
    {
      "inputs": [],
      "name": "rankReward",
      "outputs": [
        {
          "internalType": "contract IRankReward",
          "name": "",
          "type": "address"
        }
      ],
      "stateMutability": "view",
      "type": "function"
    },
    {
      "inputs": [
        {
          "internalType": "address",
          "name": "user",
          "type": "address"
        },
        {
          "internalType": "address",
          "name": "sponsor",
          "type": "address"
        }
      ],
      "name": "registerUser",
      "outputs": [],
      "stateMutability": "nonpayable",
      "type": "function"
    },
    {
      "inputs": [
        {
          "internalType": "address",
          "name": "_coreContract",
          "type": "address"
        }
      ],
      "name": "setCoreContract",
      "outputs": [],
      "stateMutability": "nonpayable",
      "type": "function"
    },
    {
      "inputs": [
        {
          "internalType": "address",
          "name": "_incomeManager",
          "type": "address"
        }
      ],
      "name": "setIncomeManager",
      "outputs": [],
      "stateMutability": "nonpayable",
      "type": "function"
    },
    {
      "inputs": [
        {
          "internalType": "address",
          "name": "_rankReward",
          "type": "address"
        }
      ],
      "name": "setRankReward",
      "outputs": [],
      "stateMutability": "nonpayable",
      "type": "function"
    },
    {
      "inputs": [
        {
          "internalType": "address",
          "name": "_treasury",
          "type": "address"
        }
      ],
      "name": "setTreasury",
      "outputs": [],
      "stateMutability": "nonpayable",
      "type": "function"
    },
    {
      "inputs": [
        {
          "internalType": "address",
          "name": "",
          "type": "address"
        }
      ],
      "name": "sponsors",
      "outputs": [
        {
          "internalType": "address",
          "name": "",
          "type": "address"
        }
      ],
      "stateMutability": "view",
      "type": "function"
    },
    {
      "inputs": [],
      "name": "treasury",
      "outputs": [
        {
          "internalType": "contract ITreasuryManager",
          "name": "",
          "type": "address"
        }
      ],
      "stateMutability": "view",
      "type": "function"
    }
  ],
  "bytecode": "0x6080604052348015600e575f5ffd5b505f80546001600160a01b03191633179055610ece8061002d5f395ff3fe608060405234801561000f575f5ffd5b5060043610610111575f3560e01c8063971dd45c1161009e578063e25f7da51161006e578063e25f7da5146102a0578063e412f1971461012a578063e80db5db146102b3578063f0f44260146102c6578063ffb92e3c146102d9575f5ffd5b8063971dd45c146101e9578063c626669314610252578063d35590c214610265578063da95663c1461028d575f5ffd5b80635bbdf0d8116100e45780635bbdf0d81461017357806361d027b3146101865780636f0c3404146101b15780637a8bda97146101c45780638da5cb5b146101d7575f5ffd5b80630354adb214610115578063323e70611461012a5780633c1d279714610147578063419f1b3c1461016a575b5f5ffd5b610128610123366004610d1b565b6102ec565b005b61013462278d0081565b6040519081526020015b60405180910390f35b61015a610155366004610d4c565b61042c565b604051901515815260200161013e565b6101346103e881565b610128610181366004610d65565b61049b565b600354610199906001600160a01b031681565b6040516001600160a01b03909116815260200161013e565b6101286101bf366004610d4c565b6105d6565b600454610199906001600160a01b031681565b5f54610199906001600160a01b031681565b6102286101f7366004610d4c565b60056020525f9081526040902080546001820154600283015460038401546004909401549293919290919060ff1685565b6040805195865260208601949094529284019190915260608301521515608082015260a00161013e565b610128610260366004610d4c565b610697565b610199610273366004610d4c565b60066020525f90815260409020546001600160a01b031681565b61012861029b366004610d65565b610757565b6101286102ae366004610d4c565b610b87565b600154610199906001600160a01b031681565b6101286102d4366004610d4c565b610c45565b600254610199906001600160a01b031681565b6001546001600160a01b0316331461031f5760405162461bcd60e51b815260040161031690610d8d565b60405180910390fd5b6001600160a01b0382166103645760405162461bcd60e51b815260206004820152600c60248201526b24b73b30b634b2103ab9b2b960a11b6044820152606401610316565b6001600160a01b0382165f90815260056020526040902054156103c95760405162461bcd60e51b815260206004820152601760248201527f5573657220616c726561647920726567697374657265640000000000000000006044820152606401610316565b6001600160a01b038281165f818152600560209081526040808320429055600690915280822080546001600160a01b0319169486169485179055517f2138b9314634f9fdd5e49bee3eaf17ca557b6637524d0db759711c3bfcd3d8509190a35050565b6001600160a01b0381165f908152600560209081526040808320815160a08101835281548152600182015493810193909352600281015491830191909152600381015460608301526004015460ff161580156080830181905290610494575080604001514211155b9392505050565b6001546001600160a01b031633146104c55760405162461bcd60e51b815260040161031690610d8d565b6001600160a01b0382165f90815260056020526040902080546105205760405162461bcd60e51b8152602060048201526013602482015272155cd95c881b9bdd081c9959da5cdd195c9959606a1b6044820152606401610316565b600481015460ff161561053257505050565b80546105429062278d0090610dcd565b42111561054e57505050565b816103e8148061055f575081610bb8145b156105d15760048101805460ff191660019081179091554290820181905561058b9062278d0090610dcd565b600282018190556040519081526001600160a01b038416907f56914230795798d08fd7cc2db5087b4701496a0668f6a5627f6b334f290923ee9060200160405180910390a25b505050565b5f546001600160a01b031633146105ff5760405162461bcd60e51b815260040161031690610de6565b6001600160a01b03811661064e5760405162461bcd60e51b815260206004820152601660248201527524b73b30b634b21034b731b7b6b29036b0b730b3b2b960511b6044820152606401610316565b600280546001600160a01b0319166001600160a01b0383169081179091556040517f0f0fd68ddbdbaed4a449438dc3616233e337288adb444d5ccc52fb76da94b729905f90a250565b5f546001600160a01b031633146106c05760405162461bcd60e51b815260040161031690610de6565b6001600160a01b03811661070e5760405162461bcd60e51b8152602060048201526015602482015274125b9d985b1a590818dbdc994818dbdb9d1c9858dd605a1b6044820152606401610316565b600180546001600160a01b0319166001600160a01b0383169081179091556040517fb123bcd3d6124a115bda145c514c97efa40aa64417fbf5496835ca57b7991563905f90a250565b6001546001600160a01b031633146107815760405162461bcd60e51b815260040161031690610d8d565b6001600160a01b0382166107c65760405162461bcd60e51b815260206004820152600c60248201526b24b73b30b634b2103ab9b2b960a11b6044820152606401610316565b5f811161080c5760405162461bcd60e51b815260206004820152601460248201527324b73b30b634b21031b7b73a3934b13aba34b7b760611b6044820152606401610316565b6002546001600160a01b031661085d5760405162461bcd60e51b8152602060048201526016602482015275125b98dbdb59481b585b9859d95c881b9bdd081cd95d60521b6044820152606401610316565b6003546001600160a01b03166108a85760405162461bcd60e51b815260206004820152601060248201526f151c99585cdd5c9e481b9bdd081cd95d60821b6044820152606401610316565b6001600160a01b038083165f9081526006602052604090205416806108cc57505050565b6001600160a01b0381165f908152600560205260409020600481015460ff166108f55750505050565b80600201544211156109075750505050565b5f6127106109176103e886610e0a565b6109219190610e21565b9050805f03610931575050505050565b600354604080516387bffd5960e01b815290515f926001600160a01b0316916387bffd599160048083019260209291908290030181865afa158015610978573d5f5f3e3d5ffd5b505050506040513d601f19601f8201168201806040525081019061099c9190610e40565b9050805f036109ad57505050505050565b808211156109b9578091505b60028054604051637e10471f60e11b81525f926001600160a01b039092169163fc208e3e916109ef918991889190600401610e57565b6020604051808303815f875af1158015610a0b573d5f5f3e3d5ffd5b505050506040513d601f19601f82011682018060405250810190610a2f9190610e40565b9050805f03610a415750505050505050565b600354604051631ddfcdcb60e11b81526001600160a01b0387811660048301526024820184905290911690633bbf9b96906044015f604051808303815f87803b158015610a8c575f5ffd5b505af1158015610a9e573d5f5f3e3d5ffd5b5050505080846003015f828254610ab59190610dcd565b92505081905550866001600160a01b0316856001600160a01b03167f4e02c9842ae7a5f6f9264d38906bae2b8fa3156d23f72cff5b665e98fea808c383604051610b0191815260200190565b60405180910390a36004546001600160a01b031615610b7e5760048054604051632faa9d0360e21b81526001600160a01b03888116938201939093526024810184905291169063beaa740c906044015f604051808303815f87803b158015610b67575f5ffd5b505af1158015610b79573d5f5f3e3d5ffd5b505050505b50505050505050565b5f546001600160a01b03163314610bb05760405162461bcd60e51b815260040161031690610de6565b6001600160a01b038116610bfc5760405162461bcd60e51b8152602060048201526013602482015272125b9d985b1a59081c985b9ac81c995dd85c99606a1b6044820152606401610316565b600480546001600160a01b0319166001600160a01b0383169081179091556040517f4cacbbb7ab6b53111341450cfd7f206628ce36c8698bfebf205937be520f82c5905f90a250565b5f546001600160a01b03163314610c6e5760405162461bcd60e51b815260040161031690610de6565b6001600160a01b038116610cb75760405162461bcd60e51b815260206004820152601060248201526f496e76616c696420747265617375727960801b6044820152606401610316565b600380546001600160a01b0319166001600160a01b0383169081179091556040517f7dae230f18360d76a040c81f050aa14eb9d6dc7901b20fc5d855e2a20fe814d1905f90a250565b80356001600160a01b0381168114610d16575f5ffd5b919050565b5f5f60408385031215610d2c575f5ffd5b610d3583610d00565b9150610d4360208401610d00565b90509250929050565b5f60208284031215610d5c575f5ffd5b61049482610d00565b5f5f60408385031215610d76575f5ffd5b610d7f83610d00565b946020939093013593505050565b60208082526012908201527113db9b1e4818dbdc994818dbdb9d1c9858dd60721b604082015260600190565b634e487b7160e01b5f52601160045260245ffd5b80820180821115610de057610de0610db9565b92915050565b6020808252600a908201526927b7363c9037bbb732b960b11b604082015260600190565b8082028115828204841417610de057610de0610db9565b5f82610e3b57634e487b7160e01b5f52601260045260245ffd5b500490565b5f60208284031215610e50575f5ffd5b5051919050565b6001600160a01b0384168152602081018390526060810160068310610e8a57634e487b7160e01b5f52602160045260245ffd5b82604083015294935050505056fea2646970667358221220006ca9c0c15ad9cebc141a107fc9fb49801640bdbe6295e3404ba618278ce25f64736f6c634300081c0033",
  "linkReferences": {},
  "deployedLinkReferences": {},
  "immutableReferences": {},
  "inputSourceName": "project/contracts/ContributionBooster.sol",
  "buildInfoId": "solc-0_8_28-654afc4422043c8a4b85cd30b41762ba33885a52"
}