{
  "_format": "hh3-artifact-1",
  "contractName": "IncomeManager",
  "sourceName": "contracts/IncomeManager.sol",
  "abi": [
    {
      "inputs": [],
      "stateMutability": "nonpayable",
      "type": "constructor"
    },
    {
      "anonymous": false,
      "inputs": [
        {
          "indexed": false,
          "internalType": "bool",
          "name": "enabled",
          "type": "bool"
        }
      ],
      "name": "ApplyRankCapMultipliersUpdated",
      "type": "event"
    },
    {
      "anonymous": false,
      "inputs": [
        {
          "indexed": true,
          "internalType": "address",
          "name": "contractAddress",
          "type": "address"
        },
        {
          "indexed": false,
          "internalType": "bool",
          "name": "status",
          "type": "bool"
        }
      ],
      "name": "AuthorizedContractUpdated",
      "type": "event"
    },
    {
      "anonymous": false,
      "inputs": [
        {
          "indexed": true,
          "internalType": "address",
          "name": "coreContract",
          "type": "address"
        }
      ],
      "name": "CoreContractUpdated",
      "type": "event"
    },
    {
      "anonymous": false,
      "inputs": [
        {
          "indexed": true,
          "internalType": "address",
          "name": "user",
          "type": "address"
        },
        {
          "indexed": true,
          "internalType": "enum IIncomeManager.IncomeType",
          "name": "incomeType",
          "type": "uint8"
        },
        {
          "indexed": false,
          "internalType": "uint256",
          "name": "requested",
          "type": "uint256"
        },
        {
          "indexed": false,
          "internalType": "uint256",
          "name": "accepted",
          "type": "uint256"
        },
        {
          "indexed": false,
          "internalType": "uint256",
          "name": "totalEarned",
          "type": "uint256"
        }
      ],
      "name": "IncomeRecorded",
      "type": "event"
    },
    {
      "anonymous": false,
      "inputs": [
        {
          "indexed": true,
          "internalType": "address",
          "name": "user",
          "type": "address"
        }
      ],
      "name": "PackageIncomeCompleted",
      "type": "event"
    },
    {
      "anonymous": false,
      "inputs": [
        {
          "indexed": true,
          "internalType": "address",
          "name": "user",
          "type": "address"
        },
        {
          "indexed": false,
          "internalType": "uint256",
          "name": "principal",
          "type": "uint256"
        }
      ],
      "name": "PackageStarted",
      "type": "event"
    },
    {
      "anonymous": false,
      "inputs": [
        {
          "indexed": true,
          "internalType": "address",
          "name": "rankReward",
          "type": "address"
        }
      ],
      "name": "RankRewardUpdated",
      "type": "event"
    },
    {
      "anonymous": false,
      "inputs": [
        {
          "indexed": true,
          "internalType": "address",
          "name": "user",
          "type": "address"
        },
        {
          "indexed": false,
          "internalType": "uint256",
          "name": "roiEarned",
          "type": "uint256"
        }
      ],
      "name": "RoiCapReached",
      "type": "event"
    },
    {
      "anonymous": false,
      "inputs": [
        {
          "indexed": true,
          "internalType": "address",
          "name": "user",
          "type": "address"
        },
        {
          "indexed": false,
          "internalType": "uint256",
          "name": "workingEarned",
          "type": "uint256"
        }
      ],
      "name": "WorkingCapReached",
      "type": "event"
    },
    {
      "inputs": [],
      "name": "ROI_CAP_MULTIPLIER",
      "outputs": [
        {
          "internalType": "uint256",
          "name": "",
          "type": "uint256"
        }
      ],
      "stateMutability": "view",
      "type": "function"
    },
    {
      "inputs": [],
      "name": "WORKING_CAP_MULTIPLIER",
      "outputs": [
        {
          "internalType": "uint256",
          "name": "",
          "type": "uint256"
        }
      ],
      "stateMutability": "view",
      "type": "function"
    },
    {
      "inputs": [],
      "name": "applyRankCapMultipliers",
      "outputs": [
        {
          "internalType": "bool",
          "name": "",
          "type": "bool"
        }
      ],
      "stateMutability": "view",
      "type": "function"
    },
    {
      "inputs": [
        {
          "internalType": "address",
          "name": "",
          "type": "address"
        }
      ],
      "name": "authorizedContracts",
      "outputs": [
        {
          "internalType": "bool",
          "name": "",
          "type": "bool"
        }
      ],
      "stateMutability": "view",
      "type": "function"
    },
    {
      "inputs": [
        {
          "internalType": "address",
          "name": "user",
          "type": "address"
        }
      ],
      "name": "boosterEarned",
      "outputs": [
        {
          "internalType": "uint256",
          "name": "",
          "type": "uint256"
        }
      ],
      "stateMutability": "view",
      "type": "function"
    },
    {
      "inputs": [
        {
          "internalType": "address",
          "name": "user",
          "type": "address"
        }
      ],
      "name": "communityEarned",
      "outputs": [
        {
          "internalType": "uint256",
          "name": "",
          "type": "uint256"
        }
      ],
      "stateMutability": "view",
      "type": "function"
    },
    {
      "inputs": [
        {
          "internalType": "address",
          "name": "user",
          "type": "address"
        }
      ],
      "name": "contributionEarned",
      "outputs": [
        {
          "internalType": "uint256",
          "name": "",
          "type": "uint256"
        }
      ],
      "stateMutability": "view",
      "type": "function"
    },
    {
      "inputs": [],
      "name": "coreContract",
      "outputs": [
        {
          "internalType": "contract IBTCPlanCore",
          "name": "",
          "type": "address"
        }
      ],
      "stateMutability": "view",
      "type": "function"
    },
    {
      "inputs": [
        {
          "internalType": "address",
          "name": "user",
          "type": "address"
        }
      ],
      "name": "getRemainingRoiCap",
      "outputs": [
        {
          "internalType": "uint256",
          "name": "",
          "type": "uint256"
        }
      ],
      "stateMutability": "view",
      "type": "function"
    },
    {
      "inputs": [
        {
          "internalType": "address",
          "name": "user",
          "type": "address"
        }
      ],
      "name": "getRemainingWorkingCap",
      "outputs": [
        {
          "internalType": "uint256",
          "name": "",
          "type": "uint256"
        }
      ],
      "stateMutability": "view",
      "type": "function"
    },
    {
      "inputs": [
        {
          "internalType": "address",
          "name": "user",
          "type": "address"
        }
      ],
      "name": "getRoiCap",
      "outputs": [
        {
          "internalType": "uint256",
          "name": "",
          "type": "uint256"
        }
      ],
      "stateMutability": "view",
      "type": "function"
    },
    {
      "inputs": [
        {
          "internalType": "address",
          "name": "user",
          "type": "address"
        }
      ],
      "name": "getWorkingCap",
      "outputs": [
        {
          "internalType": "uint256",
          "name": "",
          "type": "uint256"
        }
      ],
      "stateMutability": "view",
      "type": "function"
    },
    {
      "inputs": [
        {
          "internalType": "address",
          "name": "",
          "type": "address"
        }
      ],
      "name": "incomes",
      "outputs": [
        {
          "internalType": "uint256",
          "name": "principal",
          "type": "uint256"
        },
        {
          "internalType": "uint256",
          "name": "roiEarned",
          "type": "uint256"
        },
        {
          "internalType": "uint256",
          "name": "contributionEarned",
          "type": "uint256"
        },
        {
          "internalType": "uint256",
          "name": "boosterEarned",
          "type": "uint256"
        },
        {
          "internalType": "uint256",
          "name": "rankEarned",
          "type": "uint256"
        },
        {
          "internalType": "uint256",
          "name": "sameRankEarned",
          "type": "uint256"
        },
        {
          "internalType": "uint256",
          "name": "communityEarned",
          "type": "uint256"
        },
        {
          "internalType": "uint256",
          "name": "totalEarned",
          "type": "uint256"
        },
        {
          "internalType": "bool",
          "name": "packageActive",
          "type": "bool"
        }
      ],
      "stateMutability": "view",
      "type": "function"
    },
    {
      "inputs": [
        {
          "internalType": "address",
          "name": "user",
          "type": "address"
        }
      ],
      "name": "isPackageIncomeComplete",
      "outputs": [
        {
          "internalType": "bool",
          "name": "",
          "type": "bool"
        }
      ],
      "stateMutability": "view",
      "type": "function"
    },
    {
      "inputs": [
        {
          "internalType": "address",
          "name": "user",
          "type": "address"
        }
      ],
      "name": "isRoiCapReached",
      "outputs": [
        {
          "internalType": "bool",
          "name": "",
          "type": "bool"
        }
      ],
      "stateMutability": "view",
      "type": "function"
    },
    {
      "inputs": [
        {
          "internalType": "address",
          "name": "user",
          "type": "address"
        }
      ],
      "name": "isWorkingCapReached",
      "outputs": [
        {
          "internalType": "bool",
          "name": "",
          "type": "bool"
        }
      ],
      "stateMutability": "view",
      "type": "function"
    },
    {
      "inputs": [],
      "name": "owner",
      "outputs": [
        {
          "internalType": "address",
          "name": "",
          "type": "address"
        }
      ],
      "stateMutability": "view",
      "type": "function"
    },
    {
      "inputs": [
        {
          "internalType": "address",
          "name": "user",
          "type": "address"
        }
      ],
      "name": "principal",
      "outputs": [
        {
          "internalType": "uint256",
          "name": "",
          "type": "uint256"
        }
      ],
      "stateMutability": "view",
      "type": "function"
    },
    {
      "inputs": [
        {
          "internalType": "address",
          "name": "user",
          "type": "address"
        }
      ],
      "name": "rankEarned",
      "outputs": [
        {
          "internalType": "uint256",
          "name": "",
          "type": "uint256"
        }
      ],
      "stateMutability": "view",
      "type": "function"
    },
    {
      "inputs": [],
      "name": "rankReward",
      "outputs": [
        {
          "internalType": "contract IRankReward",
          "name": "",
          "type": "address"
        }
      ],
      "stateMutability": "view",
      "type": "function"
    },
    {
      "inputs": [
        {
          "internalType": "address",
          "name": "user",
          "type": "address"
        },
        {
          "internalType": "uint256",
          "name": "amount",
          "type": "uint256"
        },
        {
          "internalType": "enum IIncomeManager.IncomeType",
          "name": "incomeType",
          "type": "uint8"
        }
      ],
      "name": "recordIncome",
      "outputs": [
        {
          "internalType": "uint256",
          "name": "acceptedAmount",
          "type": "uint256"
        }
      ],
      "stateMutability": "nonpayable",
      "type": "function"
    },
    {
      "inputs": [
        {
          "internalType": "address",
          "name": "user",
          "type": "address"
        }
      ],
      "name": "roiEarned",
      "outputs": [
        {
          "internalType": "uint256",
          "name": "",
          "type": "uint256"
        }
      ],
      "stateMutability": "view",
      "type": "function"
    },
    {
      "inputs": [
        {
          "internalType": "address",
          "name": "user",
          "type": "address"
        }
      ],
      "name": "sameRankEarned",
      "outputs": [
        {
          "internalType": "uint256",
          "name": "",
          "type": "uint256"
        }
      ],
      "stateMutability": "view",
      "type": "function"
    },
    {
      "inputs": [
        {
          "internalType": "bool",
          "name": "enabled",
          "type": "bool"
        }
      ],
      "name": "setApplyRankCapMultipliers",
      "outputs": [],
      "stateMutability": "nonpayable",
      "type": "function"
    },
    {
      "inputs": [
        {
          "internalType": "address",
          "name": "contractAddress",
          "type": "address"
        },
        {
          "internalType": "bool",
          "name": "status",
          "type": "bool"
        }
      ],
      "name": "setAuthorizedContract",
      "outputs": [],
      "stateMutability": "nonpayable",
      "type": "function"
    },
    {
      "inputs": [
        {
          "internalType": "address",
          "name": "_coreContract",
          "type": "address"
        }
      ],
      "name": "setCoreContract",
      "outputs": [],
      "stateMutability": "nonpayable",
      "type": "function"
    },
    {
      "inputs": [
        {
          "internalType": "address",
          "name": "_rankReward",
          "type": "address"
        }
      ],
      "name": "setRankReward",
      "outputs": [],
      "stateMutability": "nonpayable",
      "type": "function"
    },
    {
      "inputs": [
        {
          "internalType": "address",
          "name": "user",
          "type": "address"
        },
        {
          "internalType": "uint256",
          "name": "packagePrincipal",
          "type": "uint256"
        }
      ],
      "name": "startPackage",
      "outputs": [],
      "stateMutability": "nonpayable",
      "type": "function"
    },
    {
      "inputs": [
        {
          "internalType": "address",
          "name": "user",
          "type": "address"
        }
      ],
      "name": "totalEarned",
      "outputs": [
        {
          "internalType": "uint256",
          "name": "",
          "type": "uint256"
        }
      ],
      "stateMutability": "view",
      "type": "function"
    },
    {
      "inputs": [
        {
          "internalType": "address",
          "name": "user",
          "type": "address"
        }
      ],
      "name": "workingEarned",
      "outputs": [
        {
          "internalType": "uint256",
          "name": "",
          "type": "uint256"
        }
      ],
      "stateMutability": "view",
      "type": "function"
    }
  ],
  "bytecode": "0x60806040526005805460ff191690553480156018575f5ffd5b505f80546001600160a01b03191633179055611b8c806100375f395ff3fe608060405234801561000f575f5ffd5b50600436106101d1575f3560e01c8063c40a1a38116100fe578063d5b9221b1161009e578063f3e899191161006e578063f3e899191461053e578063f80c4cba14610551578063fc208e3e14610564578063fe3b45b814610577575f5ffd5b8063d5b9221b146104e3578063e25f7da514610505578063e80db5db14610518578063f2fa73921461052b575f5ffd5b8063cba85c70116100d9578063cba85c701461040f578063cbfdfbc5146104b0578063cd82620f146104c3578063cf629511146104d0575f5ffd5b8063c40a1a38146103a6578063c6266693146103d1578063c7a4b149146103e4575f5ffd5b80633f1ef9531161017457806384ce78b01161014457806384ce78b0146103325780638da5cb5b1461035e578063a3fd7ae314610370578063b56699e314610393575f5ffd5b80633f1ef953146102b4578063579bd514146102c7578063649aca4a146102dc5780637a8bda9714610307575f5ffd5b80632ce0f9d6116101af5780632ce0f9d61461022e5780632dbf22b114610256578063375b43b4146102815780633b8e4f7e14610289575f5ffd5b80630c5438cd146101d557806313d06101146101f05780632afe5a921461021b575b5f5ffd5b6101dd600481565b6040519081526020015b60405180910390f35b6101dd6101fe3660046119bc565b6001600160a01b03165f9081526004602052604090206006015490565b6101dd6102293660046119bc565b61058a565b6101dd61023c3660046119bc565b6001600160a01b03165f9081526004602052604090205490565b6101dd6102643660046119bc565b6001600160a01b03165f9081526004602052604090206005015490565b6101dd600381565b6101dd6102973660046119bc565b6001600160a01b03165f9081526004602052604090206003015490565b6101dd6102c23660046119bc565b61061a565b6102da6102d53660046119e4565b610646565b005b6101dd6102ea3660046119bc565b6001600160a01b03165f9081526004602052604090206007015490565b60025461031a906001600160a01b031681565b6040516001600160a01b0390911681526020016101e7565b6101dd6103403660046119bc565b6001600160a01b03165f908152600460208190526040909120015490565b5f5461031a906001600160a01b031681565b61038361037e3660046119bc565b6106bf565b60405190151581526020016101e7565b6102da6103a13660046119fd565b610774565b6101dd6103b43660046119bc565b6001600160a01b03165f9081526004602052604090206002015490565b6102da6103df3660046119bc565b610930565b6101dd6103f23660046119bc565b6001600160a01b03165f9081526004602052604090206001015490565b61046a61041d3660046119bc565b600460208190525f91825260409091208054600182015460028301546003840154948401546005850154600686015460078701546008909701549597949693959293919290919060ff1689565b60408051998a5260208a0198909852968801959095526060870193909352608086019190915260a085015260c084015260e08301521515610100820152610120016101e7565b6103836104be3660046119bc565b6109e7565b6005546103839060ff1681565b6101dd6104de3660046119bc565b610aa9565b6103836104f13660046119bc565b60036020525f908152604090205460ff1681565b6102da6105133660046119bc565b610acd565b60015461031a906001600160a01b031681565b6102da610539366004611a25565b610b8b565b6101dd61054c3660046119bc565b610c54565b6101dd61055f3660046119bc565b610cde565b6101dd610572366004611a56565b610d6a565b6103836105853660046119bc565b611320565b6001600160a01b0381165f9081526004602081815260408084208151610120810183528154815260018201549381019390935260028101549183019190915260038101546060830152918201546080820152600582015460a0820152600682015460c0820152600782015460e082015260089091015460ff161515610100820152610614906113cc565b92915050565b5f6106248261140e565b6001600160a01b0383165f908152600460205260409020546106149190611aaa565b5f546001600160a01b031633146106785760405162461bcd60e51b815260040161066f90611ac1565b60405180910390fd5b6005805460ff19168215159081179091556040519081527f6eb425d27c028bd5269cde3eeaba13f66008f817f99c3c91d28e505f6a844bca9060200160405180910390a150565b6001600160a01b0381165f908152600460205260408120541580159061061457506001600160a01b0382165f908152600460208181526040928390208351610120810185528154815260018201549281019290925260028101549382019390935260038301546060820152908201546080820152600582015460a0820152600682015460c0820152600782015460e082015260089091015460ff16151561010082015261076d9083906114a5565b1592915050565b335f9081526003602052604090205460ff166107c35760405162461bcd60e51b815260206004820152600e60248201526d139bdd08185d5d1a1bdc9a5e995960921b604482015260640161066f565b6001600160a01b0382166108085760405162461bcd60e51b815260206004820152600c60248201526b24b73b30b634b2103ab9b2b960a11b604482015260640161066f565b5f811161084b5760405162461bcd60e51b8152602060048201526011602482015270125b9d985b1a59081c1c9a5b98da5c185b607a1b604482015260640161066f565b60408051610120810182528281525f6020808301828152838501838152606085018481526080860185815260a0870186815260c0880187815260e0890188815260016101008b018181526001600160a01b038f16808c526004808c529b8e90209c518d559851918c0191909155955160028b0155935160038a015591519688019690965594516005870155935160068601559251600785015591516008909301805460ff19169315159390931790925591518381527f8263290a34ad3301aa94c1f939aa076fae4d096812ccb3048c6d939cd07bf43291015b60405180910390a25050565b5f546001600160a01b031633146109595760405162461bcd60e51b815260040161066f90611ac1565b6001600160a01b03811661099e5760405162461bcd60e51b815260206004820152600c60248201526b496e76616c696420636f726560a01b604482015260640161066f565b600180546001600160a01b0319166001600160a01b0383169081179091556040517fb123bcd3d6124a115bda145c514c97efa40aa64417fbf5496835ca57b7991563905f90a250565b6001600160a01b0381165f908152600460208181526040808420815161012081018352815480825260018301549482019490945260028201549281019290925260038101546060830152928301546080820152600583015460a0820152600683015460c0820152600783015460e082015260089092015460ff1615156101008301521580610a785750806101000151155b15610a8557505f92915050565b610a8f83826114a5565b158015610aa25750610aa081611545565b155b9392505050565b6001600160a01b0381165f9081526004602081905260408220546106149190611aaa565b5f546001600160a01b03163314610af65760405162461bcd60e51b815260040161066f90611ac1565b6001600160a01b038116610b425760405162461bcd60e51b8152602060048201526013602482015272125b9d985b1a59081c985b9ac81c995dd85c99606a1b604482015260640161066f565b600280546001600160a01b0319166001600160a01b0383169081179091556040517f4cacbbb7ab6b53111341450cfd7f206628ce36c8698bfebf205937be520f82c5905f90a250565b5f546001600160a01b03163314610bb45760405162461bcd60e51b815260040161066f90611ac1565b6001600160a01b038216610bfd5760405162461bcd60e51b815260206004820152601060248201526f125b9d985b1a590818dbdb9d1c9858dd60821b604482015260640161066f565b6001600160a01b0382165f81815260036020908152604091829020805460ff191685151590811790915591519182527f8f689f580b739f90591fbd591709dd98941c0afe7a47c812b93e978c4702bceb9101610924565b6001600160a01b0381165f9081526004602081815260408084208151610120810183528154815260018201549381019390935260028101549183019190915260038101546060830152918201546080820152600582015460a0820152600682015460c0820152600782015460e082015260089091015460ff16151561010082015261061490611545565b6001600160a01b0381165f9081526004602081815260408084208151610120810183528154815260018201549381019390935260028101549183019190915260038101546060830152918201546080820152600582015460a0820152600682015460c0820152600782015460e082015260089091015460ff1615156101008201526106149083906114a5565b335f9081526003602052604081205460ff16610db95760405162461bcd60e51b815260206004820152600e60248201526d139bdd08185d5d1a1bdc9a5e995960921b604482015260640161066f565b6001600160a01b038416610dfe5760405162461bcd60e51b815260206004820152600c60248201526b24b73b30b634b2103ab9b2b960a11b604482015260640161066f565b5f8311610e3e5760405162461bcd60e51b815260206004820152600e60248201526d125b9d985b1a5908185b5bdd5b9d60921b604482015260640161066f565b6001600160a01b0384165f908152600460205260409020600881015460ff161580610e6857508054155b15610ec657826005811115610e7f57610e7f611ae5565b6007820154604080518781525f6020820152908101919091526001600160a01b038716905f516020611b375f395f51905f529060600160405180910390a35f915050610aa2565b5f80846005811115610eda57610eda611ae5565b1490505f6001856005811115610ef257610ef2611ae5565b1480610f0f57506002856005811115610f0d57610f0d611ae5565b145b80610f2b57506003856005811115610f2957610f29611ae5565b145b80610f4757506004856005811115610f4557610f45611ae5565b145b80610f6357506005856005811115610f6157610f61611ae5565b145b90508180610f6e5750805b610fb05760405162461bcd60e51b8152602060048201526013602482015272496e76616c696420696e636f6d65207479706560681b604482015260640161066f565b85935081156110a457604080516101208101825284548152600185015460208201526002850154918101919091526003840154606082015260048401546080820152600584015460a0820152600684015460c0820152600784015460e0820152600884015460ff1615156101008201525f9061102d9089906114a5565b9050805f036110925785600581111561104857611048611ae5565b6007850154604080518a81525f6020820152908101919091526001600160a01b038a16905f516020611b375f395f51905f529060600160405180910390a35f945050505050610aa2565b8085111561109e578094505b5061113f565b604080516101208101825284548152600185015460208201526002850154918101919091526003840154606082015260048401546080820152600584015460a0820152600684015460c0820152600784015460e0820152600884015460ff1615156101008201525f9061111690611545565b9050805f036111315785600581111561104857611048611ae5565b8085111561113d578094505b505b835f036111a15784600581111561115857611158611ae5565b6007840154604080518981525f6020820152908101919091526001600160a01b038916905f516020611b375f395f51905f529060600160405180910390a35f9350505050610aa2565b5f8560058111156111b4576111b4611ae5565b036111d75783836001015f8282546111cc9190611af9565b909155506112a09050565b60018560058111156111eb576111eb611ae5565b036112035783836002015f8282546111cc9190611af9565b600285600581111561121757611217611ae5565b0361122f5783836003015f8282546111cc9190611af9565b600385600581111561124357611243611ae5565b0361125b5783836004015f8282546111cc9190611af9565b600485600581111561126f5761126f611ae5565b036112875783836005015f8282546111cc9190611af9565b83836006015f82825461129a9190611af9565b90915550505b83836007015f8282546112b39190611af9565b9091555085905060058111156112cb576112cb611ae5565b60078401546040805189815260208101889052908101919091526001600160a01b038916905f516020611b375f395f51905f529060600160405180910390a3611316878484846115bf565b5050509392505050565b6001600160a01b0381165f908152600460205260408120541580159061061457506001600160a01b0382165f908152600460208181526040928390208351610120810185528154815260018201549281019290925260028101549382019390935260038301546060820152908201546080820152600582015460a0820152600682015460c0820152600782015460e082015260089091015460ff16151561010082015261076d90611545565b5f8160c001518260a001518360800151846060015185604001516113f09190611af9565b6113fa9190611af9565b6114049190611af9565b6106149190611af9565b6005545f9060ff16801561142c57506002546001600160a01b031615155b1561149d57600254604051632bd0759b60e11b81526001600160a01b038481166004830152909116906357a0eb3690602401602060405180830381865afa158015611479573d5f5f3e3d5ffd5b505050506040513d601f19601f820116820180604052508101906106149190611b0c565b506003919050565b80515f9081036114b657505f610614565b5f6114c08461140e565b83516114cc9190611aaa565b90505f81846020015110156114ef5760208401516114ea9083611b23565b6114f1565b5f5b90505f6003855f01516115049190611aaa565b90505f818660e0015110156115275760e08601516115229083611b23565b611529565b5f5b9050808310611538578061153a565b825b979650505050505050565b5f5f6004835f01516115579190611aaa565b90505f8360c001518460a0015185608001518660600151876040015161157d9190611af9565b6115879190611af9565b6115919190611af9565b61159b9190611af9565b90508181106115ad57505f9392505050565b6115b78183611b23565b949350505050565b604080516101208101825284548152600185015460208201526002850154918101919091526003840154606082015260048401546080820152600584015460a0820152600684015460c0820152600784015460e0820152600884015460ff1615156101008201525f906116339086906114a5565b604080516101208101825286548152600187015460208201526002870154918101919091526003860154606082015260048601546080820152600586015460a0820152600686015460c0820152600786015460e0820152600886015460ff161515610100820152901591505f906116a990611545565b1590505f8480156116b75750825b806116c757508380156116c75750815b806116d757508280156116d75750815b90508015611726576001546001600160a01b03166117265760405162461bcd60e51b815260206004820152600c60248201526b10dbdc99481b9bdd081cd95d60a21b604482015260640161066f565b8480156117305750825b156117d757866001600160a01b03167fb36d6deba983f6b719afd8e979f57637f7df3ba2c1c041c7966e9a8c2dd1e7c6876001015460405161177491815260200190565b60405180910390a260015460405163d4e26c8760e01b81526001600160a01b0389811660048301529091169063d4e26c87906024015f604051808303815f87803b1580156117c0575f5ffd5b505af11580156117d2573d5f5f3e3d5ffd5b505050505b8380156117e15750815b156118ef57604080516101208101825287548152600188015460208201526002880154918101919091526003870154606082015260048701546080820152600587015460a0820152600687015460c0820152600787015460e0820152600887015460ff1615156101008201526001600160a01b038816907f322d3a302a1a78cc835fd35da4342b01014dde2cee474ada8d371532d90470bb90611883906113cc565b60405190815260200160405180910390a26001546040516310f1442160e21b81526001600160a01b038981166004830152909116906343c51084906024015f604051808303815f87803b1580156118d8575f5ffd5b505af11580156118ea573d5f5f3e3d5ffd5b505050505b8280156118f95750815b156119985760088601805460ff191690556040516001600160a01b038816907f25f69cce209eef72ea2160afbe8453a6f52912c5bb6ee503fd6c9099ea70b7bb905f90a260015460405163594ddaaf60e11b81526001600160a01b0389811660048301529091169063b29bb55e906024015f604051808303815f87803b158015611981575f5ffd5b505af1158015611993573d5f5f3e3d5ffd5b505050505b50505050505050565b80356001600160a01b03811681146119b7575f5ffd5b919050565b5f602082840312156119cc575f5ffd5b610aa2826119a1565b803580151581146119b7575f5ffd5b5f602082840312156119f4575f5ffd5b610aa2826119d5565b5f5f60408385031215611a0e575f5ffd5b611a17836119a1565b946020939093013593505050565b5f5f60408385031215611a36575f5ffd5b611a3f836119a1565b9150611a4d602084016119d5565b90509250929050565b5f5f5f60608486031215611a68575f5ffd5b611a71846119a1565b925060208401359150604084013560068110611a8b575f5ffd5b809150509250925092565b634e487b7160e01b5f52601160045260245ffd5b808202811582820484141761061457610614611a96565b6020808252600a908201526927b7363c9037bbb732b960b11b604082015260600190565b634e487b7160e01b5f52602160045260245ffd5b8082018082111561061457610614611a96565b5f60208284031215611b1c575f5ffd5b5051919050565b8181038181111561061457610614611a9656febfcf878a6b5fcfc991e1b2258affd2e6cd72a4e647734a594c654b975a2b79b8a2646970667358221220df26397d5d3099b5d644cffb48a570d46e3771029e618c3a09323c07a4e082d264736f6c634300081c0033",
  "linkReferences": {},
  "deployedLinkReferences": {},
  "immutableReferences": {},
  "inputSourceName": "project/contracts/IncomeManager.sol",
  "buildInfoId": "solc-0_8_28-1cf5926752f7a43ea0d1799cb9cf7239b3cebfad"
}