{
  "_format": "hh3-artifact-1",
  "contractName": "InterdependentReward",
  "sourceName": "contracts/InterdependentReward.sol",
  "abi": [
    {
      "inputs": [],
      "stateMutability": "nonpayable",
      "type": "constructor"
    },
    {
      "inputs": [],
      "name": "ReentrancyGuardReentrantCall",
      "type": "error"
    },
    {
      "anonymous": false,
      "inputs": [
        {
          "indexed": true,
          "internalType": "address",
          "name": "coreContract",
          "type": "address"
        }
      ],
      "name": "CoreContractUpdated",
      "type": "event"
    },
    {
      "anonymous": false,
      "inputs": [
        {
          "indexed": true,
          "internalType": "address",
          "name": "incomeManager",
          "type": "address"
        }
      ],
      "name": "IncomeManagerUpdated",
      "type": "event"
    },
    {
      "anonymous": false,
      "inputs": [
        {
          "indexed": true,
          "internalType": "address",
          "name": "rankReward",
          "type": "address"
        }
      ],
      "name": "RankRewardUpdated",
      "type": "event"
    },
    {
      "anonymous": false,
      "inputs": [
        {
          "indexed": true,
          "internalType": "address",
          "name": "user",
          "type": "address"
        },
        {
          "indexed": false,
          "internalType": "uint256",
          "name": "principal",
          "type": "uint256"
        }
      ],
      "name": "RoiActivated",
      "type": "event"
    },
    {
      "anonymous": false,
      "inputs": [
        {
          "indexed": true,
          "internalType": "address",
          "name": "user",
          "type": "address"
        },
        {
          "indexed": false,
          "internalType": "uint256",
          "name": "amount",
          "type": "uint256"
        }
      ],
      "name": "RoiClaimed",
      "type": "event"
    },
    {
      "anonymous": false,
      "inputs": [
        {
          "indexed": true,
          "internalType": "address",
          "name": "user",
          "type": "address"
        },
        {
          "indexed": false,
          "internalType": "uint256",
          "name": "principal",
          "type": "uint256"
        }
      ],
      "name": "RoiDeactivated",
      "type": "event"
    },
    {
      "anonymous": false,
      "inputs": [
        {
          "indexed": true,
          "internalType": "address",
          "name": "treasury",
          "type": "address"
        }
      ],
      "name": "TreasuryUpdated",
      "type": "event"
    },
    {
      "inputs": [],
      "name": "MAX_DAILY_ROI_BPS",
      "outputs": [
        {
          "internalType": "uint256",
          "name": "",
          "type": "uint256"
        }
      ],
      "stateMutability": "view",
      "type": "function"
    },
    {
      "inputs": [
        {
          "internalType": "address",
          "name": "user",
          "type": "address"
        },
        {
          "internalType": "uint256",
          "name": "principal",
          "type": "uint256"
        }
      ],
      "name": "activateRoi",
      "outputs": [],
      "stateMutability": "nonpayable",
      "type": "function"
    },
    {
      "inputs": [],
      "name": "budgetDay",
      "outputs": [
        {
          "internalType": "uint256",
          "name": "",
          "type": "uint256"
        }
      ],
      "stateMutability": "view",
      "type": "function"
    },
    {
      "inputs": [],
      "name": "calculateDailyRoiBps",
      "outputs": [
        {
          "internalType": "uint256",
          "name": "",
          "type": "uint256"
        }
      ],
      "stateMutability": "view",
      "type": "function"
    },
    {
      "inputs": [],
      "name": "claimRoi",
      "outputs": [],
      "stateMutability": "nonpayable",
      "type": "function"
    },
    {
      "inputs": [],
      "name": "coreContract",
      "outputs": [
        {
          "internalType": "address",
          "name": "",
          "type": "address"
        }
      ],
      "stateMutability": "view",
      "type": "function"
    },
    {
      "inputs": [],
      "name": "dailyBudget",
      "outputs": [
        {
          "internalType": "uint256",
          "name": "",
          "type": "uint256"
        }
      ],
      "stateMutability": "view",
      "type": "function"
    },
    {
      "inputs": [],
      "name": "dailyBudgetUsed",
      "outputs": [
        {
          "internalType": "uint256",
          "name": "",
          "type": "uint256"
        }
      ],
      "stateMutability": "view",
      "type": "function"
    },
    {
      "inputs": [
        {
          "internalType": "address",
          "name": "user",
          "type": "address"
        }
      ],
      "name": "deactivateRoi",
      "outputs": [],
      "stateMutability": "nonpayable",
      "type": "function"
    },
    {
      "inputs": [
        {
          "internalType": "address",
          "name": "user",
          "type": "address"
        }
      ],
      "name": "getPendingRoi",
      "outputs": [
        {
          "internalType": "uint256",
          "name": "",
          "type": "uint256"
        }
      ],
      "stateMutability": "view",
      "type": "function"
    },
    {
      "inputs": [],
      "name": "getRemainingDailyBudget",
      "outputs": [
        {
          "internalType": "uint256",
          "name": "",
          "type": "uint256"
        }
      ],
      "stateMutability": "view",
      "type": "function"
    },
    {
      "inputs": [],
      "name": "incomeManager",
      "outputs": [
        {
          "internalType": "contract IIncomeManager",
          "name": "",
          "type": "address"
        }
      ],
      "stateMutability": "view",
      "type": "function"
    },
    {
      "inputs": [],
      "name": "owner",
      "outputs": [
        {
          "internalType": "address",
          "name": "",
          "type": "address"
        }
      ],
      "stateMutability": "view",
      "type": "function"
    },
    {
      "inputs": [],
      "name": "rankReward",
      "outputs": [
        {
          "internalType": "contract IRankReward",
          "name": "",
          "type": "address"
        }
      ],
      "stateMutability": "view",
      "type": "function"
    },
    {
      "inputs": [
        {
          "internalType": "address",
          "name": "",
          "type": "address"
        }
      ],
      "name": "roiAccounts",
      "outputs": [
        {
          "internalType": "uint256",
          "name": "principal",
          "type": "uint256"
        },
        {
          "internalType": "uint256",
          "name": "lastClaimAt",
          "type": "uint256"
        },
        {
          "internalType": "bool",
          "name": "isActive",
          "type": "bool"
        }
      ],
      "stateMutability": "view",
      "type": "function"
    },
    {
      "inputs": [
        {
          "internalType": "address",
          "name": "_coreContract",
          "type": "address"
        }
      ],
      "name": "setCoreContract",
      "outputs": [],
      "stateMutability": "nonpayable",
      "type": "function"
    },
    {
      "inputs": [
        {
          "internalType": "address",
          "name": "_incomeManager",
          "type": "address"
        }
      ],
      "name": "setIncomeManager",
      "outputs": [],
      "stateMutability": "nonpayable",
      "type": "function"
    },
    {
      "inputs": [
        {
          "internalType": "address",
          "name": "_rankReward",
          "type": "address"
        }
      ],
      "name": "setRankReward",
      "outputs": [],
      "stateMutability": "nonpayable",
      "type": "function"
    },
    {
      "inputs": [
        {
          "internalType": "address",
          "name": "_treasury",
          "type": "address"
        }
      ],
      "name": "setTreasury",
      "outputs": [],
      "stateMutability": "nonpayable",
      "type": "function"
    },
    {
      "inputs": [],
      "name": "totalActivePrincipal",
      "outputs": [
        {
          "internalType": "uint256",
          "name": "",
          "type": "uint256"
        }
      ],
      "stateMutability": "view",
      "type": "function"
    },
    {
      "inputs": [],
      "name": "treasury",
      "outputs": [
        {
          "internalType": "contract ITreasuryManager",
          "name": "",
          "type": "address"
        }
      ],
      "stateMutability": "view",
      "type": "function"
    }
  ],
  "bytecode": "0x6080604052348015600e575f5ffd5b5060017f9b779b17422d0df92223018b32b4d1fa46e071723d6817e2486d003becc55f00555f80546001600160a01b031916331790556113de806100515f395ff3fe608060405234801561000f575f5ffd5b5060043610610132575f3560e01c80638da5cb5b116100b4578063cbad3cf811610079578063cbad3cf81461027a578063e25f7da514610283578063e80db5db14610296578063f0f44260146102a9578063f85f57c8146102bc578063ffb92e3c146102c5575f5ffd5b80638da5cb5b146102325780639311dd6a146102445780639da29ebe1461024c578063c2cf24611461025f578063c626669314610267575f5ffd5b806366d595e4116100fa57806366d595e4146101e85780636f0c3404146101f157806375fa6b96146102045780637a8bda97146102175780637bea3dfa1461022a575f5ffd5b80634eec7da1146101365780635712c4561461015257806358199e591461015a57806358627f8c1461016f57806361d027b3146101bd575b5f5ffd5b61013f60055481565b6040519081526020015b60405180910390f35b61013f606481565b61016d610168366004611255565b6102d8565b005b6101a061017d36600461127d565b60096020525f908152604090208054600182015460029092015490919060ff1683565b604080519384526020840192909252151590820152606001610149565b6003546101d0906001600160a01b031681565b6040516001600160a01b039091168152602001610149565b61013f60075481565b61016d6101ff36600461127d565b610476565b61016d61021236600461127d565b610537565b6002546101d0906001600160a01b031681565b61016d610672565b5f546101d0906001600160a01b031681565b61013f610c5a565b61013f61025a36600461127d565b610d16565b61013f610dcf565b61016d61027536600461127d565b610e9e565b61013f60085481565b61016d61029136600461127d565b610f5e565b6001546101d0906001600160a01b031681565b61016d6102b736600461127d565b61101c565b61013f60065481565b6004546101d0906001600160a01b031681565b6001546001600160a01b0316331461032c5760405162461bcd60e51b815260206004820152601260248201527113db9b1e4818dbdc994818dbdb9d1c9858dd60721b60448201526064015b60405180910390fd5b6001600160a01b0382166103715760405162461bcd60e51b815260206004820152600c60248201526b24b73b30b634b2103ab9b2b960a11b6044820152606401610323565b5f81116103b45760405162461bcd60e51b8152602060048201526011602482015270125b9d985b1a59081c1c9a5b98da5c185b607a1b6044820152606401610323565b6001600160a01b0382165f908152600960205260409020600281015460ff1680156103df5750805415155b156103fd578054600780545f906103f79084906112b1565b90915550505b8181554260018083019190915560028201805460ff19169091179055600780548391905f9061042d9084906112c4565b90915550506040518281526001600160a01b038416907f66a63f1dc7d4581b278dcde70f15d11d21868513b70d27ca31615f105a7361ce906020015b60405180910390a2505050565b5f546001600160a01b0316331461049f5760405162461bcd60e51b8152600401610323906112d7565b6001600160a01b0381166104ee5760405162461bcd60e51b815260206004820152601660248201527524b73b30b634b21034b731b7b6b29036b0b730b3b2b960511b6044820152606401610323565b600480546001600160a01b0319166001600160a01b0383169081179091556040517f0f0fd68ddbdbaed4a449438dc3616233e337288adb444d5ccc52fb76da94b729905f90a250565b6001546001600160a01b031633146105865760405162461bcd60e51b815260206004820152601260248201527113db9b1e4818dbdc994818dbdb9d1c9858dd60721b6044820152606401610323565b6001600160a01b0381166105cb5760405162461bcd60e51b815260206004820152600c60248201526b24b73b30b634b2103ab9b2b960a11b6044820152606401610323565b6001600160a01b0381165f908152600960205260409020600281015460ff166105f2575050565b805460028201805460ff19169055801580159061061157508060075410155b15610632578060075f82825461062791906112b1565b909155506106379050565b5f6007555b826001600160a01b03167faa3f5b8e2013139144b0679f583975a01f1f60ce094723366e6d37f01ac796028260405161046991815260200190565b61067a6110d7565b6004546001600160a01b03166106cb5760405162461bcd60e51b8152602060048201526016602482015275125b98dbdb59481b585b9859d95c881b9bdd081cd95d60521b6044820152606401610323565b6003546001600160a01b03166107165760405162461bcd60e51b815260206004820152601060248201526f151c99585cdd5c9e481b9bdd081cd95d60821b6044820152606401610323565b335f908152600960205260409020600281015460ff166107695760405162461bcd60e51b815260206004820152600e60248201526d524f49206e6f742061637469766560901b6044820152606401610323565b6004805460405163a3fd7ae360e01b815233928101929092526001600160a01b03169063a3fd7ae390602401602060405180830381865afa1580156107b0573d5f5f3e3d5ffd5b505050506040513d601f19601f820116820180604052508101906107d491906112fb565b1561081c576107e281611105565b60405162461bcd60e51b815260206004820152600f60248201526e1493d24818d85c081c995858da1959608a1b6044820152606401610323565b61082461115e565b5f61082e33610d16565b90505f81116108725760405162461bcd60e51b815260206004820152601060248201526f4e6f20524f4920617661696c61626c6560801b6044820152606401610323565b5f60065460055461088391906112b1565b90505f81116108d45760405162461bcd60e51b815260206004820152601a60248201527f4461696c7920524f4920627564676574206578686175737465640000000000006044820152606401610323565b81818111156108e05750805b60048054604051637e10471f60e11b81526001600160a01b039091169163fc208e3e9161091391339186915f910161131a565b6020604051808303815f875af115801561092f573d5f5f3e3d5ffd5b505050506040513d601f19601f82011682018060405250810190610953919061135b565b90505f81116109965760405162461bcd60e51b815260206004820152600f60248201526e1493d24818d85c081c995858da1959608a1b6044820152606401610323565b8060065f8282546109a791906112c4565b90915550508281106109be57426001850155610a3d565b5f620151808560010154426109d391906112b1565b6109dd9190611372565b90505f846109eb8385611391565b6109f89062015180611391565b610a029190611372565b9050805f03610a0f575060015b80866001015f828254610a2291906112c4565b90915550506001860154421015610a3a574260018701555b50505b60035460405163a7589d2160e01b8152336004820152602481018390526001600160a01b039091169063a7589d21906044015f604051808303815f87803b158015610a86575f5ffd5b505af1158015610a98573d5f5f3e3d5ffd5b50506002546001600160a01b0316159150610b6e90505760025460405163847736ad60e01b8152336004820152602481018390526001600160a01b039091169063847736ad906044015f604051808303815f87803b158015610af8575f5ffd5b505af1158015610b0a573d5f5f3e3d5ffd5b5050600254604051632faa9d0360e21b8152336004820152602481018590526001600160a01b03909116925063beaa740c91506044015f604051808303815f87803b158015610b57575f5ffd5b505af1158015610b69573d5f5f3e3d5ffd5b505050505b600284015460ff168015610be857506004805460405163a3fd7ae360e01b815233928101929092526001600160a01b03169063a3fd7ae390602401602060405180830381865afa158015610bc4573d5f5f3e3d5ffd5b505050506040513d601f19601f82011682018060405250810190610be891906112fb565b15610bf657610bf684611105565b60405181815233907f10985303ad4f76ed2e3c2ab546caf0873a9e50f3beba0ddbd74c9e470a2eac469060200160405180910390a250505050610c5860017f9b779b17422d0df92223018b32b4d1fa46e071723d6817e2486d003becc55f0055565b565b5f80610c696201518042611372565b9050600854811115610d06576003546001600160a01b0316610c8c575f91505090565b60035f9054906101000a90046001600160a01b03166001600160a01b0316639c6f4bb76040518163ffffffff1660e01b8152600401602060405180830381865afa158015610cdc573d5f5f3e3d5ffd5b505050506040513d601f19601f82011682018060405250810190610d00919061135b565b91505090565b600654600554610d0091906112b1565b6001600160a01b0381165f9081526009602090815260408083208151606081018352815481526001820154938101939093526002015460ff161515908201819052610d6357505f92915050565b5f62015180826020015142610d7891906112b1565b610d829190611372565b9050805f03610d9457505f9392505050565b5f610d9d610dcf565b90506127108282855f0151610db29190611391565b610dbc9190611391565b610dc69190611372565b95945050505050565b5f6007545f1480610de957506003546001600160a01b0316155b15610df357505f90565b60035460408051639c6f4bb760e01b815290515f926001600160a01b031691639c6f4bb79160048083019260209291908290030181865afa158015610e3a573d5f5f3e3d5ffd5b505050506040513d601f19601f82011682018060405250810190610e5e919061135b565b9050805f03610e6e575f91505090565b6007545f90610e7f83612710611391565b610e899190611372565b90506064811115610e98575060645b92915050565b5f546001600160a01b03163314610ec75760405162461bcd60e51b8152600401610323906112d7565b6001600160a01b038116610f155760405162461bcd60e51b8152602060048201526015602482015274125b9d985b1a590818dbdc994818dbdb9d1c9858dd605a1b6044820152606401610323565b600180546001600160a01b0319166001600160a01b0383169081179091556040517fb123bcd3d6124a115bda145c514c97efa40aa64417fbf5496835ca57b7991563905f90a250565b5f546001600160a01b03163314610f875760405162461bcd60e51b8152600401610323906112d7565b6001600160a01b038116610fd35760405162461bcd60e51b8152602060048201526013602482015272125b9d985b1a59081c985b9ac81c995dd85c99606a1b6044820152606401610323565b600280546001600160a01b0319166001600160a01b0383169081179091556040517f4cacbbb7ab6b53111341450cfd7f206628ce36c8698bfebf205937be520f82c5905f90a250565b5f546001600160a01b031633146110455760405162461bcd60e51b8152600401610323906112d7565b6001600160a01b03811661108e5760405162461bcd60e51b815260206004820152601060248201526f496e76616c696420747265617375727960801b6044820152606401610323565b600380546001600160a01b0319166001600160a01b0383169081179091556040517f7dae230f18360d76a040c81f050aa14eb9d6dc7901b20fc5d855e2a20fe814d1905f90a250565b6110df6111f8565b60027f9b779b17422d0df92223018b32b4d1fa46e071723d6817e2486d003becc55f0055565b600281015460ff166111145750565b60028101805460ff191690558054158015906111335750805460075410155b15611156578054600780545f9061114b9084906112b1565b9091555061115b9050565b5f6007555b50565b5f61116c6201518042611372565b905060085481111561115b5760035f9054906101000a90046001600160a01b03166001600160a01b0316639c6f4bb76040518163ffffffff1660e01b8152600401602060405180830381865afa1580156111c8573d5f5f3e3d5ffd5b505050506040513d601f19601f820116820180604052508101906111ec919061135b565b6005555f600655600855565b7f9b779b17422d0df92223018b32b4d1fa46e071723d6817e2486d003becc55f0054600203610c5857604051633ee5aeb560e01b815260040160405180910390fd5b80356001600160a01b0381168114611250575f5ffd5b919050565b5f5f60408385031215611266575f5ffd5b61126f8361123a565b946020939093013593505050565b5f6020828403121561128d575f5ffd5b6112968261123a565b9392505050565b634e487b7160e01b5f52601160045260245ffd5b81810381811115610e9857610e9861129d565b80820180821115610e9857610e9861129d565b6020808252600a908201526927b7363c9037bbb732b960b11b604082015260600190565b5f6020828403121561130b575f5ffd5b81518015158114611296575f5ffd5b6001600160a01b038416815260208101839052606081016006831061134d57634e487b7160e01b5f52602160045260245ffd5b826040830152949350505050565b5f6020828403121561136b575f5ffd5b5051919050565b5f8261138c57634e487b7160e01b5f52601260045260245ffd5b500490565b8082028115828204841417610e9857610e9861129d56fea2646970667358221220e5e20c0355a101d6e5bab0e748048716e470496dddc2993faea7459cea30195364736f6c634300081c0033",
  "linkReferences": {},
  "deployedLinkReferences": {},
  "immutableReferences": {},
  "inputSourceName": "project/contracts/InterdependentReward.sol",
  "buildInfoId": "solc-0_8_28-1cf5926752f7a43ea0d1799cb9cf7239b3cebfad"
}