{
  "_format": "hh3-artifact-1",
  "contractName": "InterdependentReward",
  "sourceName": "contracts/InterdependentReward.sol",
  "abi": [
    {
      "inputs": [
        {
          "internalType": "address",
          "name": "_btcbToken",
          "type": "address"
        }
      ],
      "stateMutability": "nonpayable",
      "type": "constructor"
    },
    {
      "inputs": [],
      "name": "MAX_DAILY_ROI_BPS",
      "outputs": [
        {
          "internalType": "uint256",
          "name": "",
          "type": "uint256"
        }
      ],
      "stateMutability": "view",
      "type": "function"
    },
    {
      "inputs": [],
      "name": "MIN_DAILY_ROI_BPS",
      "outputs": [
        {
          "internalType": "uint256",
          "name": "",
          "type": "uint256"
        }
      ],
      "stateMutability": "view",
      "type": "function"
    },
    {
      "inputs": [
        {
          "internalType": "address",
          "name": "user",
          "type": "address"
        },
        {
          "internalType": "uint256",
          "name": "principal",
          "type": "uint256"
        }
      ],
      "name": "activateRoi",
      "outputs": [],
      "stateMutability": "nonpayable",
      "type": "function"
    },
    {
      "inputs": [
        {
          "internalType": "address",
          "name": "user",
          "type": "address"
        },
        {
          "internalType": "uint256",
          "name": "principal",
          "type": "uint256"
        }
      ],
      "name": "addRoiPrincipal",
      "outputs": [],
      "stateMutability": "nonpayable",
      "type": "function"
    },
    {
      "inputs": [],
      "name": "btcbToken",
      "outputs": [
        {
          "internalType": "contract IERC20",
          "name": "",
          "type": "address"
        }
      ],
      "stateMutability": "view",
      "type": "function"
    },
    {
      "inputs": [],
      "name": "budgetDay",
      "outputs": [
        {
          "internalType": "uint256",
          "name": "",
          "type": "uint256"
        }
      ],
      "stateMutability": "view",
      "type": "function"
    },
    {
      "inputs": [],
      "name": "calculateDailyRoiBps",
      "outputs": [
        {
          "internalType": "uint256",
          "name": "",
          "type": "uint256"
        }
      ],
      "stateMutability": "view",
      "type": "function"
    },
    {
      "inputs": [],
      "name": "claimRoi",
      "outputs": [],
      "stateMutability": "nonpayable",
      "type": "function"
    },
    {
      "inputs": [],
      "name": "coreContract",
      "outputs": [
        {
          "internalType": "address",
          "name": "",
          "type": "address"
        }
      ],
      "stateMutability": "view",
      "type": "function"
    },
    {
      "inputs": [],
      "name": "dailyBudget",
      "outputs": [
        {
          "internalType": "uint256",
          "name": "",
          "type": "uint256"
        }
      ],
      "stateMutability": "view",
      "type": "function"
    },
    {
      "inputs": [],
      "name": "dailyBudgetUsed",
      "outputs": [
        {
          "internalType": "uint256",
          "name": "",
          "type": "uint256"
        }
      ],
      "stateMutability": "view",
      "type": "function"
    },
    {
      "inputs": [
        {
          "internalType": "address",
          "name": "user",
          "type": "address"
        }
      ],
      "name": "debugDaysPassed",
      "outputs": [
        {
          "internalType": "uint256",
          "name": "currentTimestamp",
          "type": "uint256"
        },
        {
          "internalType": "uint256",
          "name": "lastClaimAt",
          "type": "uint256"
        },
        {
          "internalType": "uint256",
          "name": "daysPassed",
          "type": "uint256"
        }
      ],
      "stateMutability": "view",
      "type": "function"
    },
    {
      "inputs": [
        {
          "internalType": "address",
          "name": "user",
          "type": "address"
        }
      ],
      "name": "getPendingRoi",
      "outputs": [
        {
          "internalType": "uint256",
          "name": "",
          "type": "uint256"
        }
      ],
      "stateMutability": "view",
      "type": "function"
    },
    {
      "inputs": [],
      "name": "getRemainingDailyBudget",
      "outputs": [
        {
          "internalType": "uint256",
          "name": "",
          "type": "uint256"
        }
      ],
      "stateMutability": "view",
      "type": "function"
    },
    {
      "inputs": [],
      "name": "incomeManager",
      "outputs": [
        {
          "internalType": "contract IIncomeManager",
          "name": "",
          "type": "address"
        }
      ],
      "stateMutability": "view",
      "type": "function"
    },
    {
      "inputs": [],
      "name": "owner",
      "outputs": [
        {
          "internalType": "address",
          "name": "",
          "type": "address"
        }
      ],
      "stateMutability": "view",
      "type": "function"
    },
    {
      "inputs": [],
      "name": "rankReward",
      "outputs": [
        {
          "internalType": "contract IRankReward",
          "name": "",
          "type": "address"
        }
      ],
      "stateMutability": "view",
      "type": "function"
    },
    {
      "inputs": [
        {
          "internalType": "address",
          "name": "",
          "type": "address"
        }
      ],
      "name": "roiAccounts",
      "outputs": [
        {
          "internalType": "uint256",
          "name": "principal",
          "type": "uint256"
        },
        {
          "internalType": "uint256",
          "name": "roiEarned",
          "type": "uint256"
        },
        {
          "internalType": "uint256",
          "name": "totalEarned",
          "type": "uint256"
        },
        {
          "internalType": "uint256",
          "name": "lastClaimAt",
          "type": "uint256"
        },
        {
          "internalType": "bool",
          "name": "isActive",
          "type": "bool"
        }
      ],
      "stateMutability": "view",
      "type": "function"
    },
    {
      "inputs": [
        {
          "internalType": "address",
          "name": "_coreContract",
          "type": "address"
        }
      ],
      "name": "setCoreContract",
      "outputs": [],
      "stateMutability": "nonpayable",
      "type": "function"
    },
    {
      "inputs": [
        {
          "internalType": "address",
          "name": "_incomeManager",
          "type": "address"
        }
      ],
      "name": "setIncomeManager",
      "outputs": [],
      "stateMutability": "nonpayable",
      "type": "function"
    },
    {
      "inputs": [
        {
          "internalType": "address",
          "name": "_rankReward",
          "type": "address"
        }
      ],
      "name": "setRankReward",
      "outputs": [],
      "stateMutability": "nonpayable",
      "type": "function"
    },
    {
      "inputs": [
        {
          "internalType": "address",
          "name": "_treasury",
          "type": "address"
        }
      ],
      "name": "setTreasury",
      "outputs": [],
      "stateMutability": "nonpayable",
      "type": "function"
    },
    {
      "inputs": [],
      "name": "totalActivePrincipal",
      "outputs": [
        {
          "internalType": "uint256",
          "name": "",
          "type": "uint256"
        }
      ],
      "stateMutability": "view",
      "type": "function"
    },
    {
      "inputs": [],
      "name": "treasury",
      "outputs": [
        {
          "internalType": "contract ITreasuryManager",
          "name": "",
          "type": "address"
        }
      ],
      "stateMutability": "view",
      "type": "function"
    }
  ],
  "bytecode": "0x608060405234801561000f575f5ffd5b50604051612acc380380612acc83398181016040528101906100319190610182565b5f73ffffffffffffffffffffffffffffffffffffffff168173ffffffffffffffffffffffffffffffffffffffff160361009f576040517f08c379a000000000000000000000000000000000000000000000000000000000815260040161009690610207565b60405180910390fd5b3360015f6101000a81548173ffffffffffffffffffffffffffffffffffffffff021916908373ffffffffffffffffffffffffffffffffffffffff160217905550805f5f6101000a81548173ffffffffffffffffffffffffffffffffffffffff021916908373ffffffffffffffffffffffffffffffffffffffff16021790555050610225565b5f5ffd5b5f73ffffffffffffffffffffffffffffffffffffffff82169050919050565b5f61015182610128565b9050919050565b61016181610147565b811461016b575f5ffd5b50565b5f8151905061017c81610158565b92915050565b5f6020828403121561019757610196610124565b5b5f6101a48482850161016e565b91505092915050565b5f82825260208201905092915050565b7f496e76616c6964204254434220746f6b656e00000000000000000000000000005f82015250565b5f6101f16012836101ad565b91506101fc826101bd565b602082019050919050565b5f6020820190508181035f83015261021e816101e5565b9050919050565b61289a806102325f395ff3fe608060405234801561000f575f5ffd5b5060043610610156575f3560e01c80638da5cb5b116100c1578063de9a7e191161007a578063de9a7e1914610396578063e25f7da5146103b4578063e80db5db146103d0578063f0f44260146103ee578063f85f57c81461040a578063ffb92e3c1461042857610156565b80638da5cb5b146102d25780639311dd6a146102f05780639da29ebe1461030e578063c2cf24611461033e578063c62666931461035c578063cbad3cf81461037857610156565b806358627f8c1161011357806358627f8c1461021e57806361d027b31461025257806366d595e4146102705780636f0c34041461028e5780637a8bda97146102aa5780637bea3dfa146102c857610156565b8063065799d21461015a5780630d6bbfdc14610176578063319526a0146101945780634eec7da1146101c65780635712c456146101e457806358199e5914610202575b5f5ffd5b610174600480360381019061016f9190611da3565b610446565b005b61017e61064b565b60405161018b9190611df0565b60405180910390f35b6101ae60048036038101906101a99190611e09565b610650565b6040516101bd93929190611e34565b60405180910390f35b6101ce610711565b6040516101db9190611df0565b60405180910390f35b6101ec610717565b6040516101f99190611df0565b60405180910390f35b61021c60048036038101906102179190611da3565b61071c565b005b61023860048036038101906102339190611e09565b6109b3565b604051610249959493929190611e83565b60405180910390f35b61025a6109f1565b6040516102679190611f2f565b60405180910390f35b610278610a16565b6040516102859190611df0565b60405180910390f35b6102a860048036038101906102a39190611e09565b610a1c565b005b6102b2610b5c565b6040516102bf9190611f68565b60405180910390f35b6102d0610b81565b005b6102da6113c6565b6040516102e79190611f90565b60405180910390f35b6102f86113eb565b6040516103059190611df0565b60405180910390f35b61032860048036038101906103239190611e09565b611512565b6040516103359190611df0565b60405180910390f35b610346611645565b6040516103539190611df0565b60405180910390f35b61037660048036038101906103719190611e09565b611787565b005b6103806118c7565b60405161038d9190611df0565b60405180910390f35b61039e6118cd565b6040516103ab9190611fc9565b60405180910390f35b6103ce60048036038101906103c99190611e09565b6118f1565b005b6103d8611a31565b6040516103e59190611f90565b60405180910390f35b61040860048036038101906104039190611e09565b611a56565b005b610412611b96565b60405161041f9190611df0565b60405180910390f35b610430611b9c565b60405161043d9190612002565b60405180910390f35b60025f9054906101000a900473ffffffffffffffffffffffffffffffffffffffff1673ffffffffffffffffffffffffffffffffffffffff163373ffffffffffffffffffffffffffffffffffffffff16146104d5576040517f08c379a00000000000000000000000000000000000000000000000000000000081526004016104cc90612075565b60405180910390fd5b5f73ffffffffffffffffffffffffffffffffffffffff168273ffffffffffffffffffffffffffffffffffffffff1603610543576040517f08c379a000000000000000000000000000000000000000000000000000000000815260040161053a906120dd565b60405180910390fd5b5f8111610585576040517f08c379a000000000000000000000000000000000000000000000000000000000815260040161057c90612145565b60405180910390fd5b5f600a5f8473ffffffffffffffffffffffffffffffffffffffff1673ffffffffffffffffffffffffffffffffffffffff1681526020019081526020015f209050806004015f9054906101000a900460ff16610615576040517f08c379a000000000000000000000000000000000000000000000000000000000815260040161060c906121ad565b60405180910390fd5b81815f015f82825461062791906121f8565b925050819055508160085f82825461063f91906121f8565b92505081905550505050565b600a81565b5f5f5f5f600a5f8673ffffffffffffffffffffffffffffffffffffffff1673ffffffffffffffffffffffffffffffffffffffff1681526020019081526020015f206040518060a00160405290815f8201548152602001600182015481526020016002820154815260200160038201548152602001600482015f9054906101000a900460ff161515151581525050905042935080606001519250620151808160600151426106fd919061222b565b610707919061228b565b9150509193909250565b60065481565b606481565b60025f9054906101000a900473ffffffffffffffffffffffffffffffffffffffff1673ffffffffffffffffffffffffffffffffffffffff163373ffffffffffffffffffffffffffffffffffffffff16146107ab576040517f08c379a00000000000000000000000000000000000000000000000000000000081526004016107a290612075565b60405180910390fd5b5f73ffffffffffffffffffffffffffffffffffffffff168273ffffffffffffffffffffffffffffffffffffffff1603610819576040517f08c379a0000000000000000000000000000000000000000000000000000000008152600401610810906120dd565b60405180910390fd5b5f811161085b576040517f08c379a000000000000000000000000000000000000000000000000000000000815260040161085290612145565b60405180910390fd5b600a5f8373ffffffffffffffffffffffffffffffffffffffff1673ffffffffffffffffffffffffffffffffffffffff1681526020019081526020015f206004015f9054906101000a900460ff16156108e8576040517f08c379a00000000000000000000000000000000000000000000000000000000081526004016108df90612305565b60405180910390fd5b6040518060a001604052808281526020015f81526020015f815260200142815260200160011515815250600a5f8473ffffffffffffffffffffffffffffffffffffffff1673ffffffffffffffffffffffffffffffffffffffff1681526020019081526020015f205f820151815f01556020820151816001015560408201518160020155606082015181600301556080820151816004015f6101000a81548160ff0219169083151502179055509050508060085f8282546109a891906121f8565b925050819055505050565b600a602052805f5260405f205f91509050805f015490806001015490806002015490806003015490806004015f9054906101000a900460ff16905085565b60045f9054906101000a900473ffffffffffffffffffffffffffffffffffffffff1681565b60085481565b60015f9054906101000a900473ffffffffffffffffffffffffffffffffffffffff1673ffffffffffffffffffffffffffffffffffffffff163373ffffffffffffffffffffffffffffffffffffffff1614610aab576040517f08c379a0000000000000000000000000000000000000000000000000000000008152600401610aa29061236d565b60405180910390fd5b5f73ffffffffffffffffffffffffffffffffffffffff168173ffffffffffffffffffffffffffffffffffffffff1603610b19576040517f08c379a0000000000000000000000000000000000000000000000000000000008152600401610b10906123d5565b60405180910390fd5b8060055f6101000a81548173ffffffffffffffffffffffffffffffffffffffff021916908373ffffffffffffffffffffffffffffffffffffffff16021790555050565b60035f9054906101000a900473ffffffffffffffffffffffffffffffffffffffff1681565b5f600a5f3373ffffffffffffffffffffffffffffffffffffffff1673ffffffffffffffffffffffffffffffffffffffff1681526020019081526020015f209050806004015f9054906101000a900460ff16610c11576040517f08c379a0000000000000000000000000000000000000000000000000000000008152600401610c08906121ad565b60405180910390fd5b610c19611bc1565b5f610c2333611512565b90505f8111610c67576040517f08c379a0000000000000000000000000000000000000000000000000000000008152600401610c5e9061243d565b60405180910390fd5b5f600754600654610c78919061222b565b90505f8111610cbc576040517f08c379a0000000000000000000000000000000000000000000000000000000008152600401610cb3906124a5565b60405180910390fd5b5f82905081811115610ccc578190505b5f8111610d0e576040517f08c379a0000000000000000000000000000000000000000000000000000000008152600401610d059061250d565b60405180910390fd5b5f73ffffffffffffffffffffffffffffffffffffffff1660055f9054906101000a900473ffffffffffffffffffffffffffffffffffffffff1673ffffffffffffffffffffffffffffffffffffffff16146113c05760055f9054906101000a900473ffffffffffffffffffffffffffffffffffffffff1673ffffffffffffffffffffffffffffffffffffffff16631cb7ef3833835f6040518463ffffffff1660e01b8152600401610dc09392919061252b565b6020604051808303815f875af1158015610ddc573d5f5f3e3d5ffd5b505050506040513d601f19601f82011682018060405250810190610e009190612574565b90505f73ffffffffffffffffffffffffffffffffffffffff1660055f9054906101000a900473ffffffffffffffffffffffffffffffffffffffff1673ffffffffffffffffffffffffffffffffffffffff1614158015610ef4575060055f9054906101000a900473ffffffffffffffffffffffffffffffffffffffff1673ffffffffffffffffffffffffffffffffffffffff1663a3fd7ae3336040518263ffffffff1660e01b8152600401610eb49190611f90565b602060405180830381865afa158015610ecf573d5f5f3e3d5ffd5b505050506040513d601f19601f82011682018060405250810190610ef391906125c9565b5b15610f4757836004015f9054906101000a900460ff1615610f46575f846004015f6101000a81548160ff021916908315150217905550835f015460085f828254610f3e919061222b565b925050819055505b5b5f8111610f89576040517f08c379a0000000000000000000000000000000000000000000000000000000008152600401610f809061263e565b60405180910390fd5b80846001015f828254610f9c91906121f8565b9250508190555080846002015f828254610fb691906121f8565b925050819055508060075f828254610fce91906121f8565b925050819055504284600301819055505f73ffffffffffffffffffffffffffffffffffffffff1660045f9054906101000a900473ffffffffffffffffffffffffffffffffffffffff1673ffffffffffffffffffffffffffffffffffffffff160361106d576040517f08c379a0000000000000000000000000000000000000000000000000000000008152600401611064906126a6565b60405180910390fd5b60045f9054906101000a900473ffffffffffffffffffffffffffffffffffffffff1673ffffffffffffffffffffffffffffffffffffffff1663a7589d2133836040518363ffffffff1660e01b81526004016110c99291906126c4565b5f604051808303815f87803b1580156110e0575f5ffd5b505af11580156110f2573d5f5f3e3d5ffd5b505050505f73ffffffffffffffffffffffffffffffffffffffff1660035f9054906101000a900473ffffffffffffffffffffffffffffffffffffffff1673ffffffffffffffffffffffffffffffffffffffff161461125d5760035f9054906101000a900473ffffffffffffffffffffffffffffffffffffffff1673ffffffffffffffffffffffffffffffffffffffff1663847736ad33836040518363ffffffff1660e01b81526004016111a69291906126c4565b5f604051808303815f87803b1580156111bd575f5ffd5b505af11580156111cf573d5f5f3e3d5ffd5b5050505060035f9054906101000a900473ffffffffffffffffffffffffffffffffffffffff1673ffffffffffffffffffffffffffffffffffffffff1663beaa740c33836040518363ffffffff1660e01b815260040161122f9291906126c4565b5f604051808303815f87803b158015611246575f5ffd5b505af1158015611258573d5f5f3e3d5ffd5b505050505b5f600390505f73ffffffffffffffffffffffffffffffffffffffff1660035f9054906101000a900473ffffffffffffffffffffffffffffffffffffffff1673ffffffffffffffffffffffffffffffffffffffff16146113525760035f9054906101000a900473ffffffffffffffffffffffffffffffffffffffff1673ffffffffffffffffffffffffffffffffffffffff166357a0eb36336040518263ffffffff1660e01b81526004016113109190611f90565b602060405180830381865afa15801561132b573d5f5f3e3d5ffd5b505050506040513d601f19601f8201168201806040525081019061134f9190612574565b90505b5f81865f015461136291906126eb565b9050808660020154106113bd57856004015f9054906101000a900460ff16156113bc575f866004015f6101000a81548160ff021916908315150217905550855f015460085f8282546113b4919061222b565b925050819055505b5b50505b50505050565b60015f9054906101000a900473ffffffffffffffffffffffffffffffffffffffff1681565b5f5f62015180426113fc919061228b565b90506009548111156114fb575f73ffffffffffffffffffffffffffffffffffffffff1660045f9054906101000a900473ffffffffffffffffffffffffffffffffffffffff1673ffffffffffffffffffffffffffffffffffffffff1603611465575f91505061150f565b60045f9054906101000a900473ffffffffffffffffffffffffffffffffffffffff1673ffffffffffffffffffffffffffffffffffffffff16639c6f4bb76040518163ffffffff1660e01b8152600401602060405180830381865afa1580156114cf573d5f5f3e3d5ffd5b505050506040513d601f19601f820116820180604052508101906114f39190612574565b91505061150f565b60075460065461150b919061222b565b9150505b90565b5f5f600a5f8473ffffffffffffffffffffffffffffffffffffffff1673ffffffffffffffffffffffffffffffffffffffff1681526020019081526020015f206040518060a00160405290815f8201548152602001600182015481526020016002820154815260200160038201548152602001600482015f9054906101000a900460ff161515151581525050905080608001516115e3576040517f08c379a00000000000000000000000000000000000000000000000000000000081526004016115da906121ad565b60405180910390fd5b5f620151808260600151426115f8919061222b565b611602919061228b565b90505f61160d611645565b90505f6127108383865f015161162391906126eb565b61162d91906126eb565b611637919061228b565b905080945050505050919050565b5f5f60085403611657575f9050611784565b5f73ffffffffffffffffffffffffffffffffffffffff1660045f9054906101000a900473ffffffffffffffffffffffffffffffffffffffff1673ffffffffffffffffffffffffffffffffffffffff16036116b3575f9050611784565b5f60045f9054906101000a900473ffffffffffffffffffffffffffffffffffffffff1673ffffffffffffffffffffffffffffffffffffffff16639c6f4bb76040518163ffffffff1660e01b8152600401602060405180830381865afa15801561171e573d5f5f3e3d5ffd5b505050506040513d601f19601f820116820180604052508101906117429190612574565b90505f6008546127108361175691906126eb565b611760919061228b565b9050606481111561177057606490505b600a81101561177e57600a90505b80925050505b90565b60015f9054906101000a900473ffffffffffffffffffffffffffffffffffffffff1673ffffffffffffffffffffffffffffffffffffffff163373ffffffffffffffffffffffffffffffffffffffff1614611816576040517f08c379a000000000000000000000000000000000000000000000000000000000815260040161180d9061236d565b60405180910390fd5b5f73ffffffffffffffffffffffffffffffffffffffff168173ffffffffffffffffffffffffffffffffffffffff1603611884576040517f08c379a000000000000000000000000000000000000000000000000000000000815260040161187b90612776565b60405180910390fd5b8060025f6101000a81548173ffffffffffffffffffffffffffffffffffffffff021916908373ffffffffffffffffffffffffffffffffffffffff16021790555050565b60095481565b5f5f9054906101000a900473ffffffffffffffffffffffffffffffffffffffff1681565b60015f9054906101000a900473ffffffffffffffffffffffffffffffffffffffff1673ffffffffffffffffffffffffffffffffffffffff163373ffffffffffffffffffffffffffffffffffffffff1614611980576040517f08c379a00000000000000000000000000000000000000000000000000000000081526004016119779061236d565b60405180910390fd5b5f73ffffffffffffffffffffffffffffffffffffffff168173ffffffffffffffffffffffffffffffffffffffff16036119ee576040517f08c379a00000000000000000000000000000000000000000000000000000000081526004016119e5906127de565b60405180910390fd5b8060035f6101000a81548173ffffffffffffffffffffffffffffffffffffffff021916908373ffffffffffffffffffffffffffffffffffffffff16021790555050565b60025f9054906101000a900473ffffffffffffffffffffffffffffffffffffffff1681565b60015f9054906101000a900473ffffffffffffffffffffffffffffffffffffffff1673ffffffffffffffffffffffffffffffffffffffff163373ffffffffffffffffffffffffffffffffffffffff1614611ae5576040517f08c379a0000000000000000000000000000000000000000000000000000000008152600401611adc9061236d565b60405180910390fd5b5f73ffffffffffffffffffffffffffffffffffffffff168173ffffffffffffffffffffffffffffffffffffffff1603611b53576040517f08c379a0000000000000000000000000000000000000000000000000000000008152600401611b4a90612846565b60405180910390fd5b8060045f6101000a81548173ffffffffffffffffffffffffffffffffffffffff021916908373ffffffffffffffffffffffffffffffffffffffff16021790555050565b60075481565b60055f9054906101000a900473ffffffffffffffffffffffffffffffffffffffff1681565b5f6201518042611bd1919061228b565b9050600954811115611d0f575f73ffffffffffffffffffffffffffffffffffffffff1660045f9054906101000a900473ffffffffffffffffffffffffffffffffffffffff1673ffffffffffffffffffffffffffffffffffffffff1603611c6c576040517f08c379a0000000000000000000000000000000000000000000000000000000008152600401611c63906126a6565b60405180910390fd5b60045f9054906101000a900473ffffffffffffffffffffffffffffffffffffffff1673ffffffffffffffffffffffffffffffffffffffff16639c6f4bb76040518163ffffffff1660e01b8152600401602060405180830381865afa158015611cd6573d5f5f3e3d5ffd5b505050506040513d601f19601f82011682018060405250810190611cfa9190612574565b6006819055505f600781905550806009819055505b50565b5f5ffd5b5f73ffffffffffffffffffffffffffffffffffffffff82169050919050565b5f611d3f82611d16565b9050919050565b611d4f81611d35565b8114611d59575f5ffd5b50565b5f81359050611d6a81611d46565b92915050565b5f819050919050565b611d8281611d70565b8114611d8c575f5ffd5b50565b5f81359050611d9d81611d79565b92915050565b5f5f60408385031215611db957611db8611d12565b5b5f611dc685828601611d5c565b9250506020611dd785828601611d8f565b9150509250929050565b611dea81611d70565b82525050565b5f602082019050611e035f830184611de1565b92915050565b5f60208284031215611e1e57611e1d611d12565b5b5f611e2b84828501611d5c565b91505092915050565b5f606082019050611e475f830186611de1565b611e546020830185611de1565b611e616040830184611de1565b949350505050565b5f8115159050919050565b611e7d81611e69565b82525050565b5f60a082019050611e965f830188611de1565b611ea36020830187611de1565b611eb06040830186611de1565b611ebd6060830185611de1565b611eca6080830184611e74565b9695505050505050565b5f819050919050565b5f611ef7611ef2611eed84611d16565b611ed4565b611d16565b9050919050565b5f611f0882611edd565b9050919050565b5f611f1982611efe565b9050919050565b611f2981611f0f565b82525050565b5f602082019050611f425f830184611f20565b92915050565b5f611f5282611efe565b9050919050565b611f6281611f48565b82525050565b5f602082019050611f7b5f830184611f59565b92915050565b611f8a81611d35565b82525050565b5f602082019050611fa35f830184611f81565b92915050565b5f611fb382611efe565b9050919050565b611fc381611fa9565b82525050565b5f602082019050611fdc5f830184611fba565b92915050565b5f611fec82611efe565b9050919050565b611ffc81611fe2565b82525050565b5f6020820190506120155f830184611ff3565b92915050565b5f82825260208201905092915050565b7f4f6e6c7920636f726520636f6e747261637400000000000000000000000000005f82015250565b5f61205f60128361201b565b915061206a8261202b565b602082019050919050565b5f6020820190508181035f83015261208c81612053565b9050919050565b7f496e76616c6964207573657200000000000000000000000000000000000000005f82015250565b5f6120c7600c8361201b565b91506120d282612093565b602082019050919050565b5f6020820190508181035f8301526120f4816120bb565b9050919050565b7f496e76616c6964207072696e636970616c0000000000000000000000000000005f82015250565b5f61212f60118361201b565b915061213a826120fb565b602082019050919050565b5f6020820190508181035f83015261215c81612123565b9050919050565b7f524f49206e6f74206163746976650000000000000000000000000000000000005f82015250565b5f612197600e8361201b565b91506121a282612163565b602082019050919050565b5f6020820190508181035f8301526121c48161218b565b9050919050565b7f4e487b71000000000000000000000000000000000000000000000000000000005f52601160045260245ffd5b5f61220282611d70565b915061220d83611d70565b9250828201905080821115612225576122246121cb565b5b92915050565b5f61223582611d70565b915061224083611d70565b9250828203905081811115612258576122576121cb565b5b92915050565b7f4e487b71000000000000000000000000000000000000000000000000000000005f52601260045260245ffd5b5f61229582611d70565b91506122a083611d70565b9250826122b0576122af61225e565b5b828204905092915050565b7f524f4920616c72656164792061637469766500000000000000000000000000005f82015250565b5f6122ef60128361201b565b91506122fa826122bb565b602082019050919050565b5f6020820190508181035f83015261231c816122e3565b9050919050565b7f4f6e6c79206f776e6572000000000000000000000000000000000000000000005f82015250565b5f612357600a8361201b565b915061236282612323565b602082019050919050565b5f6020820190508181035f8301526123848161234b565b9050919050565b7f496e76616c696420696e636f6d65206d616e61676572000000000000000000005f82015250565b5f6123bf60168361201b565b91506123ca8261238b565b602082019050919050565b5f6020820190508181035f8301526123ec816123b3565b9050919050565b7f4e6f20524f4920617661696c61626c65000000000000000000000000000000005f82015250565b5f61242760108361201b565b9150612432826123f3565b602082019050919050565b5f6020820190508181035f8301526124548161241b565b9050919050565b7f4461696c7920524f4920627564676574206578686175737465640000000000005f82015250565b5f61248f601a8361201b565b915061249a8261245b565b602082019050919050565b5f6020820190508181035f8301526124bc81612483565b9050919050565b7f4e6f2070617961626c6520524f490000000000000000000000000000000000005f82015250565b5f6124f7600e8361201b565b9150612502826124c3565b602082019050919050565b5f6020820190508181035f830152612524816124eb565b9050919050565b5f60608201905061253e5f830186611f81565b61254b6020830185611de1565b6125586040830184611e74565b949350505050565b5f8151905061256e81611d79565b92915050565b5f6020828403121561258957612588611d12565b5b5f61259684828501612560565b91505092915050565b6125a881611e69565b81146125b2575f5ffd5b50565b5f815190506125c38161259f565b92915050565b5f602082840312156125de576125dd611d12565b5b5f6125eb848285016125b5565b91505092915050565b7f546f74616c20696e636f6d6520636170207265616368656400000000000000005f82015250565b5f61262860188361201b565b9150612633826125f4565b602082019050919050565b5f6020820190508181035f8301526126558161261c565b9050919050565b7f5472656173757279206e6f7420736574000000000000000000000000000000005f82015250565b5f61269060108361201b565b915061269b8261265c565b602082019050919050565b5f6020820190508181035f8301526126bd81612684565b9050919050565b5f6040820190506126d75f830185611f81565b6126e46020830184611de1565b9392505050565b5f6126f582611d70565b915061270083611d70565b925082820261270e81611d70565b91508282048414831517612725576127246121cb565b5b5092915050565b7f496e76616c696420636f726520636f6e747261637400000000000000000000005f82015250565b5f61276060158361201b565b915061276b8261272c565b602082019050919050565b5f6020820190508181035f83015261278d81612754565b9050919050565b7f496e76616c69642072616e6b20726577617264000000000000000000000000005f82015250565b5f6127c860138361201b565b91506127d382612794565b602082019050919050565b5f6020820190508181035f8301526127f5816127bc565b9050919050565b7f496e76616c6964207472656173757279000000000000000000000000000000005f82015250565b5f61283060108361201b565b915061283b826127fc565b602082019050919050565b5f6020820190508181035f83015261285d81612824565b905091905056fea26469706673582212200b0b2b947d172957f1d34e92c7a4a48638726596b8b926d00263e3659a273cf864736f6c634300081c0033",
  "linkReferences": {},
  "deployedLinkReferences": {},
  "immutableReferences": {},
  "inputSourceName": "project/contracts/InterdependentReward.sol",
  "buildInfoId": "solc-0_8_28-4d0a6e878d260864fad31de663c84df3cff5f41d"
}