{
  "_format": "hh3-artifact-1",
  "contractName": "TreasuryManager",
  "sourceName": "contracts/TreasuryManager.sol",
  "abi": [
    {
      "inputs": [
        {
          "internalType": "address",
          "name": "_btcbToken",
          "type": "address"
        }
      ],
      "stateMutability": "nonpayable",
      "type": "constructor"
    },
    {
      "inputs": [],
      "name": "ReentrancyGuardReentrantCall",
      "type": "error"
    },
    {
      "inputs": [
        {
          "internalType": "address",
          "name": "token",
          "type": "address"
        }
      ],
      "name": "SafeERC20FailedOperation",
      "type": "error"
    },
    {
      "anonymous": false,
      "inputs": [
        {
          "indexed": true,
          "internalType": "address",
          "name": "wallet",
          "type": "address"
        },
        {
          "indexed": false,
          "internalType": "uint256",
          "name": "amount",
          "type": "uint256"
        }
      ],
      "name": "CharityFundsTransferred",
      "type": "event"
    },
    {
      "anonymous": false,
      "inputs": [
        {
          "indexed": true,
          "internalType": "address",
          "name": "charityWallet",
          "type": "address"
        }
      ],
      "name": "CharityWalletUpdated",
      "type": "event"
    },
    {
      "anonymous": false,
      "inputs": [
        {
          "indexed": true,
          "internalType": "address",
          "name": "user",
          "type": "address"
        },
        {
          "indexed": false,
          "internalType": "uint256",
          "name": "amount",
          "type": "uint256"
        }
      ],
      "name": "CommunityBuilderPaid",
      "type": "event"
    },
    {
      "anonymous": false,
      "inputs": [
        {
          "indexed": true,
          "internalType": "address",
          "name": "communityBuilder",
          "type": "address"
        }
      ],
      "name": "CommunityBuilderUpdated",
      "type": "event"
    },
    {
      "anonymous": false,
      "inputs": [
        {
          "indexed": false,
          "internalType": "uint256",
          "name": "amount",
          "type": "uint256"
        },
        {
          "indexed": false,
          "internalType": "uint256",
          "name": "regenerationAmount",
          "type": "uint256"
        },
        {
          "indexed": false,
          "internalType": "uint256",
          "name": "interdependentAmount",
          "type": "uint256"
        },
        {
          "indexed": false,
          "internalType": "uint256",
          "name": "reserveAmount",
          "type": "uint256"
        },
        {
          "indexed": false,
          "internalType": "uint256",
          "name": "communityAmount",
          "type": "uint256"
        },
        {
          "indexed": false,
          "internalType": "uint256",
          "name": "workingAmount",
          "type": "uint256"
        }
      ],
      "name": "ContributionProcessed",
      "type": "event"
    },
    {
      "anonymous": false,
      "inputs": [
        {
          "indexed": true,
          "internalType": "address",
          "name": "coreContract",
          "type": "address"
        }
      ],
      "name": "CoreContractUpdated",
      "type": "event"
    },
    {
      "anonymous": false,
      "inputs": [
        {
          "indexed": true,
          "internalType": "address",
          "name": "previousOwner",
          "type": "address"
        },
        {
          "indexed": true,
          "internalType": "address",
          "name": "newOwner",
          "type": "address"
        }
      ],
      "name": "OwnershipTransferred",
      "type": "event"
    },
    {
      "anonymous": false,
      "inputs": [
        {
          "indexed": true,
          "internalType": "address",
          "name": "wallet",
          "type": "address"
        },
        {
          "indexed": false,
          "internalType": "uint256",
          "name": "amount",
          "type": "uint256"
        }
      ],
      "name": "RegenerationFundsTransferred",
      "type": "event"
    },
    {
      "anonymous": false,
      "inputs": [
        {
          "indexed": true,
          "internalType": "address",
          "name": "regenerationWallet",
          "type": "address"
        }
      ],
      "name": "RegenerationWalletUpdated",
      "type": "event"
    },
    {
      "anonymous": false,
      "inputs": [
        {
          "indexed": true,
          "internalType": "address",
          "name": "to",
          "type": "address"
        },
        {
          "indexed": false,
          "internalType": "uint256",
          "name": "amount",
          "type": "uint256"
        }
      ],
      "name": "ReserveFundsWithdrawn",
      "type": "event"
    },
    {
      "anonymous": false,
      "inputs": [
        {
          "indexed": true,
          "internalType": "address",
          "name": "rewardContract",
          "type": "address"
        }
      ],
      "name": "RewardContractUpdated",
      "type": "event"
    },
    {
      "anonymous": false,
      "inputs": [
        {
          "indexed": true,
          "internalType": "address",
          "name": "user",
          "type": "address"
        },
        {
          "indexed": false,
          "internalType": "uint256",
          "name": "amount",
          "type": "uint256"
        }
      ],
      "name": "SelfRoiPaid",
      "type": "event"
    },
    {
      "anonymous": false,
      "inputs": [
        {
          "indexed": true,
          "internalType": "address",
          "name": "user",
          "type": "address"
        },
        {
          "indexed": false,
          "internalType": "uint256",
          "name": "amount",
          "type": "uint256"
        }
      ],
      "name": "WorkingIncomePaid",
      "type": "event"
    },
    {
      "anonymous": false,
      "inputs": [
        {
          "indexed": true,
          "internalType": "address",
          "name": "payer",
          "type": "address"
        },
        {
          "indexed": false,
          "internalType": "bool",
          "name": "status",
          "type": "bool"
        }
      ],
      "name": "WorkingPayerUpdated",
      "type": "event"
    },
    {
      "inputs": [],
      "name": "COMMUNITY_BPS",
      "outputs": [
        {
          "internalType": "uint256",
          "name": "",
          "type": "uint256"
        }
      ],
      "stateMutability": "view",
      "type": "function"
    },
    {
      "inputs": [],
      "name": "INTERDEPENDENT_BPS",
      "outputs": [
        {
          "internalType": "uint256",
          "name": "",
          "type": "uint256"
        }
      ],
      "stateMutability": "view",
      "type": "function"
    },
    {
      "inputs": [],
      "name": "REGENERATION_BPS",
      "outputs": [
        {
          "internalType": "uint256",
          "name": "",
          "type": "uint256"
        }
      ],
      "stateMutability": "view",
      "type": "function"
    },
    {
      "inputs": [],
      "name": "RESERVE_BPS",
      "outputs": [
        {
          "internalType": "uint256",
          "name": "",
          "type": "uint256"
        }
      ],
      "stateMutability": "view",
      "type": "function"
    },
    {
      "inputs": [],
      "name": "WORKING_BPS",
      "outputs": [
        {
          "internalType": "uint256",
          "name": "",
          "type": "uint256"
        }
      ],
      "stateMutability": "view",
      "type": "function"
    },
    {
      "inputs": [],
      "name": "btcbToken",
      "outputs": [
        {
          "internalType": "contract IERC20",
          "name": "",
          "type": "address"
        }
      ],
      "stateMutability": "view",
      "type": "function"
    },
    {
      "inputs": [],
      "name": "charityFundBalance",
      "outputs": [
        {
          "internalType": "uint256",
          "name": "",
          "type": "uint256"
        }
      ],
      "stateMutability": "view",
      "type": "function"
    },
    {
      "inputs": [],
      "name": "charityWallet",
      "outputs": [
        {
          "internalType": "address",
          "name": "",
          "type": "address"
        }
      ],
      "stateMutability": "view",
      "type": "function"
    },
    {
      "inputs": [],
      "name": "communityBuilderContract",
      "outputs": [
        {
          "internalType": "address",
          "name": "",
          "type": "address"
        }
      ],
      "stateMutability": "view",
      "type": "function"
    },
    {
      "inputs": [],
      "name": "communityBuilderFundBalance",
      "outputs": [
        {
          "internalType": "uint256",
          "name": "",
          "type": "uint256"
        }
      ],
      "stateMutability": "view",
      "type": "function"
    },
    {
      "inputs": [],
      "name": "coreContract",
      "outputs": [
        {
          "internalType": "address",
          "name": "",
          "type": "address"
        }
      ],
      "stateMutability": "view",
      "type": "function"
    },
    {
      "inputs": [],
      "name": "getAvailableDailyRoiBudget",
      "outputs": [
        {
          "internalType": "uint256",
          "name": "",
          "type": "uint256"
        }
      ],
      "stateMutability": "view",
      "type": "function"
    },
    {
      "inputs": [],
      "name": "interdependentFundBalance",
      "outputs": [
        {
          "internalType": "uint256",
          "name": "",
          "type": "uint256"
        }
      ],
      "stateMutability": "view",
      "type": "function"
    },
    {
      "inputs": [],
      "name": "owner",
      "outputs": [
        {
          "internalType": "address",
          "name": "",
          "type": "address"
        }
      ],
      "stateMutability": "view",
      "type": "function"
    },
    {
      "inputs": [
        {
          "internalType": "address",
          "name": "user",
          "type": "address"
        },
        {
          "internalType": "uint256",
          "name": "amount",
          "type": "uint256"
        }
      ],
      "name": "payCommunityBuilder",
      "outputs": [],
      "stateMutability": "nonpayable",
      "type": "function"
    },
    {
      "inputs": [
        {
          "internalType": "address",
          "name": "user",
          "type": "address"
        },
        {
          "internalType": "uint256",
          "name": "amount",
          "type": "uint256"
        }
      ],
      "name": "paySelfRoi",
      "outputs": [],
      "stateMutability": "nonpayable",
      "type": "function"
    },
    {
      "inputs": [
        {
          "internalType": "address",
          "name": "user",
          "type": "address"
        },
        {
          "internalType": "uint256",
          "name": "amount",
          "type": "uint256"
        }
      ],
      "name": "payWorkingIncome",
      "outputs": [],
      "stateMutability": "nonpayable",
      "type": "function"
    },
    {
      "inputs": [
        {
          "internalType": "uint256",
          "name": "amount",
          "type": "uint256"
        }
      ],
      "name": "processContribution",
      "outputs": [],
      "stateMutability": "nonpayable",
      "type": "function"
    },
    {
      "inputs": [],
      "name": "regenerationFundBalance",
      "outputs": [
        {
          "internalType": "uint256",
          "name": "",
          "type": "uint256"
        }
      ],
      "stateMutability": "view",
      "type": "function"
    },
    {
      "inputs": [],
      "name": "regenerationWallet",
      "outputs": [
        {
          "internalType": "address",
          "name": "",
          "type": "address"
        }
      ],
      "stateMutability": "view",
      "type": "function"
    },
    {
      "inputs": [],
      "name": "reserveFundBalance",
      "outputs": [
        {
          "internalType": "uint256",
          "name": "",
          "type": "uint256"
        }
      ],
      "stateMutability": "view",
      "type": "function"
    },
    {
      "inputs": [],
      "name": "rewardContract",
      "outputs": [
        {
          "internalType": "address",
          "name": "",
          "type": "address"
        }
      ],
      "stateMutability": "view",
      "type": "function"
    },
    {
      "inputs": [
        {
          "internalType": "address",
          "name": "_wallet",
          "type": "address"
        }
      ],
      "name": "setCharityWallet",
      "outputs": [],
      "stateMutability": "nonpayable",
      "type": "function"
    },
    {
      "inputs": [
        {
          "internalType": "address",
          "name": "_communityBuilderContract",
          "type": "address"
        }
      ],
      "name": "setCommunityBuilderContract",
      "outputs": [],
      "stateMutability": "nonpayable",
      "type": "function"
    },
    {
      "inputs": [
        {
          "internalType": "address",
          "name": "_coreContract",
          "type": "address"
        }
      ],
      "name": "setCoreContract",
      "outputs": [],
      "stateMutability": "nonpayable",
      "type": "function"
    },
    {
      "inputs": [
        {
          "internalType": "address",
          "name": "_wallet",
          "type": "address"
        }
      ],
      "name": "setRegenerationWallet",
      "outputs": [],
      "stateMutability": "nonpayable",
      "type": "function"
    },
    {
      "inputs": [
        {
          "internalType": "address",
          "name": "_rewardContract",
          "type": "address"
        }
      ],
      "name": "setRewardContract",
      "outputs": [],
      "stateMutability": "nonpayable",
      "type": "function"
    },
    {
      "inputs": [
        {
          "internalType": "address",
          "name": "payer",
          "type": "address"
        },
        {
          "internalType": "bool",
          "name": "status",
          "type": "bool"
        }
      ],
      "name": "setWorkingPayer",
      "outputs": [],
      "stateMutability": "nonpayable",
      "type": "function"
    },
    {
      "inputs": [],
      "name": "totalCharityPaid",
      "outputs": [
        {
          "internalType": "uint256",
          "name": "",
          "type": "uint256"
        }
      ],
      "stateMutability": "view",
      "type": "function"
    },
    {
      "inputs": [],
      "name": "totalCommunityPaid",
      "outputs": [
        {
          "internalType": "uint256",
          "name": "",
          "type": "uint256"
        }
      ],
      "stateMutability": "view",
      "type": "function"
    },
    {
      "inputs": [],
      "name": "totalRegenerationPaid",
      "outputs": [
        {
          "internalType": "uint256",
          "name": "",
          "type": "uint256"
        }
      ],
      "stateMutability": "view",
      "type": "function"
    },
    {
      "inputs": [],
      "name": "totalReserveWithdrawn",
      "outputs": [
        {
          "internalType": "uint256",
          "name": "",
          "type": "uint256"
        }
      ],
      "stateMutability": "view",
      "type": "function"
    },
    {
      "inputs": [],
      "name": "totalSelfRoiPaid",
      "outputs": [
        {
          "internalType": "uint256",
          "name": "",
          "type": "uint256"
        }
      ],
      "stateMutability": "view",
      "type": "function"
    },
    {
      "inputs": [],
      "name": "totalWorkingIncomePaid",
      "outputs": [
        {
          "internalType": "uint256",
          "name": "",
          "type": "uint256"
        }
      ],
      "stateMutability": "view",
      "type": "function"
    },
    {
      "inputs": [
        {
          "internalType": "uint256",
          "name": "amount",
          "type": "uint256"
        }
      ],
      "name": "transferCharityFunds",
      "outputs": [],
      "stateMutability": "nonpayable",
      "type": "function"
    },
    {
      "inputs": [
        {
          "internalType": "address",
          "name": "newOwner",
          "type": "address"
        }
      ],
      "name": "transferOwnership",
      "outputs": [],
      "stateMutability": "nonpayable",
      "type": "function"
    },
    {
      "inputs": [
        {
          "internalType": "uint256",
          "name": "amount",
          "type": "uint256"
        }
      ],
      "name": "transferRegenerationFunds",
      "outputs": [],
      "stateMutability": "nonpayable",
      "type": "function"
    },
    {
      "inputs": [
        {
          "internalType": "address",
          "name": "to",
          "type": "address"
        },
        {
          "internalType": "uint256",
          "name": "amount",
          "type": "uint256"
        }
      ],
      "name": "withdrawReserve",
      "outputs": [],
      "stateMutability": "nonpayable",
      "type": "function"
    },
    {
      "inputs": [],
      "name": "workingFundBalance",
      "outputs": [
        {
          "internalType": "uint256",
          "name": "",
          "type": "uint256"
        }
      ],
      "stateMutability": "view",
      "type": "function"
    },
    {
      "inputs": [
        {
          "internalType": "address",
          "name": "",
          "type": "address"
        }
      ],
      "name": "workingPayers",
      "outputs": [
        {
          "internalType": "bool",
          "name": "",
          "type": "bool"
        }
      ],
      "stateMutability": "view",
      "type": "function"
    }
  ],
  "bytecode": "0x608060405234801561000f575f5ffd5b5060405161190638038061190683398101604081905261002e916100d3565b60017f9b779b17422d0df92223018b32b4d1fa46e071723d6817e2486d003becc55f00556001600160a01b0381166100a15760405162461bcd60e51b815260206004820152601260248201527124b73b30b634b210212a21a1103a37b5b2b760711b604482015260640160405180910390fd5b60018054336001600160a01b0319918216179091555f80549091166001600160a01b0392909216919091179055610100565b5f602082840312156100e3575f5ffd5b81516001600160a01b03811681146100f9575f5ffd5b9392505050565b6117f98061010d5f395ff3fe608060405234801561000f575f5ffd5b506004361061023f575f3560e01c80639155922311610135578063c6104683116100b4578063da795fa411610079578063da795fa41461047c578063de9a7e191461048f578063e41dc9f8146104a1578063e80db5db146104aa578063f2fde38b146104bd575f5ffd5b8063c610468314610431578063c62666931461043a578063d09270c01461044d578063d5f7e0c514610460578063d8f828d414610473575f5ffd5b8063a7589d21116100fa578063a7589d21146103f1578063a9cbaf8714610404578063ad71cede1461040c578063b23b408d1461041f578063b78cdc2d14610428575f5ffd5b806391559223146103b15780639c6f4bb7146103ba578063a3baf0f7146103c2578063a3ca167b146103d5578063a69fe0dd146103e8575f5ffd5b80634c4e7331116101c15780637b208769116101865780637b2087691461037057806381aca37c1461038357806387bffd591461038c5780638cd2b1e8146103955780638da5cb5b1461039e575f5ffd5b80634c4e7331146102e457806351508f0a146102ed57806365a80872146103005780636ea69d62146103135780636f01a0cb1461033e575f5ffd5b806327c4da611161020757806327c4da6114610299578063281a00c0146102ac57806330563bd7146102b55780633bbf9b96146102c85780634b74830c146102db575f5ffd5b80630a36ab9a146102435780630d557a5a1461025f5780631c58ce14146102745780632107497314610287578063229a4dc614610290575b5f5ffd5b61024c610fa081565b6040519081526020015b60405180910390f35b61027261026d366004611623565b6104d0565b005b610272610282366004611643565b6105a2565b61024c600a5481565b61024c60135481565b6102726102a7366004611623565b610711565b61024c60125481565b6102726102c3366004611623565b6107cb565b6102726102d6366004611643565b610885565b61024c6109c481565b61024c600e5481565b6102726102fb366004611623565b610a01565b61027261030e36600461166b565b610aca565b600354610326906001600160a01b031681565b6040516001600160a01b039091168152602001610256565b61036061034c366004611623565b60076020525f908152604090205460ff1681565b6040519015158152602001610256565b600554610326906001600160a01b031681565b61024c600d5481565b61024c600c5481565b61024c600f5481565b600154610326906001600160a01b031681565b61024c600b5481565b61024c610c4c565b6102726103d0366004611643565b610c6d565b600654610326906001600160a01b031681565b61024c60095481565b6102726103ff366004611643565b610dde565b61024c60c881565b61027261041a36600461166b565b610f4d565b61024c60105481565b61024c610bb881565b61024c60115481565b610272610448366004611623565b6110ab565b61027261045b36600461166b565b61116c565b61027261046e366004611682565b611387565b61024c60085481565b600454610326906001600160a01b031681565b5f54610326906001600160a01b031681565b61024c61012c81565b600254610326906001600160a01b031681565b6102726104cb366004611623565b611455565b6001546001600160a01b031633146105035760405162461bcd60e51b81526004016104fa906116bb565b60405180910390fd5b6001600160a01b0381166105595760405162461bcd60e51b815260206004820152601960248201527f496e76616c696420636f6d6d756e697479206275696c6465720000000000000060448201526064016104fa565b600480546001600160a01b0319166001600160a01b0383169081179091556040517fe9b708eb821ae88fb46252e3bc0cdab1cf2a5c28fa79eeeeeb937dce61aa5dd8905f90a250565b6001546001600160a01b031633146105cc5760405162461bcd60e51b81526004016104fa906116bb565b6105d4611520565b6001600160a01b03821661061e5760405162461bcd60e51b8152602060048201526011602482015270125b9d985b1a59081c9958da5c1a595b9d607a1b60448201526064016104fa565b8060095410156106705760405162461bcd60e51b815260206004820152601960248201527f496e73756666696369656e7420726573657276652066756e640000000000000060448201526064016104fa565b8060095f82825461068191906116f3565b925050819055508060135f828254610699919061170c565b90915550505f546106b4906001600160a01b0316838361153b565b816001600160a01b03167fb2ec21fe3d11cff4bff87e9adc53f8b47dc849485c0496c028b3e064388f02be826040516106ef91815260200190565b60405180910390a261070d60015f5160206117a45f395f51905f5255565b5050565b6001546001600160a01b0316331461073b5760405162461bcd60e51b81526004016104fa906116bb565b6001600160a01b0381166107825760405162461bcd60e51b815260206004820152600e60248201526d125b9d985b1a59081dd85b1b195d60921b60448201526064016104fa565b600680546001600160a01b0319166001600160a01b0383169081179091556040517f5af1367bae9638243d6a2b8158160d83ad29c431d2f0f520d2bda0b077df2686905f90a250565b6001546001600160a01b031633146107f55760405162461bcd60e51b81526004016104fa906116bb565b6001600160a01b03811661083c5760405162461bcd60e51b815260206004820152600e60248201526d125b9d985b1a59081dd85b1b195d60921b60448201526064016104fa565b600580546001600160a01b0319166001600160a01b0383169081179091556040517fff763cea965591c124e55235c2c38f8649b61ebfb9381b1925e0cc822f255298905f90a250565b61088d611520565b335f9081526007602052604090205460ff166108eb5760405162461bcd60e51b815260206004820152601c60248201527f4e6f7420617574686f72697a656420776f726b696e672070617965720000000060448201526064016104fa565b6001600160a01b0382166109115760405162461bcd60e51b81526004016104fa9061171f565b5f81116109305760405162461bcd60e51b81526004016104fa90611745565b80600c5410156109825760405162461bcd60e51b815260206004820152601960248201527f496e73756666696369656e7420776f726b696e672066756e640000000000000060448201526064016104fa565b80600c5f82825461099391906116f3565b9250508190555080600f5f8282546109ab919061170c565b90915550505f546109c6906001600160a01b0316838361153b565b816001600160a01b03167f68d470beb73914748134148c799202c0b949e4d76e013119d0dc1624db31f78b826040516106ef91815260200190565b6001546001600160a01b03163314610a2b5760405162461bcd60e51b81526004016104fa906116bb565b6001600160a01b038116610a815760405162461bcd60e51b815260206004820152601760248201527f496e76616c69642072657761726420636f6e747261637400000000000000000060448201526064016104fa565b600380546001600160a01b0319166001600160a01b0383169081179091556040517f71c6147d8b22bcac5527821af8d1814be1445ab5beb7068e4a5f342827221e0e905f90a250565b6001546001600160a01b03163314610af45760405162461bcd60e51b81526004016104fa906116bb565b610afc611520565b6006546001600160a01b0316610b545760405162461bcd60e51b815260206004820152601b60248201527f526567656e65726174696f6e2077616c6c6574206e6f7420736574000000000060448201526064016104fa565b80600d541015610ba65760405162461bcd60e51b815260206004820152601e60248201527f496e73756666696369656e7420726567656e65726174696f6e2066756e64000060448201526064016104fa565b80600d5f828254610bb791906116f3565b925050819055508060125f828254610bcf919061170c565b90915550506006545f54610bf0916001600160a01b0391821691168361153b565b6006546040518281526001600160a01b03909116907fda6560128febd803b4da3c90322438e78cb7f581221b0804783520c115f5f253906020015b60405180910390a2610c4960015f5160206117a45f395f51905f5255565b50565b5f60646008546005610c5e919061176d565b610c689190611784565b905090565b610c75611520565b6004546001600160a01b03163314610cc85760405162461bcd60e51b815260206004820152601660248201527527b7363c9031b7b6b6bab734ba3c90313ab4b63232b960511b60448201526064016104fa565b6001600160a01b038216610cee5760405162461bcd60e51b81526004016104fa9061171f565b5f8111610d0d5760405162461bcd60e51b81526004016104fa90611745565b80600a541015610d5f5760405162461bcd60e51b815260206004820152601b60248201527f496e73756666696369656e7420636f6d6d756e6974792066756e64000000000060448201526064016104fa565b80600a5f828254610d7091906116f3565b925050819055508060105f828254610d88919061170c565b90915550505f54610da3906001600160a01b0316838361153b565b816001600160a01b03167fd6a493edc88a5968d99e646d50b6720e06f04f0438eb4105f78d9183f6b1651e826040516106ef91815260200190565b610de6611520565b6003546001600160a01b03163314610e375760405162461bcd60e51b815260206004820152601460248201527313db9b1e481c995dd85c990818dbdb9d1c9858dd60621b60448201526064016104fa565b6001600160a01b038216610e5d5760405162461bcd60e51b81526004016104fa9061171f565b5f8111610e7c5760405162461bcd60e51b81526004016104fa90611745565b806008541015610ece5760405162461bcd60e51b815260206004820181905260248201527f496e73756666696369656e7420696e746572646570656e64656e742066756e6460448201526064016104fa565b8060085f828254610edf91906116f3565b9250508190555080600e5f828254610ef7919061170c565b90915550505f54610f12906001600160a01b0316838361153b565b816001600160a01b03167ff18ba4284b4540d5f6d84af8d18b0e62570cfddd2430469888832376244aad3a826040516106ef91815260200190565b6001546001600160a01b03163314610f775760405162461bcd60e51b81526004016104fa906116bb565b610f7f611520565b6005546001600160a01b0316610fd05760405162461bcd60e51b815260206004820152601660248201527510da185c9a5d1e481dd85b1b195d081b9bdd081cd95d60521b60448201526064016104fa565b80600b5410156110225760405162461bcd60e51b815260206004820152601960248201527f496e73756666696369656e7420636861726974792066756e640000000000000060448201526064016104fa565b80600b5f82825461103391906116f3565b925050819055508060115f82825461104b919061170c565b90915550506005545f5461106c916001600160a01b0391821691168361153b565b6005546040518281526001600160a01b03909116907fa614ed064dea33a3216fb03645da81d54910cfddc33921f5a94460728781bfd090602001610c2b565b6001546001600160a01b031633146110d55760405162461bcd60e51b81526004016104fa906116bb565b6001600160a01b0381166111235760405162461bcd60e51b8152602060048201526015602482015274125b9d985b1a590818dbdc994818dbdb9d1c9858dd605a1b60448201526064016104fa565b600280546001600160a01b0319166001600160a01b0383169081179091556040517fb123bcd3d6124a115bda145c514c97efa40aa64417fbf5496835ca57b7991563905f90a250565b6002546001600160a01b031633146111bb5760405162461bcd60e51b815260206004820152601260248201527113db9b1e4818dbdc994818dbdb9d1c9858dd60721b60448201526064016104fa565b5f81116111da5760405162461bcd60e51b81526004016104fa90611745565b5f6127106111ea610bb88461176d565b6111f49190611784565b90505f6127106112066109c48561176d565b6112109190611784565b90505f61271061122261012c8661176d565b61122c9190611784565b90505f61271061123d60c88761176d565b6112479190611784565b90505f612710611259610fa08861176d565b6112639190611784565b90505f818385611273888a61170c565b61127d919061170c565b611287919061170c565b611291919061170c565b9050868110156112b2576112a581886116f3565b6112af908361170c565b91505b85600d5f8282546112c3919061170c565b925050819055508460085f8282546112db919061170c565b925050819055508360095f8282546112f3919061170c565b9250508190555082600a5f82825461130b919061170c565b9250508190555081600c5f828254611323919061170c565b90915550506040805188815260208101889052908101869052606081018590526080810184905260a081018390527f197648a38d423a53e06be0e170aaa95a6ac2b14eb6499b29326485ad4d2407789060c00160405180910390a150505050505050565b6001546001600160a01b031633146113b15760405162461bcd60e51b81526004016104fa906116bb565b6001600160a01b0382166113f75760405162461bcd60e51b815260206004820152600d60248201526c24b73b30b634b2103830bcb2b960991b60448201526064016104fa565b6001600160a01b0382165f81815260076020908152604091829020805460ff191685151590811790915591519182527f8a1c5ee5adba0ae4fefb2cebce5c0e9f1ccf0cfe1c9e5361cd6da44530654736910160405180910390a25050565b6001546001600160a01b0316331461147f5760405162461bcd60e51b81526004016104fa906116bb565b6001600160a01b0381166114c55760405162461bcd60e51b815260206004820152600d60248201526c24b73b30b634b21037bbb732b960991b60448201526064016104fa565b6001546040516001600160a01b038084169216907f8be0079c531659141344cd1fd0a4f28419497f9722a3daafe3b4186f6b6457e0905f90a3600180546001600160a01b0319166001600160a01b0392909216919091179055565b611528611575565b60025f5160206117a45f395f51905f5255565b61154883838360016115a6565b61157057604051635274afe760e01b81526001600160a01b03841660048201526024016104fa565b505050565b5f5160206117a45f395f51905f52546002036115a457604051633ee5aeb560e01b815260040160405180910390fd5b565b60405163a9059cbb60e01b5f8181526001600160a01b038616600452602485905291602083604481808b5af1925060015f511483166115fc5783831516156115f0573d5f823e3d81fd5b5f873b113d1516831692505b60405250949350505050565b80356001600160a01b038116811461161e575f5ffd5b919050565b5f60208284031215611633575f5ffd5b61163c82611608565b9392505050565b5f5f60408385031215611654575f5ffd5b61165d83611608565b946020939093013593505050565b5f6020828403121561167b575f5ffd5b5035919050565b5f5f60408385031215611693575f5ffd5b61169c83611608565b9150602083013580151581146116b0575f5ffd5b809150509250929050565b6020808252600a908201526927b7363c9037bbb732b960b11b604082015260600190565b634e487b7160e01b5f52601160045260245ffd5b81810381811115611706576117066116df565b92915050565b80820180821115611706576117066116df565b6020808252600c908201526b24b73b30b634b2103ab9b2b960a11b604082015260600190565b6020808252600e908201526d125b9d985b1a5908185b5bdd5b9d60921b604082015260600190565b8082028115828204841417611706576117066116df565b5f8261179e57634e487b7160e01b5f52601260045260245ffd5b50049056fe9b779b17422d0df92223018b32b4d1fa46e071723d6817e2486d003becc55f00a2646970667358221220eb92399fae42c1a4caef9ed6a7800ad067db572977f05481db4bce741985630764736f6c634300081c0033",
  "linkReferences": {},
  "deployedLinkReferences": {},
  "immutableReferences": {},
  "inputSourceName": "project/contracts/TreasuryManager.sol",
  "buildInfoId": "solc-0_8_28-654afc4422043c8a4b85cd30b41762ba33885a52"
}