{
  "_format": "hh3-artifact-1",
  "contractName": "TreasuryManager",
  "sourceName": "contracts/TreasuryManager.sol",
  "abi": [
    {
      "inputs": [
        {
          "internalType": "address",
          "name": "_btcbToken",
          "type": "address"
        }
      ],
      "stateMutability": "nonpayable",
      "type": "constructor"
    },
    {
      "inputs": [],
      "name": "COMMUNITY_BPS",
      "outputs": [
        {
          "internalType": "uint256",
          "name": "",
          "type": "uint256"
        }
      ],
      "stateMutability": "view",
      "type": "function"
    },
    {
      "inputs": [],
      "name": "INTERDEPENDENT_BPS",
      "outputs": [
        {
          "internalType": "uint256",
          "name": "",
          "type": "uint256"
        }
      ],
      "stateMutability": "view",
      "type": "function"
    },
    {
      "inputs": [],
      "name": "RESERVE_BPS",
      "outputs": [
        {
          "internalType": "uint256",
          "name": "",
          "type": "uint256"
        }
      ],
      "stateMutability": "view",
      "type": "function"
    },
    {
      "inputs": [],
      "name": "btcbToken",
      "outputs": [
        {
          "internalType": "contract IERC20",
          "name": "",
          "type": "address"
        }
      ],
      "stateMutability": "view",
      "type": "function"
    },
    {
      "inputs": [],
      "name": "communityBuilderContract",
      "outputs": [
        {
          "internalType": "address",
          "name": "",
          "type": "address"
        }
      ],
      "stateMutability": "view",
      "type": "function"
    },
    {
      "inputs": [],
      "name": "communityBuilderFundBalance",
      "outputs": [
        {
          "internalType": "uint256",
          "name": "",
          "type": "uint256"
        }
      ],
      "stateMutability": "view",
      "type": "function"
    },
    {
      "inputs": [],
      "name": "coreContract",
      "outputs": [
        {
          "internalType": "address",
          "name": "",
          "type": "address"
        }
      ],
      "stateMutability": "view",
      "type": "function"
    },
    {
      "inputs": [],
      "name": "getAvailableDailyRoiBudget",
      "outputs": [
        {
          "internalType": "uint256",
          "name": "",
          "type": "uint256"
        }
      ],
      "stateMutability": "view",
      "type": "function"
    },
    {
      "inputs": [],
      "name": "interdependentFundBalance",
      "outputs": [
        {
          "internalType": "uint256",
          "name": "",
          "type": "uint256"
        }
      ],
      "stateMutability": "view",
      "type": "function"
    },
    {
      "inputs": [],
      "name": "owner",
      "outputs": [
        {
          "internalType": "address",
          "name": "",
          "type": "address"
        }
      ],
      "stateMutability": "view",
      "type": "function"
    },
    {
      "inputs": [
        {
          "internalType": "address",
          "name": "user",
          "type": "address"
        },
        {
          "internalType": "uint256",
          "name": "amount",
          "type": "uint256"
        }
      ],
      "name": "payCommunityBuilder",
      "outputs": [],
      "stateMutability": "nonpayable",
      "type": "function"
    },
    {
      "inputs": [
        {
          "internalType": "address",
          "name": "user",
          "type": "address"
        },
        {
          "internalType": "uint256",
          "name": "amount",
          "type": "uint256"
        }
      ],
      "name": "paySelfRoi",
      "outputs": [],
      "stateMutability": "nonpayable",
      "type": "function"
    },
    {
      "inputs": [
        {
          "internalType": "uint256",
          "name": "amount",
          "type": "uint256"
        }
      ],
      "name": "processContribution",
      "outputs": [],
      "stateMutability": "nonpayable",
      "type": "function"
    },
    {
      "inputs": [],
      "name": "reserveFundBalance",
      "outputs": [
        {
          "internalType": "uint256",
          "name": "",
          "type": "uint256"
        }
      ],
      "stateMutability": "view",
      "type": "function"
    },
    {
      "inputs": [],
      "name": "rewardContract",
      "outputs": [
        {
          "internalType": "address",
          "name": "",
          "type": "address"
        }
      ],
      "stateMutability": "view",
      "type": "function"
    },
    {
      "inputs": [
        {
          "internalType": "address",
          "name": "_communityBuilderContract",
          "type": "address"
        }
      ],
      "name": "setCommunityBuilderContract",
      "outputs": [],
      "stateMutability": "nonpayable",
      "type": "function"
    },
    {
      "inputs": [
        {
          "internalType": "address",
          "name": "_coreContract",
          "type": "address"
        }
      ],
      "name": "setCoreContract",
      "outputs": [],
      "stateMutability": "nonpayable",
      "type": "function"
    },
    {
      "inputs": [
        {
          "internalType": "address",
          "name": "_rewardContract",
          "type": "address"
        }
      ],
      "name": "setRewardContract",
      "outputs": [],
      "stateMutability": "nonpayable",
      "type": "function"
    },
    {
      "inputs": [],
      "name": "totalSelfRoiPaid",
      "outputs": [
        {
          "internalType": "uint256",
          "name": "",
          "type": "uint256"
        }
      ],
      "stateMutability": "view",
      "type": "function"
    },
    {
      "inputs": [],
      "name": "totalWorkingIncomePaid",
      "outputs": [
        {
          "internalType": "uint256",
          "name": "",
          "type": "uint256"
        }
      ],
      "stateMutability": "view",
      "type": "function"
    },
    {
      "inputs": [
        {
          "internalType": "uint256",
          "name": "amount",
          "type": "uint256"
        }
      ],
      "name": "useWorkingFund",
      "outputs": [],
      "stateMutability": "nonpayable",
      "type": "function"
    },
    {
      "inputs": [],
      "name": "workingFundBalance",
      "outputs": [
        {
          "internalType": "uint256",
          "name": "",
          "type": "uint256"
        }
      ],
      "stateMutability": "view",
      "type": "function"
    }
  ],
  "bytecode": "0x608060405234801561000f575f5ffd5b50604051611c6b380380611c6b83398181016040528101906100319190610182565b5f73ffffffffffffffffffffffffffffffffffffffff168173ffffffffffffffffffffffffffffffffffffffff160361009f576040517f08c379a000000000000000000000000000000000000000000000000000000000815260040161009690610207565b60405180910390fd5b3360015f6101000a81548173ffffffffffffffffffffffffffffffffffffffff021916908373ffffffffffffffffffffffffffffffffffffffff160217905550805f5f6101000a81548173ffffffffffffffffffffffffffffffffffffffff021916908373ffffffffffffffffffffffffffffffffffffffff16021790555050610225565b5f5ffd5b5f73ffffffffffffffffffffffffffffffffffffffff82169050919050565b5f61015182610128565b9050919050565b61016181610147565b811461016b575f5ffd5b50565b5f8151905061017c81610158565b92915050565b5f6020828403121561019757610196610124565b5b5f6101a48482850161016e565b91505092915050565b5f82825260208201905092915050565b7f496e76616c6964204254434220746f6b656e00000000000000000000000000005f82015250565b5f6101f16012836101ad565b91506101fc826101bd565b602082019050919050565b5f6020820190508181035f83015261021e816101e5565b9050919050565b611a39806102325f395ff3fe608060405234801561000f575f5ffd5b5060043610610140575f3560e01c8063a3baf0f7116100b6578063d09270c01161007a578063d09270c014610318578063d8f828d414610334578063da795fa414610352578063de9a7e1914610370578063e41dc9f81461038e578063e80db5db146103ac57610140565b8063a3baf0f714610288578063a69fe0dd146102a4578063a7589d21146102c2578063a9cbaf87146102de578063c6266693146102fc57610140565b80636ea69d62116101085780636ea69d62146101d657806387bffd59146101f45780638cd2b1e8146102125780638da5cb5b14610230578063976b6f9d1461024e5780639c6f4bb71461026a57610140565b80630d557a5a1461014457806321074973146101605780634b74830c1461017e5780634c4e73311461019c57806351508f0a146101ba575b5f5ffd5b61015e60048036038101906101599190611100565b6103ca565b005b61016861050a565b6040516101759190611143565b60405180910390f35b610186610510565b6040516101939190611143565b60405180910390f35b6101a4610516565b6040516101b19190611143565b60405180910390f35b6101d460048036038101906101cf9190611100565b61051c565b005b6101de61065c565b6040516101eb919061116b565b60405180910390f35b6101fc610681565b6040516102099190611143565b60405180910390f35b61021a610687565b6040516102279190611143565b60405180910390f35b61023861068d565b604051610245919061116b565b60405180910390f35b610268600480360381019061026391906111ae565b6106b2565b005b6102726107fb565b60405161027f9190611143565b60405180910390f35b6102a2600480360381019061029d91906111d9565b61081b565b005b6102ac610a95565b6040516102b99190611143565b60405180910390f35b6102dc60048036038101906102d791906111d9565b610a9b565b005b6102e6610d2d565b6040516102f39190611143565b60405180910390f35b61031660048036038101906103119190611100565b610d32565b005b610332600480360381019061032d91906111ae565b610e72565b005b61033c611028565b6040516103499190611143565b60405180910390f35b61035a61102e565b604051610367919061116b565b60405180910390f35b610378611053565b6040516103859190611272565b60405180910390f35b610396611077565b6040516103a39190611143565b60405180910390f35b6103b461107d565b6040516103c1919061116b565b60405180910390f35b60015f9054906101000a900473ffffffffffffffffffffffffffffffffffffffff1673ffffffffffffffffffffffffffffffffffffffff163373ffffffffffffffffffffffffffffffffffffffff1614610459576040517f08c379a0000000000000000000000000000000000000000000000000000000008152600401610450906112e5565b60405180910390fd5b5f73ffffffffffffffffffffffffffffffffffffffff168173ffffffffffffffffffffffffffffffffffffffff16036104c7576040517f08c379a00000000000000000000000000000000000000000000000000000000081526004016104be9061134d565b60405180910390fd5b8060045f6101000a81548173ffffffffffffffffffffffffffffffffffffffff021916908373ffffffffffffffffffffffffffffffffffffffff16021790555050565b60075481565b6109c481565b60095481565b60015f9054906101000a900473ffffffffffffffffffffffffffffffffffffffff1673ffffffffffffffffffffffffffffffffffffffff163373ffffffffffffffffffffffffffffffffffffffff16146105ab576040517f08c379a00000000000000000000000000000000000000000000000000000000081526004016105a2906112e5565b60405180910390fd5b5f73ffffffffffffffffffffffffffffffffffffffff168173ffffffffffffffffffffffffffffffffffffffff1603610619576040517f08c379a0000000000000000000000000000000000000000000000000000000008152600401610610906113b5565b60405180910390fd5b8060035f6101000a81548173ffffffffffffffffffffffffffffffffffffffff021916908373ffffffffffffffffffffffffffffffffffffffff16021790555050565b60035f9054906101000a900473ffffffffffffffffffffffffffffffffffffffff1681565b60085481565b600a5481565b60015f9054906101000a900473ffffffffffffffffffffffffffffffffffffffff1681565b60035f9054906101000a900473ffffffffffffffffffffffffffffffffffffffff1673ffffffffffffffffffffffffffffffffffffffff163373ffffffffffffffffffffffffffffffffffffffff1614610741576040517f08c379a00000000000000000000000000000000000000000000000000000000081526004016107389061141d565b60405180910390fd5b5f8111610783576040517f08c379a000000000000000000000000000000000000000000000000000000000815260040161077a90611485565b60405180910390fd5b8060085410156107c8576040517f08c379a00000000000000000000000000000000000000000000000000000000081526004016107bf906114ed565b60405180910390fd5b8060085f8282546107d99190611538565b9250508190555080600a5f8282546107f1919061156b565b9250508190555050565b5f60646005805461080c919061159e565b610816919061160c565b905090565b60045f9054906101000a900473ffffffffffffffffffffffffffffffffffffffff1673ffffffffffffffffffffffffffffffffffffffff163373ffffffffffffffffffffffffffffffffffffffff16146108aa576040517f08c379a00000000000000000000000000000000000000000000000000000000081526004016108a190611686565b60405180910390fd5b5f73ffffffffffffffffffffffffffffffffffffffff168273ffffffffffffffffffffffffffffffffffffffff1603610918576040517f08c379a000000000000000000000000000000000000000000000000000000000815260040161090f906116ee565b60405180910390fd5b5f811161095a576040517f08c379a000000000000000000000000000000000000000000000000000000000815260040161095190611485565b60405180910390fd5b80600754101561099f576040517f08c379a000000000000000000000000000000000000000000000000000000000815260040161099690611756565b60405180910390fd5b8060075f8282546109b09190611538565b925050819055505f5f9054906101000a900473ffffffffffffffffffffffffffffffffffffffff1673ffffffffffffffffffffffffffffffffffffffff1663a9059cbb83836040518363ffffffff1660e01b8152600401610a12929190611774565b6020604051808303815f875af1158015610a2e573d5f5f3e3d5ffd5b505050506040513d601f19601f82011682018060405250810190610a5291906117d0565b610a91576040517f08c379a0000000000000000000000000000000000000000000000000000000008152600401610a8890611845565b60405180910390fd5b5050565b60065481565b60035f9054906101000a900473ffffffffffffffffffffffffffffffffffffffff1673ffffffffffffffffffffffffffffffffffffffff163373ffffffffffffffffffffffffffffffffffffffff1614610b2a576040517f08c379a0000000000000000000000000000000000000000000000000000000008152600401610b219061141d565b60405180910390fd5b5f73ffffffffffffffffffffffffffffffffffffffff168273ffffffffffffffffffffffffffffffffffffffff1603610b98576040517f08c379a0000000000000000000000000000000000000000000000000000000008152600401610b8f906116ee565b60405180910390fd5b5f8111610bda576040517f08c379a0000000000000000000000000000000000000000000000000000000008152600401610bd190611485565b60405180910390fd5b806005541015610c1f576040517f08c379a0000000000000000000000000000000000000000000000000000000008152600401610c16906118ad565b60405180910390fd5b8060055f828254610c309190611538565b925050819055508060095f828254610c48919061156b565b925050819055505f5f9054906101000a900473ffffffffffffffffffffffffffffffffffffffff1673ffffffffffffffffffffffffffffffffffffffff1663a9059cbb83836040518363ffffffff1660e01b8152600401610caa929190611774565b6020604051808303815f875af1158015610cc6573d5f5f3e3d5ffd5b505050506040513d601f19601f82011682018060405250810190610cea91906117d0565b610d29576040517f08c379a0000000000000000000000000000000000000000000000000000000008152600401610d2090611915565b60405180910390fd5b5050565b60c881565b60015f9054906101000a900473ffffffffffffffffffffffffffffffffffffffff1673ffffffffffffffffffffffffffffffffffffffff163373ffffffffffffffffffffffffffffffffffffffff1614610dc1576040517f08c379a0000000000000000000000000000000000000000000000000000000008152600401610db8906112e5565b60405180910390fd5b5f73ffffffffffffffffffffffffffffffffffffffff168173ffffffffffffffffffffffffffffffffffffffff1603610e2f576040517f08c379a0000000000000000000000000000000000000000000000000000000008152600401610e269061197d565b60405180910390fd5b8060025f6101000a81548173ffffffffffffffffffffffffffffffffffffffff021916908373ffffffffffffffffffffffffffffffffffffffff16021790555050565b60025f9054906101000a900473ffffffffffffffffffffffffffffffffffffffff1673ffffffffffffffffffffffffffffffffffffffff163373ffffffffffffffffffffffffffffffffffffffff1614610f01576040517f08c379a0000000000000000000000000000000000000000000000000000000008152600401610ef8906119e5565b60405180910390fd5b5f8111610f43576040517f08c379a0000000000000000000000000000000000000000000000000000000008152600401610f3a90611485565b60405180910390fd5b5f6127106109c483610f55919061159e565b610f5f919061160c565b90505f61271061012c84610f73919061159e565b610f7d919061160c565b90505f61271060c885610f90919061159e565b610f9a919061160c565b90505f81838587610fab9190611538565b610fb59190611538565b610fbf9190611538565b90508360055f828254610fd2919061156b565b925050819055508260065f828254610fea919061156b565b925050819055508160075f828254611002919061156b565b925050819055508060085f82825461101a919061156b565b925050819055505050505050565b60055481565b60045f9054906101000a900473ffffffffffffffffffffffffffffffffffffffff1681565b5f5f9054906101000a900473ffffffffffffffffffffffffffffffffffffffff1681565b61012c81565b60025f9054906101000a900473ffffffffffffffffffffffffffffffffffffffff1681565b5f5ffd5b5f73ffffffffffffffffffffffffffffffffffffffff82169050919050565b5f6110cf826110a6565b9050919050565b6110df816110c5565b81146110e9575f5ffd5b50565b5f813590506110fa816110d6565b92915050565b5f60208284031215611115576111146110a2565b5b5f611122848285016110ec565b91505092915050565b5f819050919050565b61113d8161112b565b82525050565b5f6020820190506111565f830184611134565b92915050565b611165816110c5565b82525050565b5f60208201905061117e5f83018461115c565b92915050565b61118d8161112b565b8114611197575f5ffd5b50565b5f813590506111a881611184565b92915050565b5f602082840312156111c3576111c26110a2565b5b5f6111d08482850161119a565b91505092915050565b5f5f604083850312156111ef576111ee6110a2565b5b5f6111fc858286016110ec565b925050602061120d8582860161119a565b9150509250929050565b5f819050919050565b5f61123a611235611230846110a6565b611217565b6110a6565b9050919050565b5f61124b82611220565b9050919050565b5f61125c82611241565b9050919050565b61126c81611252565b82525050565b5f6020820190506112855f830184611263565b92915050565b5f82825260208201905092915050565b7f4f6e6c79206f776e6572000000000000000000000000000000000000000000005f82015250565b5f6112cf600a8361128b565b91506112da8261129b565b602082019050919050565b5f6020820190508181035f8301526112fc816112c3565b9050919050565b7f496e76616c696420636f6d6d756e697479206275696c646572000000000000005f82015250565b5f61133760198361128b565b915061134282611303565b602082019050919050565b5f6020820190508181035f8301526113648161132b565b9050919050565b7f496e76616c69642072657761726420636f6e74726163740000000000000000005f82015250565b5f61139f60178361128b565b91506113aa8261136b565b602082019050919050565b5f6020820190508181035f8301526113cc81611393565b9050919050565b7f4f6e6c792072657761726420636f6e74726163740000000000000000000000005f82015250565b5f61140760148361128b565b9150611412826113d3565b602082019050919050565b5f6020820190508181035f830152611434816113fb565b9050919050565b7f496e76616c696420616d6f756e740000000000000000000000000000000000005f82015250565b5f61146f600e8361128b565b915061147a8261143b565b602082019050919050565b5f6020820190508181035f83015261149c81611463565b9050919050565b7f496e73756666696369656e7420776f726b696e672066756e64000000000000005f82015250565b5f6114d760198361128b565b91506114e2826114a3565b602082019050919050565b5f6020820190508181035f830152611504816114cb565b9050919050565b7f4e487b71000000000000000000000000000000000000000000000000000000005f52601160045260245ffd5b5f6115428261112b565b915061154d8361112b565b92508282039050818111156115655761156461150b565b5b92915050565b5f6115758261112b565b91506115808361112b565b92508282019050808211156115985761159761150b565b5b92915050565b5f6115a88261112b565b91506115b38361112b565b92508282026115c18161112b565b915082820484148315176115d8576115d761150b565b5b5092915050565b7f4e487b71000000000000000000000000000000000000000000000000000000005f52601260045260245ffd5b5f6116168261112b565b91506116218361112b565b925082611631576116306115df565b5b828204905092915050565b7f4f6e6c7920636f6d6d756e697479206275696c646572000000000000000000005f82015250565b5f61167060168361128b565b915061167b8261163c565b602082019050919050565b5f6020820190508181035f83015261169d81611664565b9050919050565b7f496e76616c6964207573657200000000000000000000000000000000000000005f82015250565b5f6116d8600c8361128b565b91506116e3826116a4565b602082019050919050565b5f6020820190508181035f830152611705816116cc565b9050919050565b7f496e73756666696369656e7420636f6d6d756e6974792066756e6400000000005f82015250565b5f611740601b8361128b565b915061174b8261170c565b602082019050919050565b5f6020820190508181035f83015261176d81611734565b9050919050565b5f6040820190506117875f83018561115c565b6117946020830184611134565b9392505050565b5f8115159050919050565b6117af8161179b565b81146117b9575f5ffd5b50565b5f815190506117ca816117a6565b92915050565b5f602082840312156117e5576117e46110a2565b5b5f6117f2848285016117bc565b91505092915050565b7f436f6d6d756e697479207472616e73666572206661696c6564000000000000005f82015250565b5f61182f60198361128b565b915061183a826117fb565b602082019050919050565b5f6020820190508181035f83015261185c81611823565b9050919050565b7f496e73756666696369656e7420696e746572646570656e64656e742066756e645f82015250565b5f61189760208361128b565b91506118a282611863565b602082019050919050565b5f6020820190508181035f8301526118c48161188b565b9050919050565b7f524f49207472616e73666572206661696c6564000000000000000000000000005f82015250565b5f6118ff60138361128b565b915061190a826118cb565b602082019050919050565b5f6020820190508181035f83015261192c816118f3565b9050919050565b7f496e76616c696420636f726520636f6e747261637400000000000000000000005f82015250565b5f61196760158361128b565b915061197282611933565b602082019050919050565b5f6020820190508181035f8301526119948161195b565b9050919050565b7f4f6e6c7920636f726520636f6e747261637400000000000000000000000000005f82015250565b5f6119cf60128361128b565b91506119da8261199b565b602082019050919050565b5f6020820190508181035f8301526119fc816119c3565b905091905056fea2646970667358221220a14d847f90b966d2f24075febbec0b4dcc33f22014b7b41ed1646cadff5d14af64736f6c634300081c0033",
  "linkReferences": {},
  "deployedLinkReferences": {},
  "immutableReferences": {},
  "inputSourceName": "project/contracts/TreasuryManager.sol",
  "buildInfoId": "solc-0_8_28-8a8f1e859c525621805538de35a9f8b1c41018c1"
}